{
  "contractName": "ClimbingScalesData",
  "abi": [
    {
      "inputs": [
        {
          "components": [
            {
              "internalType": "enum ClimbingScalesData.Discipline",
              "name": "discipline",
              "type": "uint8"
            },
            {
              "internalType": "enum ClimbingScalesData.Scale",
              "name": "scale",
              "type": "uint8"
            },
            {
              "internalType": "uint8",
              "name": "grade",
              "type": "uint8"
            }
          ],
          "internalType": "struct ClimbingScalesData.GradingQuery",
          "name": "q",
          "type": "tuple"
        }
      ],
      "name": "getGrade",
      "outputs": [
        {
          "internalType": "string",
          "name": "r",
          "type": "string"
        }
      ],
      "stateMutability": "view",
      "type": "function",
      "constant": true
    }
  ],
  "bytecode": "0x60806040526040518061044001604052806040518060400160405280600381526020017f352e30000000000000000000000000000000000000000000000000000000000081525081526020016040518060400160405280600381526020017f352e31000000000000000000000000000000000000000000000000000000000081525081526020016040518060400160405280600381526020017f352e32000000000000000000000000000000000000000000000000000000000081525081526020016040518060400160405280600381526020017f352e33000000000000000000000000000000000000000000000000000000000081525081526020016040518060400160405280600381526020017f352e34000000000000000000000000000000000000000000000000000000000081525081526020016040518060400160405280600381526020017f352e35000000000000000000000000000000000000000000000000000000000081525081526020016040518060400160405280600381526020017f352e36000000000000000000000000000000000000000000000000000000000081525081526020016040518060400160405280600381526020017f352e37000000000000000000000000000000000000000000000000000000000081525081526020016040518060400160405280600381526020017f352e38000000000000000000000000000000000000000000000000000000000081525081526020016040518060400160405280600381526020017f352e39000000000000000000000000000000000000000000000000000000000081525081526020016040518060400160405280600581526020017f352e31306100000000000000000000000000000000000000000000000000000081525081526020016040518060400160405280600581526020017f352e31306200000000000000000000000000000000000000000000000000000081525081526020016040518060400160405280600581526020017f352e31306300000000000000000000000000000000000000000000000000000081525081526020016040518060400160405280600581526020017f352e31306400000000000000000000000000000000000000000000000000000081525081526020016040518060400160405280600581526020017f352e31316100000000000000000000000000000000000000000000000000000081525081526020016040518060400160405280600581526020017f352e31316200000000000000000000000000000000000000000000000000000081525081526020016040518060400160405280600581526020017f352e31316300000000000000000000000000000000000000000000000000000081525081526020016040518060400160405280600581526020017f352e31316400000000000000000000000000000000000000000000000000000081525081526020016040518060400160405280600581526020017f352e31326100000000000000000000000000000000000000000000000000000081525081526020016040518060400160405280600581526020017f352e31326200000000000000000000000000000000000000000000000000000081525081526020016040518060400160405280600581526020017f352e31326300000000000000000000000000000000000000000000000000000081525081526020016040518060400160405280600581526020017f352e31326400000000000000000000000000000000000000000000000000000081525081526020016040518060400160405280600581526020017f352e31336100000000000000000000000000000000000000000000000000000081525081526020016040518060400160405280600581526020017f352e31336200000000000000000000000000000000000000000000000000000081525081526020016040518060400160405280600581526020017f352e31336300000000000000000000000000000000000000000000000000000081525081526020016040518060400160405280600581526020017f352e31336400000000000000000000000000000000000000000000000000000081525081526020016040518060400160405280600581526020017f352e31346100000000000000000000000000000000000000000000000000000081525081526020016040518060400160405280600581526020017f352e31346200000000000000000000000000000000000000000000000000000081525081526020016040518060400160405280600581526020017f352e31346300000000000000000000000000000000000000000000000000000081525081526020016040518060400160405280600581526020017f352e31346400000000000000000000000000000000000000000000000000000081525081526020016040518060400160405280600581526020017f352e31356100000000000000000000000000000000000000000000000000000081525081526020016040518060400160405280600581526020017f352e31356200000000000000000000000000000000000000000000000000000081525081526020016040518060400160405280600581526020017f352e31356300000000000000000000000000000000000000000000000000000081525081526020016040518060400160405280600581526020017f352e3135640000000000000000000000000000000000000000000000000000008152508152506000906022620007f6929190620016ac565b506040518061028001604052806040518060400160405280600181526020017f310000000000000000000000000000000000000000000000000000000000000081525081526020016040518060400160405280600181526020017f320000000000000000000000000000000000000000000000000000000000000081525081526020016040518060400160405280600181526020017f330000000000000000000000000000000000000000000000000000000000000081525081526020016040518060400160405280600281526020017f332b00000000000000000000000000000000000000000000000000000000000081525081526020016040518060400160405280600281526020017f346100000000000000000000000000000000000000000000000000000000000081525081526020016040518060400160405280600281526020017f346200000000000000000000000000000000000000000000000000000000000081525081526020016040518060400160405280600281526020017f346300000000000000000000000000000000000000000000000000000000000081525081526020016040518060400160405280600281526020017f356100000000000000000000000000000000000000000000000000000000000081525081526020016040518060400160405280600281526020017f356200000000000000000000000000000000000000000000000000000000000081525081526020016040518060400160405280600281526020017f356300000000000000000000000000000000000000000000000000000000000081525081526020016040518060400160405280600281526020017f366100000000000000000000000000000000000000000000000000000000000081525081526020016040518060400160405280600381526020017f36612b000000000000000000000000000000000000000000000000000000000081525081526020016040518060400160405280600281526020017f366200000000000000000000000000000000000000000000000000000000000081525081526020016040518060400160405280600381526020017f36622b000000000000000000000000000000000000000000000000000000000081525081526020016040518060400160405280600281526020017f366300000000000000000000000000000000000000000000000000000000000081525081526020016040518060400160405280600381526020017f36632b000000000000000000000000000000000000000000000000000000000081525081526020016040518060400160405280600281526020017f376100000000000000000000000000000000000000000000000000000000000081525081526020016040518060400160405280600381526020017f37612b000000000000000000000000000000000000000000000000000000000081525081526020016040518060400160405280600281526020017f376200000000000000000000000000000000000000000000000000000000000081525081526020016040518060400160405280600381526020017f37622b0000000000000000000000000000000000000000000000000000000000815250815250602290601462000caf929190620016ff565b506040518061026001604052806040518060400160405280600281526020017f564200000000000000000000000000000000000000000000000000000000000081525081526020016040518060400160405280600281526020017f563000000000000000000000000000000000000000000000000000000000000081525081526020016040518060400160405280600281526020017f563100000000000000000000000000000000000000000000000000000000000081525081526020016040518060400160405280600281526020017f563200000000000000000000000000000000000000000000000000000000000081525081526020016040518060400160405280600281526020017f563300000000000000000000000000000000000000000000000000000000000081525081526020016040518060400160405280600281526020017f563400000000000000000000000000000000000000000000000000000000000081525081526020016040518060400160405280600281526020017f563500000000000000000000000000000000000000000000000000000000000081525081526020016040518060400160405280600281526020017f563600000000000000000000000000000000000000000000000000000000000081525081526020016040518060400160405280600281526020017f563700000000000000000000000000000000000000000000000000000000000081525081526020016040518060400160405280600281526020017f563800000000000000000000000000000000000000000000000000000000000081525081526020016040518060400160405280600281526020017f563900000000000000000000000000000000000000000000000000000000000081525081526020016040518060400160405280600381526020017f563130000000000000000000000000000000000000000000000000000000000081525081526020016040518060400160405280600381526020017f563131000000000000000000000000000000000000000000000000000000000081525081526020016040518060400160405280600381526020017f563132000000000000000000000000000000000000000000000000000000000081525081526020016040518060400160405280600381526020017f563133000000000000000000000000000000000000000000000000000000000081525081526020016040518060400160405280600381526020017f563134000000000000000000000000000000000000000000000000000000000081525081526020016040518060400160405280600381526020017f563135000000000000000000000000000000000000000000000000000000000081525081526020016040518060400160405280600381526020017f563136000000000000000000000000000000000000000000000000000000000081525081526020016040518060400160405280600381526020017f563137000000000000000000000000000000000000000000000000000000000081525081525060369060136200112d92919062001752565b50604051806102e001604052806040518060400160405280600181526020017f330000000000000000000000000000000000000000000000000000000000000081525081526020016040518060400160405280600181526020017f340000000000000000000000000000000000000000000000000000000000000081525081526020016040518060400160405280600181526020017f350000000000000000000000000000000000000000000000000000000000000081525081526020016040518060400160405280600281526020017f352b00000000000000000000000000000000000000000000000000000000000081525081526020016040518060400160405280600281526020017f366100000000000000000000000000000000000000000000000000000000000081525081526020016040518060400160405280600381526020017f36612b000000000000000000000000000000000000000000000000000000000081525081526020016040518060400160405280600281526020017f366200000000000000000000000000000000000000000000000000000000000081525081526020016040518060400160405280600381526020017f36622b000000000000000000000000000000000000000000000000000000000081525081526020016040518060400160405280600281526020017f366300000000000000000000000000000000000000000000000000000000000081525081526020016040518060400160405280600381526020017f36632b000000000000000000000000000000000000000000000000000000000081525081526020016040518060400160405280600281526020017f376100000000000000000000000000000000000000000000000000000000000081525081526020016040518060400160405280600381526020017f37612b000000000000000000000000000000000000000000000000000000000081525081526020016040518060400160405280600281526020017f376200000000000000000000000000000000000000000000000000000000000081525081526020016040518060400160405280600381526020017f37622b000000000000000000000000000000000000000000000000000000000081525081526020016040518060400160405280600281526020017f376300000000000000000000000000000000000000000000000000000000000081525081526020016040518060400160405280600381526020017f37632b000000000000000000000000000000000000000000000000000000000081525081526020016040518060400160405280600281526020017f386100000000000000000000000000000000000000000000000000000000000081525081526020016040518060400160405280600381526020017f38612b000000000000000000000000000000000000000000000000000000000081525081526020016040518060400160405280600281526020017f386200000000000000000000000000000000000000000000000000000000000081525081526020016040518060400160405280600381526020017f38622b000000000000000000000000000000000000000000000000000000000081525081526020016040518060400160405280600281526020017f386300000000000000000000000000000000000000000000000000000000000081525081526020016040518060400160405280600381526020017f38632b000000000000000000000000000000000000000000000000000000000081525081526020016040518060400160405280600281526020017f3961000000000000000000000000000000000000000000000000000000000000815250815250604990601762001697929190620017a5565b50348015620016a557600080fd5b5062001be6565b8260228101928215620016ec579160200282015b82811115620016eb578251829081620016da919062001aff565b5091602001919060010190620016c0565b5b509050620016fb9190620017f8565b5090565b82601481019282156200173f579160200282015b828111156200173e5782518290816200172d919062001aff565b509160200191906001019062001713565b5b5090506200174e9190620017f8565b5090565b826013810192821562001792579160200282015b828111156200179157825182908162001780919062001aff565b509160200191906001019062001766565b5b509050620017a19190620017f8565b5090565b8260178101928215620017e5579160200282015b82811115620017e4578251829081620017d3919062001aff565b5091602001919060010190620017b9565b5b509050620017f49190620017f8565b5090565b5b808211156200181c576000818162001812919062001820565b50600101620017f9565b5090565b5080546200182e90620018ee565b6000825580601f1062001842575062001863565b601f01602090049060005260206000209081019062001862919062001866565b5b50565b5b808211156200188157600081600090555060010162001867565b5090565b600081519050919050565b7f4e487b7100000000000000000000000000000000000000000000000000000000600052604160045260246000fd5b7f4e487b7100000000000000000000000000000000000000000000000000000000600052602260045260246000fd5b600060028204905060018216806200190757607f821691505b6020821081036200191d576200191c620018bf565b5b50919050565b60008190508160005260206000209050919050565b60006020601f8301049050919050565b600082821b905092915050565b600060088302620019877fffffffffffffffffffffffffffffffffffffffffffffffffffffffffffffffff8262001948565b62001993868362001948565b95508019841693508086168417925050509392505050565b6000819050919050565b6000819050919050565b6000620019e0620019da620019d484620019ab565b620019b5565b620019ab565b9050919050565b6000819050919050565b620019fc83620019bf565b62001a1462001a0b82620019e7565b84845462001955565b825550505050565b600090565b62001a2b62001a1c565b62001a38818484620019f1565b505050565b5b8181101562001a605762001a5460008262001a21565b60018101905062001a3e565b5050565b601f82111562001aaf5762001a798162001923565b62001a848462001938565b8101602085101562001a94578190505b62001aac62001aa38562001938565b83018262001a3d565b50505b505050565b600082821c905092915050565b600062001ad46000198460080262001ab4565b1980831691505092915050565b600062001aef838362001ac1565b9150826002028217905092915050565b62001b0a8262001885565b67ffffffffffffffff81111562001b265762001b2562001890565b5b62001b328254620018ee565b62001b3f82828562001a64565b600060209050601f83116001811462001b77576000841562001b62578287015190505b62001b6e858262001ae1565b86555062001bde565b601f19841662001b878662001923565b60005b8281101562001bb15784890151825560018201915060208501945060208101905062001b8a565b8683101562001bd1578489015162001bcd601f89168262001ac1565b8355505b6001600288020188555050505b505050505050565b610b158062001bf66000396000f3fe608060405234801561001057600080fd5b506004361061002b5760003560e01c8063875b0fde14610030575b600080fd5b61004a60048036038101906100459190610806565b610060565b60405161005791906108bb565b60405180910390f35b606081610070816000015161048c565b6100af576040517f08c379a00000000000000000000000000000000000000000000000000000000081526004016100a690610929565b60405180910390fd5b6100c1816000015182602001516104bd565b610100576040517f08c379a00000000000000000000000000000000000000000000000000000000081526004016100f790610995565b60405180910390fd5b61011281602001518260400151610598565b610151576040517f08c379a000000000000000000000000000000000000000000000000000000000815260040161014890610a01565b60405180910390fd5b60008360200151600381111561016a57610169610a21565b5b60ff160361021e576000836040015160ff166022811061018d5761018c610a50565b5b01805461019990610aae565b80601f01602080910402602001604051908101604052809291908181526020018280546101c590610aae565b80156102125780601f106101e757610100808354040283529160200191610212565b820191906000526020600020905b8154815290600101906020018083116101f557829003601f168201915b50505050509150610486565b60018360200151600381111561023757610236610a21565b5b60ff16036102eb576022836040015160ff166014811061025a57610259610a50565b5b01805461026690610aae565b80601f016020809104026020016040519081016040528092919081815260200182805461029290610aae565b80156102df5780601f106102b4576101008083540402835291602001916102df565b820191906000526020600020905b8154815290600101906020018083116102c257829003601f168201915b50505050509150610486565b60028360200151600381111561030457610303610a21565b5b60ff16036103b8576036836040015160ff166013811061032757610326610a50565b5b01805461033390610aae565b80601f016020809104026020016040519081016040528092919081815260200182805461035f90610aae565b80156103ac5780601f10610381576101008083540402835291602001916103ac565b820191906000526020600020905b81548152906001019060200180831161038f57829003601f168201915b50505050509150610486565b6003836020015160038111156103d1576103d0610a21565b5b60ff1603610485576049836040015160ff16601781106103f4576103f3610a50565b5b01805461040090610aae565b80601f016020809104026020016040519081016040528092919081815260200182805461042c90610aae565b80156104795780601f1061044e57610100808354040283529160200191610479565b820191906000526020600020905b81548152906001019060200180831161045c57829003601f168201915b50505050509150610486565b5b50919050565b60006001808111156104a1576104a0610a21565b5b8260018111156104b4576104b3610a21565b5b11159050919050565b6000808360018111156104d3576104d2610a21565b5b60ff16036105275760008260038111156104f0576104ef610a21565b5b60ff1614806105145750600182600381111561050f5761050e610a21565b5b60ff16145b156105225760019050610592565b61058d565b600183600181111561053c5761053b610a21565b5b60ff160361058c57600282600381111561055957610558610a21565b5b60ff16148061057d5750600382600381111561057857610577610a21565b5b60ff16145b1561058b5760019050610592565b5b5b600090505b92915050565b6000808360038111156105ae576105ad610a21565b5b60ff16036105d05760228260ff1610156105cb5760019050610679565b610674565b60018360038111156105e5576105e4610a21565b5b60ff16036106075760148260ff1610156106025760019050610679565b610673565b600283600381111561061c5761061b610a21565b5b60ff160361063e5760138260ff1610156106395760019050610679565b610672565b600383600381111561065357610652610a21565b5b60ff16036106715760178260ff1610156106705760019050610679565b5b5b5b5b600090505b92915050565b6000604051905090565b600080fd5b600080fd5b6000601f19601f8301169050919050565b7f4e487b7100000000000000000000000000000000000000000000000000000000600052604160045260246000fd5b6106dc82610693565b810181811067ffffffffffffffff821117156106fb576106fa6106a4565b5b80604052505050565b600061070e61067f565b905061071a82826106d3565b919050565b6002811061072c57600080fd5b50565b60008135905061073e8161071f565b92915050565b6004811061075157600080fd5b50565b60008135905061076381610744565b92915050565b600060ff82169050919050565b61077f81610769565b811461078a57600080fd5b50565b60008135905061079c81610776565b92915050565b6000606082840312156107b8576107b761068e565b5b6107c26060610704565b905060006107d28482850161072f565b60008301525060206107e684828501610754565b60208301525060406107fa8482850161078d565b60408301525092915050565b60006060828403121561081c5761081b610689565b5b600061082a848285016107a2565b91505092915050565b600081519050919050565b600082825260208201905092915050565b60005b8381101561086d578082015181840152602081019050610852565b8381111561087c576000848401525b50505050565b600061088d82610833565b610897818561083e565b93506108a781856020860161084f565b6108b081610693565b840191505092915050565b600060208201905081810360008301526108d58184610882565b905092915050565b7f496e76616c69642063686f69636520666f72204449534349504c494e45000000600082015250565b6000610913601d8361083e565b915061091e826108dd565b602082019050919050565b6000602082019050818103600083015261094281610906565b9050919050565b7f496e76616c69642063686f69636520666f72205343414c450000000000000000600082015250565b600061097f60188361083e565b915061098a82610949565b602082019050919050565b600060208201905081810360008301526109ae81610972565b9050919050565b7f496e76616c69642063686f69636520666f722047524144450000000000000000600082015250565b60006109eb60188361083e565b91506109f6826109b5565b602082019050919050565b60006020820190508181036000830152610a1a816109de565b9050919050565b7f4e487b7100000000000000000000000000000000000000000000000000000000600052602160045260246000fd5b7f4e487b7100000000000000000000000000000000000000000000000000000000600052603260045260246000fd5b7f4e487b7100000000000000000000000000000000000000000000000000000000600052602260045260246000fd5b60006002820490506001821680610ac657607f821691505b602082108103610ad957610ad8610a7f565b5b5091905056fea2646970667358221220bb9090bab3aeb2b0ea3e1f4928de95e61470859328647919d5a4fd373ef52cb864736f6c634300080f0033",
  "immutableReferences": {},
  "source": "// SPDX-License-Identifier: MIT\r\npragma solidity ^0.8.8;\r\npragma experimental ABIEncoderV2;\r\n/*  This Contract contains free climbing and bouldering grading system scales and is intended\r\n    as a public interface exposing readable data to user facing components\r\n\r\n    Deployment costs could be distributed with an off-chain interface which\r\n    offsets/distributes costs to users interacting with the interface by\r\n    creating a new (uint => string) pairing in a mapping when a grade that isn't on\r\n    said mapping is used.\r\n*/\r\ncontract ClimbingScalesData {\r\n    // Define limited user choices\r\n    enum Discipline { FREE, BOULDER }\r\n    enum Scale { YOSEMITE, FRENCH, HUECO, FONTAINEBLEAU }\r\n\r\n    struct GradingQuery {\r\n        Discipline discipline;\r\n        Scale scale;\r\n        uint8 grade;\r\n    }\r\n\r\n    // SCALES DATA\r\n    // Yosemite Decimal System\r\n    string[34] YDS = [\r\n        \"5.0\",\r\n        \"5.1\",\r\n        \"5.2\",\r\n        \"5.3\",\r\n        \"5.4\",\r\n        \"5.5\",\r\n        \"5.6\",\r\n        \"5.7\",\r\n        \"5.8\",\r\n        \"5.9\",\r\n        \"5.10a\",\r\n        \"5.10b\",\r\n        \"5.10c\",\r\n        \"5.10d\",\r\n        \"5.11a\",\r\n        \"5.11b\",\r\n        \"5.11c\",\r\n        \"5.11d\",\r\n        \"5.12a\",\r\n        \"5.12b\",\r\n        \"5.12c\",\r\n        \"5.12d\",\r\n        \"5.13a\",\r\n        \"5.13b\",\r\n        \"5.13c\",\r\n        \"5.13d\",\r\n        \"5.14a\",\r\n        \"5.14b\",\r\n        \"5.14c\",\r\n        \"5.14d\",\r\n        \"5.15a\",\r\n        \"5.15b\",\r\n        \"5.15c\",\r\n        \"5.15d\"\r\n    ];\r\n\r\n    // French Numerical Grading\r\n    string[20] FRENCH = [\r\n        \"1\",\r\n        \"2\",\r\n        \"3\",\r\n        \"3+\",\r\n        \"4a\",\r\n        \"4b\",\r\n        \"4c\",\r\n        \"5a\",\r\n        \"5b\",\r\n        \"5c\",\r\n        \"6a\",\r\n        \"6a+\",\r\n        \"6b\",\r\n        \"6b+\",\r\n        \"6c\",\r\n        \"6c+\",\r\n        \"7a\",\r\n        \"7a+\",\r\n        \"7b\",\r\n        \"7b+\"\r\n    ];\r\n\r\n    // Hueco System / V-Scale\r\n    string[19] HUECO = [\r\n        \"VB\",\r\n        \"V0\",\r\n        \"V1\",\r\n        \"V2\",\r\n        \"V3\",\r\n        \"V4\",\r\n        \"V5\",\r\n        \"V6\",\r\n        \"V7\",\r\n        \"V8\",\r\n        \"V9\",\r\n        \"V10\",\r\n        \"V11\",\r\n        \"V12\",\r\n        \"V13\",\r\n        \"V14\",\r\n        \"V15\",\r\n        \"V16\",\r\n        \"V17\"\r\n    ];\r\n\r\n    // FontaineBleau / French Bouldering Scale\r\n    string[23] FB = [\r\n        \"3\",\r\n        \"4\",\r\n        \"5\",\r\n        \"5+\",\r\n        \"6a\",\r\n        \"6a+\",\r\n        \"6b\",\r\n        \"6b+\",\r\n        \"6c\",\r\n        \"6c+\",\r\n        \"7a\",\r\n        \"7a+\",\r\n        \"7b\",\r\n        \"7b+\",\r\n        \"7c\",\r\n        \"7c+\",\r\n        \"8a\",\r\n        \"8a+\",\r\n        \"8b\",\r\n        \"8b+\",\r\n        \"8c\",\r\n        \"8c+\",\r\n        \"9a\"\r\n    ];\r\n\r\n    // Input validation functions\r\n    // Returns true if the chosen discipline is within the available range of choices\r\n    function checkDiscipline(Discipline _discipline) private pure returns (bool) {\r\n        return ( _discipline <= type(Discipline).max);\r\n    }\r\n\r\n    // Returns true if the given scale corresponds to the chosen discipline\r\n    function checkScale(Discipline _discipline, Scale _scale) private pure returns (bool) {\r\n        // Free Climbing Scales\r\n        if ( uint8(_discipline) == 0 ) {\r\n            // YDS Scale & French Scale\r\n            if ( uint8(_scale) == 0 || uint8(_scale) == 1 ) return true;\r\n        }\r\n        // Boulder Scales\r\n        else if ( uint8(_discipline) == 1) {\r\n            // V Scale & FontaineBleau Scale\r\n            if ( uint8(_scale) == 2 || uint8(_scale) == 3 ) return true;\r\n        }\r\n        return false;\r\n    }\r\n\r\n    // Returns true if the chosen grade is within the range of the chosen scale\r\n    function checkGrade(Scale _scale, uint8 _grade) private view returns (bool) {\r\n        // YDS\r\n        if ( uint8(_scale) == 0 ){\r\n            if ( _grade < YDS.length) return true;\r\n        }\r\n        // French Numerical Grading\r\n        else if ( uint8(_scale) == 1 ){\r\n            if (_grade < FRENCH.length) return true;\r\n        }\r\n        // HUECO V Scale\r\n        else if ( uint8(_scale) == 2 ){\r\n            if (_grade < HUECO.length) return true;\r\n        }\r\n        // FontaineBleau\r\n        else if( uint8(_scale) == 3 ){\r\n            if (_grade < FB.length) return true;\r\n        }\r\n        return false;\r\n    }\r\n\r\n    modifier checkInput(GradingQuery memory q) {\r\n        require( checkDiscipline( q.discipline )\r\n        ,'Invalid choice for DISCIPLINE' );\r\n        require( checkScale( q.discipline, q.scale )\r\n        ,'Invalid choice for SCALE' );\r\n        require( checkGrade( q.scale, q.grade )\r\n        ,'Invalid choice for GRADE' );\r\n        _;\r\n    }\r\n\r\n    // Get user readable grade data (string) for a specified grade in a chosen scale corresponding to a chosen discipline\r\n    function getGrade(GradingQuery memory q) public view\r\n    checkInput( q )\r\n    returns (string memory r) {\r\n        // YDS\r\n        if ( uint8(q.scale) == 0 ){\r\n            return r = YDS[q.grade];\r\n        }\r\n        // French Numerical Grading\r\n        else if ( uint8(q.scale) == 1 ){\r\n            return r = FRENCH[q.grade];\r\n        }\r\n        // HUECO V Scale\r\n        else if ( uint8(q.scale) == 2 ){\r\n            return r = HUECO[q.grade];\r\n        }\r\n        // FontaineBleau\r\n        else if( uint8(q.scale) == 3 ){\r\n            return r = FB[q.grade];\r\n        }\r\n    }\r\n}",
  "sourcePath": "C:\\Users\\Tino\\Google Drive\\Docs\\UChile\\MEMORIA\\DEV\\dapp\\contracts\\ClimbingScalesData.sol",
  "compiler": {
    "name": "solc",
    "version": "0.8.15+commit.e14f2714.Emscripten.clang"
  },
  "schemaVersion": "3.4.7",
  "updatedAt": "2022-07-05T11:02:58.030Z",
  "networkType": "ethereum",
  "devdoc": {
    "kind": "dev",
    "methods": {},
    "version": 1
  },
  "userdoc": {
    "kind": "user",
    "methods": {},
    "version": 1
  }
}