{
  "contractName": "ClimbingScalesDataBytes",
  "abi": [
    {
      "inputs": [
        {
          "components": [
            {
              "internalType": "enum ClimbingScalesDataBytes.Discipline",
              "name": "discipline",
              "type": "uint8"
            },
            {
              "internalType": "enum ClimbingScalesDataBytes.Scale",
              "name": "scale",
              "type": "uint8"
            },
            {
              "internalType": "uint8",
              "name": "grade",
              "type": "uint8"
            }
          ],
          "internalType": "struct ClimbingScalesDataBytes.GradingQuery",
          "name": "q",
          "type": "tuple"
        }
      ],
      "name": "getGrade",
      "outputs": [
        {
          "internalType": "bytes5",
          "name": "r",
          "type": "bytes5"
        }
      ],
      "stateMutability": "view",
      "type": "function",
      "constant": true
    }
  ],
  "bytecode": "0x60806040526040518061044001604052807f352e3000000000000000000000000000000000000000000000000000000000007affffffffffffffffffffffffffffffffffffffffffffffffffffff19167affffffffffffffffffffffffffffffffffffffffffffffffffffff191681526020017f352e3100000000000000000000000000000000000000000000000000000000007affffffffffffffffffffffffffffffffffffffffffffffffffffff19167affffffffffffffffffffffffffffffffffffffffffffffffffffff191681526020017f352e3200000000000000000000000000000000000000000000000000000000007affffffffffffffffffffffffffffffffffffffffffffffffffffff19167affffffffffffffffffffffffffffffffffffffffffffffffffffff191681526020017f352e3300000000000000000000000000000000000000000000000000000000007affffffffffffffffffffffffffffffffffffffffffffffffffffff19167affffffffffffffffffffffffffffffffffffffffffffffffffffff191681526020017f352e3400000000000000000000000000000000000000000000000000000000007affffffffffffffffffffffffffffffffffffffffffffffffffffff19167affffffffffffffffffffffffffffffffffffffffffffffffffffff191681526020017f352e3500000000000000000000000000000000000000000000000000000000007affffffffffffffffffffffffffffffffffffffffffffffffffffff19167affffffffffffffffffffffffffffffffffffffffffffffffffffff191681526020017f352e3600000000000000000000000000000000000000000000000000000000007affffffffffffffffffffffffffffffffffffffffffffffffffffff19167affffffffffffffffffffffffffffffffffffffffffffffffffffff191681526020017f352e3700000000000000000000000000000000000000000000000000000000007affffffffffffffffffffffffffffffffffffffffffffffffffffff19167affffffffffffffffffffffffffffffffffffffffffffffffffffff191681526020017f352e3800000000000000000000000000000000000000000000000000000000007affffffffffffffffffffffffffffffffffffffffffffffffffffff19167affffffffffffffffffffffffffffffffffffffffffffffffffffff191681526020017f352e3900000000000000000000000000000000000000000000000000000000007affffffffffffffffffffffffffffffffffffffffffffffffffffff19167affffffffffffffffffffffffffffffffffffffffffffffffffffff191681526020017f352e3130610000000000000000000000000000000000000000000000000000007affffffffffffffffffffffffffffffffffffffffffffffffffffff19167affffffffffffffffffffffffffffffffffffffffffffffffffffff191681526020017f352e3130620000000000000000000000000000000000000000000000000000007affffffffffffffffffffffffffffffffffffffffffffffffffffff19167affffffffffffffffffffffffffffffffffffffffffffffffffffff191681526020017f352e3130630000000000000000000000000000000000000000000000000000007affffffffffffffffffffffffffffffffffffffffffffffffffffff19167affffffffffffffffffffffffffffffffffffffffffffffffffffff191681526020017f352e3130640000000000000000000000000000000000000000000000000000007affffffffffffffffffffffffffffffffffffffffffffffffffffff19167affffffffffffffffffffffffffffffffffffffffffffffffffffff191681526020017f352e3131610000000000000000000000000000000000000000000000000000007affffffffffffffffffffffffffffffffffffffffffffffffffffff19167affffffffffffffffffffffffffffffffffffffffffffffffffffff191681526020017f352e3131620000000000000000000000000000000000000000000000000000007affffffffffffffffffffffffffffffffffffffffffffffffffffff19167affffffffffffffffffffffffffffffffffffffffffffffffffffff191681526020017f352e3131630000000000000000000000000000000000000000000000000000007affffffffffffffffffffffffffffffffffffffffffffffffffffff19167affffffffffffffffffffffffffffffffffffffffffffffffffffff191681526020017f352e3131640000000000000000000000000000000000000000000000000000007affffffffffffffffffffffffffffffffffffffffffffffffffffff19167affffffffffffffffffffffffffffffffffffffffffffffffffffff191681526020017f352e3132610000000000000000000000000000000000000000000000000000007affffffffffffffffffffffffffffffffffffffffffffffffffffff19167affffffffffffffffffffffffffffffffffffffffffffffffffffff191681526020017f352e3132620000000000000000000000000000000000000000000000000000007affffffffffffffffffffffffffffffffffffffffffffffffffffff19167affffffffffffffffffffffffffffffffffffffffffffffffffffff191681526020017f352e3132630000000000000000000000000000000000000000000000000000007affffffffffffffffffffffffffffffffffffffffffffffffffffff19167affffffffffffffffffffffffffffffffffffffffffffffffffffff191681526020017f352e3132640000000000000000000000000000000000000000000000000000007affffffffffffffffffffffffffffffffffffffffffffffffffffff19167affffffffffffffffffffffffffffffffffffffffffffffffffffff191681526020017f352e3133610000000000000000000000000000000000000000000000000000007affffffffffffffffffffffffffffffffffffffffffffffffffffff19167affffffffffffffffffffffffffffffffffffffffffffffffffffff191681526020017f352e3133620000000000000000000000000000000000000000000000000000007affffffffffffffffffffffffffffffffffffffffffffffffffffff19167affffffffffffffffffffffffffffffffffffffffffffffffffffff191681526020017f352e3133630000000000000000000000000000000000000000000000000000007affffffffffffffffffffffffffffffffffffffffffffffffffffff19167affffffffffffffffffffffffffffffffffffffffffffffffffffff191681526020017f352e3133640000000000000000000000000000000000000000000000000000007affffffffffffffffffffffffffffffffffffffffffffffffffffff19167affffffffffffffffffffffffffffffffffffffffffffffffffffff191681526020017f352e3134610000000000000000000000000000000000000000000000000000007affffffffffffffffffffffffffffffffffffffffffffffffffffff19167affffffffffffffffffffffffffffffffffffffffffffffffffffff191681526020017f352e3134620000000000000000000000000000000000000000000000000000007affffffffffffffffffffffffffffffffffffffffffffffffffffff19167affffffffffffffffffffffffffffffffffffffffffffffffffffff191681526020017f352e3134630000000000000000000000000000000000000000000000000000007affffffffffffffffffffffffffffffffffffffffffffffffffffff19167affffffffffffffffffffffffffffffffffffffffffffffffffffff191681526020017f352e3134640000000000000000000000000000000000000000000000000000007affffffffffffffffffffffffffffffffffffffffffffffffffffff19167affffffffffffffffffffffffffffffffffffffffffffffffffffff191681526020017f352e3135610000000000000000000000000000000000000000000000000000007affffffffffffffffffffffffffffffffffffffffffffffffffffff19167affffffffffffffffffffffffffffffffffffffffffffffffffffff191681526020017f352e3135620000000000000000000000000000000000000000000000000000007affffffffffffffffffffffffffffffffffffffffffffffffffffff19167affffffffffffffffffffffffffffffffffffffffffffffffffffff191681526020017f352e3135630000000000000000000000000000000000000000000000000000007affffffffffffffffffffffffffffffffffffffffffffffffffffff19167affffffffffffffffffffffffffffffffffffffffffffffffffffff191681526020017f352e3135640000000000000000000000000000000000000000000000000000007affffffffffffffffffffffffffffffffffffffffffffffffffffff19167affffffffffffffffffffffffffffffffffffffffffffffffffffff1916815250600090602262000d2492919062002644565b506040518061028001604052807f31000000000000000000000000000000000000000000000000000000000000007cffffffffffffffffffffffffffffffffffffffffffffffffffffffffff19167cffffffffffffffffffffffffffffffffffffffffffffffffffffffffff191681526020017f32000000000000000000000000000000000000000000000000000000000000007cffffffffffffffffffffffffffffffffffffffffffffffffffffffffff19167cffffffffffffffffffffffffffffffffffffffffffffffffffffffffff191681526020017f33000000000000000000000000000000000000000000000000000000000000007cffffffffffffffffffffffffffffffffffffffffffffffffffffffffff19167cffffffffffffffffffffffffffffffffffffffffffffffffffffffffff191681526020017f332b0000000000000000000000000000000000000000000000000000000000007cffffffffffffffffffffffffffffffffffffffffffffffffffffffffff19167cffffffffffffffffffffffffffffffffffffffffffffffffffffffffff191681526020017f34610000000000000000000000000000000000000000000000000000000000007cffffffffffffffffffffffffffffffffffffffffffffffffffffffffff19167cffffffffffffffffffffffffffffffffffffffffffffffffffffffffff191681526020017f34620000000000000000000000000000000000000000000000000000000000007cffffffffffffffffffffffffffffffffffffffffffffffffffffffffff19167cffffffffffffffffffffffffffffffffffffffffffffffffffffffffff191681526020017f34630000000000000000000000000000000000000000000000000000000000007cffffffffffffffffffffffffffffffffffffffffffffffffffffffffff19167cffffffffffffffffffffffffffffffffffffffffffffffffffffffffff191681526020017f35610000000000000000000000000000000000000000000000000000000000007cffffffffffffffffffffffffffffffffffffffffffffffffffffffffff19167cffffffffffffffffffffffffffffffffffffffffffffffffffffffffff191681526020017f35620000000000000000000000000000000000000000000000000000000000007cffffffffffffffffffffffffffffffffffffffffffffffffffffffffff19167cffffffffffffffffffffffffffffffffffffffffffffffffffffffffff191681526020017f35630000000000000000000000000000000000000000000000000000000000007cffffffffffffffffffffffffffffffffffffffffffffffffffffffffff19167cffffffffffffffffffffffffffffffffffffffffffffffffffffffffff191681526020017f36610000000000000000000000000000000000000000000000000000000000007cffffffffffffffffffffffffffffffffffffffffffffffffffffffffff19167cffffffffffffffffffffffffffffffffffffffffffffffffffffffffff191681526020017f36612b00000000000000000000000000000000000000000000000000000000007cffffffffffffffffffffffffffffffffffffffffffffffffffffffffff19167cffffffffffffffffffffffffffffffffffffffffffffffffffffffffff191681526020017f36620000000000000000000000000000000000000000000000000000000000007cffffffffffffffffffffffffffffffffffffffffffffffffffffffffff19167cffffffffffffffffffffffffffffffffffffffffffffffffffffffffff191681526020017f36622b00000000000000000000000000000000000000000000000000000000007cffffffffffffffffffffffffffffffffffffffffffffffffffffffffff19167cffffffffffffffffffffffffffffffffffffffffffffffffffffffffff191681526020017f36630000000000000000000000000000000000000000000000000000000000007cffffffffffffffffffffffffffffffffffffffffffffffffffffffffff19167cffffffffffffffffffffffffffffffffffffffffffffffffffffffffff191681526020017f36632b00000000000000000000000000000000000000000000000000000000007cffffffffffffffffffffffffffffffffffffffffffffffffffffffffff19167cffffffffffffffffffffffffffffffffffffffffffffffffffffffffff191681526020017f37610000000000000000000000000000000000000000000000000000000000007cffffffffffffffffffffffffffffffffffffffffffffffffffffffffff19167cffffffffffffffffffffffffffffffffffffffffffffffffffffffffff191681526020017f37612b00000000000000000000000000000000000000000000000000000000007cffffffffffffffffffffffffffffffffffffffffffffffffffffffffff19167cffffffffffffffffffffffffffffffffffffffffffffffffffffffffff191681526020017f37620000000000000000000000000000000000000000000000000000000000007cffffffffffffffffffffffffffffffffffffffffffffffffffffffffff19167cffffffffffffffffffffffffffffffffffffffffffffffffffffffffff191681526020017f37622b00000000000000000000000000000000000000000000000000000000007cffffffffffffffffffffffffffffffffffffffffffffffffffffffffff19167cffffffffffffffffffffffffffffffffffffffffffffffffffffffffff1916815250600690601462001539929190620026ed565b506040518061026001604052807f56420000000000000000000000000000000000000000000000000000000000007cffffffffffffffffffffffffffffffffffffffffffffffffffffffffff19167cffffffffffffffffffffffffffffffffffffffffffffffffffffffffff191681526020017f56300000000000000000000000000000000000000000000000000000000000007cffffffffffffffffffffffffffffffffffffffffffffffffffffffffff19167cffffffffffffffffffffffffffffffffffffffffffffffffffffffffff191681526020017f56310000000000000000000000000000000000000000000000000000000000007cffffffffffffffffffffffffffffffffffffffffffffffffffffffffff19167cffffffffffffffffffffffffffffffffffffffffffffffffffffffffff191681526020017f56320000000000000000000000000000000000000000000000000000000000007cffffffffffffffffffffffffffffffffffffffffffffffffffffffffff19167cffffffffffffffffffffffffffffffffffffffffffffffffffffffffff191681526020017f56330000000000000000000000000000000000000000000000000000000000007cffffffffffffffffffffffffffffffffffffffffffffffffffffffffff19167cffffffffffffffffffffffffffffffffffffffffffffffffffffffffff191681526020017f56340000000000000000000000000000000000000000000000000000000000007cffffffffffffffffffffffffffffffffffffffffffffffffffffffffff19167cffffffffffffffffffffffffffffffffffffffffffffffffffffffffff191681526020017f56350000000000000000000000000000000000000000000000000000000000007cffffffffffffffffffffffffffffffffffffffffffffffffffffffffff19167cffffffffffffffffffffffffffffffffffffffffffffffffffffffffff191681526020017f56360000000000000000000000000000000000000000000000000000000000007cffffffffffffffffffffffffffffffffffffffffffffffffffffffffff19167cffffffffffffffffffffffffffffffffffffffffffffffffffffffffff191681526020017f56370000000000000000000000000000000000000000000000000000000000007cffffffffffffffffffffffffffffffffffffffffffffffffffffffffff19167cffffffffffffffffffffffffffffffffffffffffffffffffffffffffff191681526020017f56380000000000000000000000000000000000000000000000000000000000007cffffffffffffffffffffffffffffffffffffffffffffffffffffffffff19167cffffffffffffffffffffffffffffffffffffffffffffffffffffffffff191681526020017f56390000000000000000000000000000000000000000000000000000000000007cffffffffffffffffffffffffffffffffffffffffffffffffffffffffff19167cffffffffffffffffffffffffffffffffffffffffffffffffffffffffff191681526020017f56313000000000000000000000000000000000000000000000000000000000007cffffffffffffffffffffffffffffffffffffffffffffffffffffffffff19167cffffffffffffffffffffffffffffffffffffffffffffffffffffffffff191681526020017f56313100000000000000000000000000000000000000000000000000000000007cffffffffffffffffffffffffffffffffffffffffffffffffffffffffff19167cffffffffffffffffffffffffffffffffffffffffffffffffffffffffff191681526020017f56313200000000000000000000000000000000000000000000000000000000007cffffffffffffffffffffffffffffffffffffffffffffffffffffffffff19167cffffffffffffffffffffffffffffffffffffffffffffffffffffffffff191681526020017f56313300000000000000000000000000000000000000000000000000000000007cffffffffffffffffffffffffffffffffffffffffffffffffffffffffff19167cffffffffffffffffffffffffffffffffffffffffffffffffffffffffff191681526020017f56313400000000000000000000000000000000000000000000000000000000007cffffffffffffffffffffffffffffffffffffffffffffffffffffffffff19167cffffffffffffffffffffffffffffffffffffffffffffffffffffffffff191681526020017f56313500000000000000000000000000000000000000000000000000000000007cffffffffffffffffffffffffffffffffffffffffffffffffffffffffff19167cffffffffffffffffffffffffffffffffffffffffffffffffffffffffff191681526020017f56313600000000000000000000000000000000000000000000000000000000007cffffffffffffffffffffffffffffffffffffffffffffffffffffffffff19167cffffffffffffffffffffffffffffffffffffffffffffffffffffffffff191681526020017f56313700000000000000000000000000000000000000000000000000000000007cffffffffffffffffffffffffffffffffffffffffffffffffffffffffff19167cffffffffffffffffffffffffffffffffffffffffffffffffffffffffff1916815250600890601362001ce892919062002792565b50604051806102e001604052807f33000000000000000000000000000000000000000000000000000000000000007cffffffffffffffffffffffffffffffffffffffffffffffffffffffffff19167cffffffffffffffffffffffffffffffffffffffffffffffffffffffffff191681526020017f34000000000000000000000000000000000000000000000000000000000000007cffffffffffffffffffffffffffffffffffffffffffffffffffffffffff19167cffffffffffffffffffffffffffffffffffffffffffffffffffffffffff191681526020017f35000000000000000000000000000000000000000000000000000000000000007cffffffffffffffffffffffffffffffffffffffffffffffffffffffffff19167cffffffffffffffffffffffffffffffffffffffffffffffffffffffffff191681526020017f352b0000000000000000000000000000000000000000000000000000000000007cffffffffffffffffffffffffffffffffffffffffffffffffffffffffff19167cffffffffffffffffffffffffffffffffffffffffffffffffffffffffff191681526020017f36610000000000000000000000000000000000000000000000000000000000007cffffffffffffffffffffffffffffffffffffffffffffffffffffffffff19167cffffffffffffffffffffffffffffffffffffffffffffffffffffffffff191681526020017f36612b00000000000000000000000000000000000000000000000000000000007cffffffffffffffffffffffffffffffffffffffffffffffffffffffffff19167cffffffffffffffffffffffffffffffffffffffffffffffffffffffffff191681526020017f36620000000000000000000000000000000000000000000000000000000000007cffffffffffffffffffffffffffffffffffffffffffffffffffffffffff19167cffffffffffffffffffffffffffffffffffffffffffffffffffffffffff191681526020017f36622b00000000000000000000000000000000000000000000000000000000007cffffffffffffffffffffffffffffffffffffffffffffffffffffffffff19167cffffffffffffffffffffffffffffffffffffffffffffffffffffffffff191681526020017f36630000000000000000000000000000000000000000000000000000000000007cffffffffffffffffffffffffffffffffffffffffffffffffffffffffff19167cffffffffffffffffffffffffffffffffffffffffffffffffffffffffff191681526020017f36632b00000000000000000000000000000000000000000000000000000000007cffffffffffffffffffffffffffffffffffffffffffffffffffffffffff19167cffffffffffffffffffffffffffffffffffffffffffffffffffffffffff191681526020017f37610000000000000000000000000000000000000000000000000000000000007cffffffffffffffffffffffffffffffffffffffffffffffffffffffffff19167cffffffffffffffffffffffffffffffffffffffffffffffffffffffffff191681526020017f37612b00000000000000000000000000000000000000000000000000000000007cffffffffffffffffffffffffffffffffffffffffffffffffffffffffff19167cffffffffffffffffffffffffffffffffffffffffffffffffffffffffff191681526020017f37620000000000000000000000000000000000000000000000000000000000007cffffffffffffffffffffffffffffffffffffffffffffffffffffffffff19167cffffffffffffffffffffffffffffffffffffffffffffffffffffffffff191681526020017f37622b00000000000000000000000000000000000000000000000000000000007cffffffffffffffffffffffffffffffffffffffffffffffffffffffffff19167cffffffffffffffffffffffffffffffffffffffffffffffffffffffffff191681526020017f37630000000000000000000000000000000000000000000000000000000000007cffffffffffffffffffffffffffffffffffffffffffffffffffffffffff19167cffffffffffffffffffffffffffffffffffffffffffffffffffffffffff191681526020017f37632b00000000000000000000000000000000000000000000000000000000007cffffffffffffffffffffffffffffffffffffffffffffffffffffffffff19167cffffffffffffffffffffffffffffffffffffffffffffffffffffffffff191681526020017f38610000000000000000000000000000000000000000000000000000000000007cffffffffffffffffffffffffffffffffffffffffffffffffffffffffff19167cffffffffffffffffffffffffffffffffffffffffffffffffffffffffff191681526020017f38612b00000000000000000000000000000000000000000000000000000000007cffffffffffffffffffffffffffffffffffffffffffffffffffffffffff19167cffffffffffffffffffffffffffffffffffffffffffffffffffffffffff191681526020017f38620000000000000000000000000000000000000000000000000000000000007cffffffffffffffffffffffffffffffffffffffffffffffffffffffffff19167cffffffffffffffffffffffffffffffffffffffffffffffffffffffffff191681526020017f38622b00000000000000000000000000000000000000000000000000000000007cffffffffffffffffffffffffffffffffffffffffffffffffffffffffff19167cffffffffffffffffffffffffffffffffffffffffffffffffffffffffff191681526020017f38630000000000000000000000000000000000000000000000000000000000007cffffffffffffffffffffffffffffffffffffffffffffffffffffffffff19167cffffffffffffffffffffffffffffffffffffffffffffffffffffffffff191681526020017f38632b00000000000000000000000000000000000000000000000000000000007cffffffffffffffffffffffffffffffffffffffffffffffffffffffffff19167cffffffffffffffffffffffffffffffffffffffffffffffffffffffffff191681526020017f39610000000000000000000000000000000000000000000000000000000000007cffffffffffffffffffffffffffffffffffffffffffffffffffffffffff19167cffffffffffffffffffffffffffffffffffffffffffffffffffffffffff1916815250600a9060176200262f92919062002837565b503480156200263d57600080fd5b50620028fb565b826022600501600690048101928215620026da5791602002820160005b83821115620026a557835183826101000a81548164ffffffffff021916908360d81c0217905550926020019260050160208160040104928301926001030262002661565b8015620026d85782816101000a81549064ffffffffff0219169055600501602081600401049283019260010302620026a5565b505b509050620026e99190620028dc565b5090565b826014600901600a900481019282156200277f5791602002820160005b838211156200274c57835183826101000a81548162ffffff021916908360e81c021790555092602001926003016020816002010492830192600103026200270a565b80156200277d5782816101000a81549062ffffff02191690556003016020816002010492830192600103026200274c565b505b5090506200278e9190620028dc565b5090565b826013600901600a90048101928215620028245791602002820160005b83821115620027f157835183826101000a81548162ffffff021916908360e81c02179055509260200192600301602081600201049283019260010302620027af565b8015620028225782816101000a81549062ffffff0219169055600301602081600201049283019260010302620027f1565b505b509050620028339190620028dc565b5090565b826017600901600a90048101928215620028c95791602002820160005b838211156200289657835183826101000a81548162ffffff021916908360e81c0217905550926020019260030160208160020104928301926001030262002854565b8015620028c75782816101000a81549062ffffff021916905560030160208160020104928301926001030262002896565b505b509050620028d89190620028dc565b5090565b5b80821115620028f7576000816000905550600101620028dd565b5090565b61090e806200290b6000396000f3fe608060405234801561001057600080fd5b506004361061002b5760003560e01c8063875b0fde14610030575b600080fd5b61004a600480360381019061004591906106a2565b610060565b604051610057919061070a565b60405180910390f35b6000816100708160000151610328565b6100af576040517f08c379a00000000000000000000000000000000000000000000000000000000081526004016100a690610782565b60405180910390fd5b6100c181600001518260200151610359565b610100576040517f08c379a00000000000000000000000000000000000000000000000000000000081526004016100f7906107ee565b60405180910390fd5b61011281602001518260400151610434565b610151576040517f08c379a00000000000000000000000000000000000000000000000000000000081526004016101489061085a565b60405180910390fd5b60008360200151600381111561016a5761016961087a565b5b60ff16036101ad576000836040015160ff166022811061018d5761018c6108a9565b5b600691828204019190066005029054906101000a900460d81b9150610322565b6001836020015160038111156101c6576101c561087a565b5b60ff1603610229576006836040015160ff16601481106101e9576101e86108a9565b5b600a91828204019190066003029054906101000a900460e81b7cffffffffffffffffffffffffffffffffffffffffffffffffffffffffff19169150610322565b6002836020015160038111156102425761024161087a565b5b60ff16036102a5576008836040015160ff1660138110610265576102646108a9565b5b600a91828204019190066003029054906101000a900460e81b7cffffffffffffffffffffffffffffffffffffffffffffffffffffffffff19169150610322565b6003836020015160038111156102be576102bd61087a565b5b60ff160361032157600a836040015160ff16601781106102e1576102e06108a9565b5b600a91828204019190066003029054906101000a900460e81b7cffffffffffffffffffffffffffffffffffffffffffffffffffffffffff19169150610322565b5b50919050565b600060018081111561033d5761033c61087a565b5b8260018111156103505761034f61087a565b5b11159050919050565b60008083600181111561036f5761036e61087a565b5b60ff16036103c357600082600381111561038c5761038b61087a565b5b60ff1614806103b0575060018260038111156103ab576103aa61087a565b5b60ff16145b156103be576001905061042e565b610429565b60018360018111156103d8576103d761087a565b5b60ff16036104285760028260038111156103f5576103f461087a565b5b60ff161480610419575060038260038111156104145761041361087a565b5b60ff16145b15610427576001905061042e565b5b5b600090505b92915050565b60008083600381111561044a5761044961087a565b5b60ff160361046c5760228260ff1610156104675760019050610515565b610510565b60018360038111156104815761048061087a565b5b60ff16036104a35760148260ff16101561049e5760019050610515565b61050f565b60028360038111156104b8576104b761087a565b5b60ff16036104da5760138260ff1610156104d55760019050610515565b61050e565b60038360038111156104ef576104ee61087a565b5b60ff160361050d5760178260ff16101561050c5760019050610515565b5b5b5b5b600090505b92915050565b6000604051905090565b600080fd5b600080fd5b6000601f19601f8301169050919050565b7f4e487b7100000000000000000000000000000000000000000000000000000000600052604160045260246000fd5b6105788261052f565b810181811067ffffffffffffffff8211171561059757610596610540565b5b80604052505050565b60006105aa61051b565b90506105b6828261056f565b919050565b600281106105c857600080fd5b50565b6000813590506105da816105bb565b92915050565b600481106105ed57600080fd5b50565b6000813590506105ff816105e0565b92915050565b600060ff82169050919050565b61061b81610605565b811461062657600080fd5b50565b60008135905061063881610612565b92915050565b6000606082840312156106545761065361052a565b5b61065e60606105a0565b9050600061066e848285016105cb565b6000830152506020610682848285016105f0565b602083015250604061069684828501610629565b60408301525092915050565b6000606082840312156106b8576106b7610525565b5b60006106c68482850161063e565b91505092915050565b60007fffffffffff00000000000000000000000000000000000000000000000000000082169050919050565b610704816106cf565b82525050565b600060208201905061071f60008301846106fb565b92915050565b600082825260208201905092915050565b7f496e76616c69642063686f69636520666f72204449534349504c494e45000000600082015250565b600061076c601d83610725565b915061077782610736565b602082019050919050565b6000602082019050818103600083015261079b8161075f565b9050919050565b7f496e76616c69642063686f69636520666f72205343414c450000000000000000600082015250565b60006107d8601883610725565b91506107e3826107a2565b602082019050919050565b60006020820190508181036000830152610807816107cb565b9050919050565b7f496e76616c69642063686f69636520666f722047524144450000000000000000600082015250565b6000610844601883610725565b915061084f8261080e565b602082019050919050565b6000602082019050818103600083015261087381610837565b9050919050565b7f4e487b7100000000000000000000000000000000000000000000000000000000600052602160045260246000fd5b7f4e487b7100000000000000000000000000000000000000000000000000000000600052603260045260246000fdfea2646970667358221220f779477bc352790bb370721c43eee7d3df012b846dc34ccfec425696fe5581c864736f6c634300080f0033",
  "immutableReferences": {},
  "source": "// SPDX-License-Identifier: MIT\r\npragma solidity ^0.8.8;\r\npragma experimental ABIEncoderV2;\r\n/*  This Contract contains free climbing and bouldering grading system scales and is intended\r\n    as a public interface exposing readable data to user facing components\r\n\r\n    Deployment costs could be distributed with an off-chain interface which\r\n    offsets/distributes costs to users interacting with the interface by\r\n    creating a new (uint => string) pairing in a mapping when a grade that isn't on\r\n    said mapping is used.\r\n*/\r\ncontract ClimbingScalesDataBytes {\r\n    // Define limited user choices\r\n    enum Discipline { FREE, BOULDER }\r\n    enum Scale { YOSEMITE, FRENCH, HUECO, FONTAINEBLEAU }\r\n\r\n    struct GradingQuery {\r\n        Discipline discipline;\r\n        Scale scale;\r\n        uint8 grade;\r\n    }\r\n\r\n    // SCALES DATA\r\n    // Yosemite Decimal System\r\n    bytes5[34] YDS = [\r\n        bytes5(\"5.0\"),\r\n        bytes5(\"5.1\"),\r\n        bytes5(\"5.2\"),\r\n        bytes5(\"5.3\"),\r\n        bytes5(\"5.4\"),\r\n        bytes5(\"5.5\"),\r\n        bytes5(\"5.6\"),\r\n        bytes5(\"5.7\"),\r\n        bytes5(\"5.8\"),\r\n        bytes5(\"5.9\"),\r\n        bytes5(\"5.10a\"),\r\n        bytes5(\"5.10b\"),\r\n        bytes5(\"5.10c\"),\r\n        bytes5(\"5.10d\"),\r\n        bytes5(\"5.11a\"),\r\n        bytes5(\"5.11b\"),\r\n        bytes5(\"5.11c\"),\r\n        bytes5(\"5.11d\"),\r\n        bytes5(\"5.12a\"),\r\n        bytes5(\"5.12b\"),\r\n        bytes5(\"5.12c\"),\r\n        bytes5(\"5.12d\"),\r\n        bytes5(\"5.13a\"),\r\n        bytes5(\"5.13b\"),\r\n        bytes5(\"5.13c\"),\r\n        bytes5(\"5.13d\"),\r\n        bytes5(\"5.14a\"),\r\n        bytes5(\"5.14b\"),\r\n        bytes5(\"5.14c\"),\r\n        bytes5(\"5.14d\"),\r\n        bytes5(\"5.15a\"),\r\n        bytes5(\"5.15b\"),\r\n        bytes5(\"5.15c\"),\r\n        bytes5(\"5.15d\")\r\n    ];\r\n\r\n    // French Numerical Grading\r\n    bytes3[20] FRENCH = [\r\n        bytes3(\"1\"),\r\n        bytes3(\"2\"),\r\n        bytes3(\"3\"),\r\n        bytes3(\"3+\"),\r\n        bytes3(\"4a\"),\r\n        bytes3(\"4b\"),\r\n        bytes3(\"4c\"),\r\n        bytes3(\"5a\"),\r\n        bytes3(\"5b\"),\r\n        bytes3(\"5c\"),\r\n        bytes3(\"6a\"),\r\n        bytes3(\"6a+\"),\r\n        bytes3(\"6b\"),\r\n        bytes3(\"6b+\"),\r\n        bytes3(\"6c\"),\r\n        bytes3(\"6c+\"),\r\n        bytes3(\"7a\"),\r\n        bytes3(\"7a+\"),\r\n        bytes3(\"7b\"),\r\n        bytes3(\"7b+\")\r\n    ];\r\n\r\n    // Hueco System / V-Scale\r\n    bytes3[19] HUECO = [\r\n        bytes3(\"VB\"),\r\n        bytes3(\"V0\"),\r\n        bytes3(\"V1\"),\r\n        bytes3(\"V2\"),\r\n        bytes3(\"V3\"),\r\n        bytes3(\"V4\"),\r\n        bytes3(\"V5\"),\r\n        bytes3(\"V6\"),\r\n        bytes3(\"V7\"),\r\n        bytes3(\"V8\"),\r\n        bytes3(\"V9\"),\r\n        bytes3(\"V10\"),\r\n        bytes3(\"V11\"),\r\n        bytes3(\"V12\"),\r\n        bytes3(\"V13\"),\r\n        bytes3(\"V14\"),\r\n        bytes3(\"V15\"),\r\n        bytes3(\"V16\"),\r\n        bytes3(\"V17\")\r\n    ];\r\n\r\n    // FontaineBleau / French Bouldering Scale\r\n    bytes3[23] FB = [\r\n        bytes3(\"3\"),\r\n        bytes3(\"4\"),\r\n        bytes3(\"5\"),\r\n        bytes3(\"5+\"),\r\n        bytes3(\"6a\"),\r\n        bytes3(\"6a+\"),\r\n        bytes3(\"6b\"),\r\n        bytes3(\"6b+\"),\r\n        bytes3(\"6c\"),\r\n        bytes3(\"6c+\"),\r\n        bytes3(\"7a\"),\r\n        bytes3(\"7a+\"),\r\n        bytes3(\"7b\"),\r\n        bytes3(\"7b+\"),\r\n        bytes3(\"7c\"),\r\n        bytes3(\"7c+\"),\r\n        bytes3(\"8a\"),\r\n        bytes3(\"8a+\"),\r\n        bytes3(\"8b\"),\r\n        bytes3(\"8b+\"),\r\n        bytes3(\"8c\"),\r\n        bytes3(\"8c+\"),\r\n        bytes3(\"9a\")\r\n    ];\r\n\r\n    // Input validation functions\r\n    // Returns true if the chosen discipline is within the available range of choices\r\n    function checkDiscipline(Discipline _discipline) private pure returns (bool) {\r\n        return ( _discipline <= type(Discipline).max);\r\n    }\r\n\r\n    // Returns true if the given scale corresponds to the chosen discipline\r\n    function checkScale(Discipline _discipline, Scale _scale) private pure returns (bool) {\r\n        // Free Climbing Scales\r\n        if ( uint8(_discipline) == 0 ) {\r\n            // YDS Scale & French Scale\r\n            if ( uint8(_scale) == 0 || uint8(_scale) == 1 ) return true;\r\n        }\r\n        // Boulder Scales\r\n        else if ( uint8(_discipline) == 1) {\r\n            // V Scale & FontaineBleau Scale\r\n            if ( uint8(_scale) == 2 || uint8(_scale) == 3 ) return true;\r\n        }\r\n        return false;\r\n    }\r\n\r\n    // Returns true if the chosen grade is within the range of the chosen scale\r\n    function checkGrade(Scale _scale, uint8 _grade) private view returns (bool) {\r\n        // YDS\r\n        if ( uint8(_scale) == 0 ){\r\n            if ( _grade < YDS.length) return true;\r\n        }\r\n        // French Numerical Grading\r\n        else if ( uint8(_scale) == 1 ){\r\n            if (_grade < FRENCH.length) return true;\r\n        }\r\n        // HUECO V Scale\r\n        else if ( uint8(_scale) == 2 ){\r\n            if (_grade < HUECO.length) return true;\r\n        }\r\n        // FontaineBleau\r\n        else if( uint8(_scale) == 3 ){\r\n            if (_grade < FB.length) return true;\r\n        }\r\n        return false;\r\n    }\r\n\r\n    modifier checkInput(GradingQuery memory q) {\r\n        require( checkDiscipline( q.discipline )\r\n        ,'Invalid choice for DISCIPLINE' );\r\n        require( checkScale( q.discipline, q.scale )\r\n        ,'Invalid choice for SCALE' );\r\n        require( checkGrade( q.scale, q.grade )\r\n        ,'Invalid choice for GRADE' );\r\n        _;\r\n    }\r\n\r\n    // Get user readable grade data (string) for a specified grade in a chosen scale corresponding to a chosen discipline\r\n    function getGrade(GradingQuery memory q) external view\r\n    checkInput( q )\r\n    returns (bytes5 r) {\r\n        // YDS\r\n        if ( uint8(q.scale) == 0 ){\r\n            return r = YDS[q.grade];\r\n        }\r\n        // French Numerical Grading\r\n        else if ( uint8(q.scale) == 1 ){\r\n            return r = bytes5(FRENCH[q.grade]);\r\n        }\r\n        // HUECO V Scale\r\n        else if ( uint8(q.scale) == 2 ){\r\n            return r = bytes5(HUECO[q.grade]);\r\n        }\r\n        // FontaineBleau\r\n        else if( uint8(q.scale) == 3 ){\r\n            return r = bytes5(FB[q.grade]);\r\n        }\r\n    }\r\n}",
  "sourcePath": "C:\\Users\\Tino\\Google Drive\\Docs\\UChile\\MEMORIA\\DEV\\dapp\\contracts\\ClimbingScalesDataBytes.sol",
  "compiler": {
    "name": "solc",
    "version": "0.8.15+commit.e14f2714.Emscripten.clang"
  },
  "schemaVersion": "3.4.7",
  "updatedAt": "2022-07-05T11:03:07.511Z",
  "networkType": "ethereum",
  "devdoc": {
    "kind": "dev",
    "methods": {},
    "version": 1
  },
  "userdoc": {
    "kind": "user",
    "methods": {},
    "version": 1
  }
}