{
  "contractName": "RouteFactory",
  "abi": [
    {
      "inputs": [
        {
          "internalType": "address",
          "name": "_scales",
          "type": "address"
        }
      ],
      "stateMutability": "nonpayable",
      "type": "constructor"
    },
    {
      "inputs": [],
      "name": "scalesData",
      "outputs": [
        {
          "internalType": "contract ClimbingScalesDataBytes",
          "name": "",
          "type": "address"
        }
      ],
      "stateMutability": "view",
      "type": "function",
      "constant": true
    },
    {
      "inputs": [],
      "name": "getScalesAddress",
      "outputs": [
        {
          "internalType": "address",
          "name": "",
          "type": "address"
        }
      ],
      "stateMutability": "view",
      "type": "function",
      "constant": true
    },
    {
      "inputs": [
        {
          "internalType": "bytes",
          "name": "_name",
          "type": "bytes"
        },
        {
          "internalType": "uint8",
          "name": "_discipline",
          "type": "uint8"
        },
        {
          "internalType": "uint8",
          "name": "_scale",
          "type": "uint8"
        },
        {
          "internalType": "uint8",
          "name": "_grade",
          "type": "uint8"
        },
        {
          "internalType": "int24",
          "name": "_latitude",
          "type": "int24"
        },
        {
          "internalType": "int32",
          "name": "_longitude",
          "type": "int32"
        }
      ],
      "name": "newRoute",
      "outputs": [
        {
          "internalType": "address",
          "name": "",
          "type": "address"
        }
      ],
      "stateMutability": "nonpayable",
      "type": "function"
    },
    {
      "inputs": [
        {
          "internalType": "bytes",
          "name": "_name",
          "type": "bytes"
        },
        {
          "internalType": "uint8",
          "name": "_discipline",
          "type": "uint8"
        },
        {
          "internalType": "uint8",
          "name": "_scale",
          "type": "uint8"
        },
        {
          "internalType": "uint8",
          "name": "_grade",
          "type": "uint8"
        },
        {
          "internalType": "int24",
          "name": "_latitude",
          "type": "int24"
        },
        {
          "internalType": "int32",
          "name": "_longitude",
          "type": "int32"
        },
        {
          "internalType": "address",
          "name": "_catalog",
          "type": "address"
        }
      ],
      "name": "newCatalogEntry",
      "outputs": [],
      "stateMutability": "nonpayable",
      "type": "function"
    }
  ],
  "bytecode": "0x608060405234801561001057600080fd5b506040516111da3803806111da8339818101604052810190610032919061011c565b336000806101000a81548173ffffffffffffffffffffffffffffffffffffffff021916908373ffffffffffffffffffffffffffffffffffffffff16021790555080600160006101000a81548173ffffffffffffffffffffffffffffffffffffffff021916908373ffffffffffffffffffffffffffffffffffffffff16021790555050610149565b600080fd5b600073ffffffffffffffffffffffffffffffffffffffff82169050919050565b60006100e9826100be565b9050919050565b6100f9816100de565b811461010457600080fd5b50565b600081519050610116816100f0565b92915050565b600060208284031215610132576101316100b9565b5b600061014084828501610107565b91505092915050565b611082806101586000396000f3fe60806040523480156200001157600080fd5b5060043610620000525760003560e01c8063177690e014620000575780631acfd91114620000795780638e79e73914620000af578063a4f3335914620000d1575b600080fd5b62000061620000f1565b604051620000709190620002b0565b60405180910390f35b620000976004803603810190620000919190620004fd565b6200011b565b604051620000a69190620002b0565b60405180910390f35b620000b962000171565b604051620000c8919062000623565b60405180910390f35b620000ef6004803603810190620000e9919062000671565b62000197565b005b6000600160009054906101000a900473ffffffffffffffffffffffffffffffffffffffff16905090565b60008087878787878760405162000132906200025d565b620001439695949392919062000809565b604051809103906000f08015801562000160573d6000803e3d6000fd5b509050809150509695505050505050565b600160009054906101000a900473ffffffffffffffffffffffffffffffffffffffff1681565b6000878787878787604051620001ad906200025d565b620001be9695949392919062000809565b604051809103906000f080158015620001db573d6000803e3d6000fd5b50905060008290508073ffffffffffffffffffffffffffffffffffffffff166325e0563e836040518263ffffffff1660e01b81526004016200021e9190620002b0565b600060405180830381600087803b1580156200023957600080fd5b505af11580156200024e573d6000803e3d6000fd5b50505050505050505050505050565b6107cf806200087e83390190565b600073ffffffffffffffffffffffffffffffffffffffff82169050919050565b600062000298826200026b565b9050919050565b620002aa816200028b565b82525050565b6000602082019050620002c760008301846200029f565b92915050565b6000604051905090565b600080fd5b600080fd5b600080fd5b600080fd5b6000601f19601f8301169050919050565b7f4e487b7100000000000000000000000000000000000000000000000000000000600052604160045260246000fd5b6200033682620002eb565b810181811067ffffffffffffffff82111715620003585762000357620002fc565b5b80604052505050565b60006200036d620002cd565b90506200037b82826200032b565b919050565b600067ffffffffffffffff8211156200039e576200039d620002fc565b5b620003a982620002eb565b9050602081019050919050565b82818337600083830152505050565b6000620003dc620003d68462000380565b62000361565b905082815260208101848484011115620003fb57620003fa620002e6565b5b62000408848285620003b6565b509392505050565b600082601f830112620004285762000427620002e1565b5b81356200043a848260208601620003c5565b91505092915050565b600060ff82169050919050565b6200045b8162000443565b81146200046757600080fd5b50565b6000813590506200047b8162000450565b92915050565b60008160020b9050919050565b620004998162000481565b8114620004a557600080fd5b50565b600081359050620004b9816200048e565b92915050565b60008160030b9050919050565b620004d781620004bf565b8114620004e357600080fd5b50565b600081359050620004f781620004cc565b92915050565b60008060008060008060c087890312156200051d576200051c620002d7565b5b600087013567ffffffffffffffff8111156200053e576200053d620002dc565b5b6200054c89828a0162000410565b96505060206200055f89828a016200046a565b95505060406200057289828a016200046a565b94505060606200058589828a016200046a565b93505060806200059889828a01620004a8565b92505060a0620005ab89828a01620004e6565b9150509295509295509295565b6000819050919050565b6000620005e3620005dd620005d7846200026b565b620005b8565b6200026b565b9050919050565b6000620005f782620005c2565b9050919050565b60006200060b82620005ea565b9050919050565b6200061d81620005fe565b82525050565b60006020820190506200063a600083018462000612565b92915050565b6200064b816200028b565b81146200065757600080fd5b50565b6000813590506200066b8162000640565b92915050565b600080600080600080600060e0888a031215620006935762000692620002d7565b5b600088013567ffffffffffffffff811115620006b457620006b3620002dc565b5b620006c28a828b0162000410565b9750506020620006d58a828b016200046a565b9650506040620006e88a828b016200046a565b9550506060620006fb8a828b016200046a565b94505060806200070e8a828b01620004a8565b93505060a0620007218a828b01620004e6565b92505060c0620007348a828b016200065a565b91505092959891949750929550565b600081519050919050565b600082825260208201905092915050565b60005b838110156200077f57808201518184015260208101905062000762565b838111156200078f576000848401525b50505050565b6000620007a28262000743565b620007ae81856200074e565b9350620007c08185602086016200075f565b620007cb81620002eb565b840191505092915050565b620007e18162000443565b82525050565b620007f28162000481565b82525050565b6200080381620004bf565b82525050565b600060c082019050818103600083015262000825818962000795565b9050620008366020830188620007d6565b620008456040830187620007d6565b620008546060830186620007d6565b620008636080830185620007e7565b6200087260a0830184620007f8565b97965050505050505056fe608060405234801561001057600080fd5b506040516107cf3803806107cf83398181016040528101906100329190610339565b602086511115610077576040517f08c379a000000000000000000000000000000000000000000000000000000000815260040161006e90610465565b60405180910390fd5b85610081906104cc565b600081905550600060078660ff16901b905060068560ff16901b81179050838117905080600160006101000a81548160ff021916908360ff160217905550826001806101000a81548162ffffff021916908360020b62ffffff16021790555081600160046101000a81548163ffffffff021916908360030b63ffffffff16021790555050505050505050610533565b6000604051905090565b600080fd5b600080fd5b600080fd5b600080fd5b6000601f19601f8301169050919050565b7f4e487b7100000000000000000000000000000000000000000000000000000000600052604160045260246000fd5b6101778261012e565b810181811067ffffffffffffffff821117156101965761019561013f565b5b80604052505050565b60006101a9610110565b90506101b5828261016e565b919050565b600067ffffffffffffffff8211156101d5576101d461013f565b5b6101de8261012e565b9050602081019050919050565b60005b838110156102095780820151818401526020810190506101ee565b83811115610218576000848401525b50505050565b600061023161022c846101ba565b61019f565b90508281526020810184848401111561024d5761024c610129565b5b6102588482856101eb565b509392505050565b600082601f83011261027557610274610124565b5b815161028584826020860161021e565b91505092915050565b600060ff82169050919050565b6102a48161028e565b81146102af57600080fd5b50565b6000815190506102c18161029b565b92915050565b60008160020b9050919050565b6102dd816102c7565b81146102e857600080fd5b50565b6000815190506102fa816102d4565b92915050565b60008160030b9050919050565b61031681610300565b811461032157600080fd5b50565b6000815190506103338161030d565b92915050565b60008060008060008060c087890312156103565761035561011a565b5b600087015167ffffffffffffffff8111156103745761037361011f565b5b61038089828a01610260565b965050602061039189828a016102b2565b95505060406103a289828a016102b2565b94505060606103b389828a016102b2565b93505060806103c489828a016102eb565b92505060a06103d589828a01610324565b9150509295509295509295565b600082825260208201905092915050565b7f526f757465206e616d6520746f6f206c6f6e6721204d6178206c656e6774683a60008201527f2033320000000000000000000000000000000000000000000000000000000000602082015250565b600061044f6023836103e2565b915061045a826103f3565b604082019050919050565b6000602082019050818103600083015261047e81610442565b9050919050565b600081519050919050565b6000819050602082019050919050565b6000819050919050565b60006104b682516104a0565b80915050919050565b600082821b905092915050565b60006104d782610485565b826104e184610490565b90506104ec816104aa565b9250602082101561052c576105277fffffffffffffffffffffffffffffffffffffffffffffffffffffffffffffffff836020036008026104bf565b831692505b5050919050565b61028d806105426000396000f3fe608060405234801561001057600080fd5b50600436106100575760003560e01c806317d7de7c1461005c57806346998f401461007a578063747655a514610098578063b5cddab8146100b6578063ce2ce3fc146100d4575b600080fd5b6100646100f3565b60405161007191906101a4565b60405180910390f35b6100826100fc565b60405161008f91906101db565b60405180910390f35b6100a0610120565b6040516100ad91906101db565b60405180910390f35b6100be61013e565b6040516100cb91906101db565b60405180910390f35b6100dc610162565b6040516100ea92919061022e565b60405180910390f35b60008054905090565b6000600280600160009054906101000a900460ff1660ff16901b60ff16901c905090565b60006007600160009054906101000a900460ff1660ff16901c905090565b6000600760018060009054906101000a900460ff1660ff16901b60ff16901c905090565b60008060018054906101000a900460020b600160049054906101000a900460030b915091509091565b6000819050919050565b61019e8161018b565b82525050565b60006020820190506101b96000830184610195565b92915050565b600060ff82169050919050565b6101d5816101bf565b82525050565b60006020820190506101f060008301846101cc565b92915050565b60008160020b9050919050565b61020c816101f6565b82525050565b60008160030b9050919050565b61022881610212565b82525050565b60006040820190506102436000830185610203565b610250602083018461021f565b939250505056fea2646970667358221220e75df65e874945e96426b8b22ad312827a1d5eafc266fb473e80a7308e14958664736f6c634300080f0033a264697066735822122012660b67a8ada4c3c669fbd5798f2ff9813a11a16700a676a5509aeaf06fa25364736f6c634300080f0033",
  "immutableReferences": {},
  "source": "pragma solidity ^0.8.8;\r\nimport \"./ClimbingScalesDataBytes.sol\";\r\nimport \"./RouteCatalog.sol\";\r\nimport \"./SimpleRouteData.sol\";\r\n\r\ncontract RouteFactory {\r\n    address owner;\r\n    ClimbingScalesDataBytes public scalesData;\r\n\r\n    constructor(address _scales){\r\n        owner = msg.sender;\r\n        scalesData = ClimbingScalesDataBytes(_scales);\r\n    }\r\n\r\n    function getScalesAddress() external view returns (address){\r\n        return address(scalesData);\r\n    }\r\n\r\n    function newRoute(bytes memory _name, uint8 _discipline, uint8 _scale, uint8 _grade, int24 _latitude, int32 _longitude) external returns (address) {\r\n        SimpleRouteData myRoute = new SimpleRouteData(_name,_discipline, _scale, _grade, _latitude, _longitude);\r\n        return address(myRoute);\r\n    }\r\n\r\n    function newCatalogEntry(bytes memory _name, uint8 _discipline, uint8 _scale, uint8 _grade, int24 _latitude, int32 _longitude, address _catalog) external {\r\n        SimpleRouteData entry = new SimpleRouteData(_name,_discipline, _scale, _grade, _latitude, _longitude);\r\n        RouteCatalog targetCatalog = RouteCatalog(_catalog);\r\n        targetCatalog.newEntry(address(entry));\r\n    }\r\n\r\n\r\n}\r\n",
  "sourcePath": "C:\\Users\\Tino\\Google Drive\\Docs\\UChile\\MEMORIA\\DEV\\dapp\\contracts\\RouteFactory.sol",
  "compiler": {
    "name": "solc",
    "version": "0.8.15+commit.e14f2714.Emscripten.clang"
  },
  "schemaVersion": "3.4.7",
  "updatedAt": "2022-07-05T11:03:07.542Z",
  "networkType": "ethereum",
  "devdoc": {
    "kind": "dev",
    "methods": {},
    "version": 1
  },
  "userdoc": {
    "kind": "user",
    "methods": {},
    "version": 1
  }
}