{
  "contractName": "RouteData",
  "abi": [
    {
      "inputs": [
        {
          "internalType": "bytes",
          "name": "_name",
          "type": "bytes"
        },
        {
          "internalType": "uint8",
          "name": "_discipline",
          "type": "uint8"
        },
        {
          "internalType": "uint8",
          "name": "_scale",
          "type": "uint8"
        },
        {
          "internalType": "uint8",
          "name": "_grade",
          "type": "uint8"
        },
        {
          "internalType": "bytes",
          "name": "_latitude",
          "type": "bytes"
        },
        {
          "internalType": "bytes",
          "name": "_longitude",
          "type": "bytes"
        }
      ],
      "stateMutability": "nonpayable",
      "type": "constructor"
    },
    {
      "inputs": [
        {
          "internalType": "string",
          "name": "_newd",
          "type": "string"
        }
      ],
      "name": "setDescription",
      "outputs": [],
      "stateMutability": "nonpayable",
      "type": "function"
    },
    {
      "inputs": [],
      "name": "getInfo",
      "outputs": [
        {
          "components": [
            {
              "internalType": "bytes32",
              "name": "name",
              "type": "bytes32"
            },
            {
              "components": [
                {
                  "internalType": "enum RouteData.Discipline",
                  "name": "discipline",
                  "type": "uint8"
                },
                {
                  "internalType": "enum RouteData.Scale",
                  "name": "scale",
                  "type": "uint8"
                },
                {
                  "internalType": "uint8",
                  "name": "grade",
                  "type": "uint8"
                }
              ],
              "internalType": "struct RouteData.Grade",
              "name": "grade",
              "type": "tuple"
            },
            {
              "components": [
                {
                  "internalType": "bytes11",
                  "name": "latitude",
                  "type": "bytes11"
                },
                {
                  "internalType": "bytes11",
                  "name": "longitude",
                  "type": "bytes11"
                }
              ],
              "internalType": "struct RouteData.Location",
              "name": "location",
              "type": "tuple"
            }
          ],
          "internalType": "struct RouteData.Info",
          "name": "",
          "type": "tuple"
        }
      ],
      "stateMutability": "view",
      "type": "function",
      "constant": true
    },
    {
      "inputs": [],
      "name": "getDescription",
      "outputs": [
        {
          "internalType": "string",
          "name": "",
          "type": "string"
        }
      ],
      "stateMutability": "view",
      "type": "function",
      "constant": true
    },
    {
      "inputs": [],
      "name": "getAll",
      "outputs": [
        {
          "components": [
            {
              "components": [
                {
                  "internalType": "bytes32",
                  "name": "name",
                  "type": "bytes32"
                },
                {
                  "components": [
                    {
                      "internalType": "enum RouteData.Discipline",
                      "name": "discipline",
                      "type": "uint8"
                    },
                    {
                      "internalType": "enum RouteData.Scale",
                      "name": "scale",
                      "type": "uint8"
                    },
                    {
                      "internalType": "uint8",
                      "name": "grade",
                      "type": "uint8"
                    }
                  ],
                  "internalType": "struct RouteData.Grade",
                  "name": "grade",
                  "type": "tuple"
                },
                {
                  "components": [
                    {
                      "internalType": "bytes11",
                      "name": "latitude",
                      "type": "bytes11"
                    },
                    {
                      "internalType": "bytes11",
                      "name": "longitude",
                      "type": "bytes11"
                    }
                  ],
                  "internalType": "struct RouteData.Location",
                  "name": "location",
                  "type": "tuple"
                }
              ],
              "internalType": "struct RouteData.Info",
              "name": "info",
              "type": "tuple"
            },
            {
              "internalType": "string",
              "name": "description",
              "type": "string"
            }
          ],
          "internalType": "struct RouteData.Data",
          "name": "",
          "type": "tuple"
        }
      ],
      "stateMutability": "view",
      "type": "function",
      "constant": true
    }
  ],
  "bytecode": "0x60806040523480156200001157600080fd5b5060405162001b1538038062001b158339818101604052810190620000379190620004a6565b6020865111156200007f576040517f08c379a0000000000000000000000000000000000000000000000000000000008152600401620000769062000626565b60405180910390fd5b33600460006101000a81548173ffffffffffffffffffffffffffffffffffffffff021916908373ffffffffffffffffffffffffffffffffffffffff16021790555085620000cc9062000691565b600080016000018190555060405180606001604052808660ff166001811115620000fb57620000fa62000701565b5b600181111562000110576200010f62000701565b5b81526020018560ff1660038111156200012e576200012d62000701565b5b600381111562000143576200014262000701565b5b81526020018460ff168152506000800160010160008201518160000160006101000a81548160ff0219169083600181111562000184576200018362000701565b5b021790555060208201518160000160016101000a81548160ff02191690836003811115620001b757620001b662000701565b5b021790555060408201518160000160026101000a81548160ff021916908360ff160217905550905050604051806040016040528083620001f79062000773565b74ffffffffffffffffffffffffffffffffffffffffff1916815260200182620002209062000773565b74ffffffffffffffffffffffffffffffffffffffffff19168152506000800160020160008201518160000160006101000a8154816affffffffffffffffffffff021916908360a81c0217905550602082015181600001600b6101000a8154816affffffffffffffffffffff021916908360a81c02179055509050506040518060200160405280600081525060006003019081620002be919062000a21565b5050505050505062000b08565b6000604051905090565b600080fd5b600080fd5b600080fd5b600080fd5b6000601f19601f8301169050919050565b7f4e487b7100000000000000000000000000000000000000000000000000000000600052604160045260246000fd5b6200033482620002e9565b810181811067ffffffffffffffff82111715620003565762000355620002fa565b5b80604052505050565b60006200036b620002cb565b905062000379828262000329565b919050565b600067ffffffffffffffff8211156200039c576200039b620002fa565b5b620003a782620002e9565b9050602081019050919050565b60005b83811015620003d4578082015181840152602081019050620003b7565b83811115620003e4576000848401525b50505050565b600062000401620003fb846200037e565b6200035f565b90508281526020810184848401111562000420576200041f620002e4565b5b6200042d848285620003b4565b509392505050565b600082601f8301126200044d576200044c620002df565b5b81516200045f848260208601620003ea565b91505092915050565b600060ff82169050919050565b620004808162000468565b81146200048c57600080fd5b50565b600081519050620004a08162000475565b92915050565b60008060008060008060c08789031215620004c657620004c5620002d5565b5b600087015167ffffffffffffffff811115620004e757620004e6620002da565b5b620004f589828a0162000435565b96505060206200050889828a016200048f565b95505060406200051b89828a016200048f565b94505060606200052e89828a016200048f565b935050608087015167ffffffffffffffff811115620005525762000551620002da565b5b6200056089828a0162000435565b92505060a087015167ffffffffffffffff811115620005845762000583620002da565b5b6200059289828a0162000435565b9150509295509295509295565b600082825260208201905092915050565b7f526f757465206e616d6520746f6f206c6f6e6721204d6178206c656e6774683a60008201527f2033320000000000000000000000000000000000000000000000000000000000602082015250565b60006200060e6023836200059f565b91506200061b82620005b0565b604082019050919050565b600060208201905081810360008301526200064181620005ff565b9050919050565b600081519050919050565b6000819050602082019050919050565b6000819050919050565b60006200067b825162000663565b80915050919050565b600082821b905092915050565b60006200069e8262000648565b82620006aa8462000653565b9050620006b7816200066d565b92506020821015620006fa57620006f57fffffffffffffffffffffffffffffffffffffffffffffffffffffffffffffffff8360200360080262000684565b831692505b5050919050565b7f4e487b7100000000000000000000000000000000000000000000000000000000600052602160045260246000fd5b60007fffffffffffffffffffffff00000000000000000000000000000000000000000082169050919050565b60006200076a825162000730565b80915050919050565b6000620007808262000648565b826200078c8462000653565b905062000799816200075c565b9250600b821015620007dc57620007d77fffffffffffffffffffffff00000000000000000000000000000000000000000083600b0360080262000684565b831692505b5050919050565b600081519050919050565b7f4e487b7100000000000000000000000000000000000000000000000000000000600052602260045260246000fd5b600060028204905060018216806200083657607f821691505b6020821081036200084c576200084b620007ee565b5b50919050565b60008190508160005260206000209050919050565b60006020601f8301049050919050565b600060088302620008a97fffffffffffffffffffffffffffffffffffffffffffffffffffffffffffffffff8262000684565b620008b5868362000684565b95508019841693508086168417925050509392505050565b6000819050919050565b6000819050919050565b600062000902620008fc620008f684620008cd565b620008d7565b620008cd565b9050919050565b6000819050919050565b6200091e83620008e1565b620009366200092d8262000909565b84845462000877565b825550505050565b600090565b6200094d6200093e565b6200095a81848462000913565b505050565b5b8181101562000982576200097660008262000943565b60018101905062000960565b5050565b601f821115620009d1576200099b8162000852565b620009a68462000867565b81016020851015620009b6578190505b620009ce620009c58562000867565b8301826200095f565b50505b505050565b600082821c905092915050565b6000620009f660001984600802620009d6565b1980831691505092915050565b600062000a118383620009e3565b9150826002028217905092915050565b62000a2c82620007e3565b67ffffffffffffffff81111562000a485762000a47620002fa565b5b62000a5482546200081d565b62000a6182828562000986565b600060209050601f83116001811462000a99576000841562000a84578287015190505b62000a90858262000a03565b86555062000b00565b601f19841662000aa98662000852565b60005b8281101562000ad35784890151825560018201915060208501945060208101905062000aac565b8683101562000af3578489015162000aef601f891682620009e3565b8355505b6001600288020188555050505b505050505050565b610ffd8062000b186000396000f3fe608060405234801561001057600080fd5b506004361061004c5760003560e01c80631a0925411461005157806353ed51431461006f5780635a9b0b891461008d57806390c3f38f146100ab575b600080fd5b6100596100c7565b6040516100669190610745565b60405180910390f35b61007761015c565b60405161008491906109d0565b60405180910390f35b61009561036f565b6040516100a29190610a34565b60405180910390f35b6100c560048036038101906100c09190610b98565b6104de565b005b6060600060030180546100d990610c10565b80601f016020809104026020016040519081016040528092919081815260200182805461010590610c10565b80156101525780601f1061012757610100808354040283529160200191610152565b820191906000526020600020905b81548152906001019060200180831161013557829003601f168201915b5050505050905090565b6101646105ca565b60006040518060400160405290816000820160405180606001604052908160008201548152602001600182016040518060600160405290816000820160009054906101000a900460ff1660018111156101c0576101bf610780565b5b60018111156101d2576101d1610780565b5b81526020016000820160019054906101000a900460ff1660038111156101fb576101fa610780565b5b600381111561020d5761020c610780565b5b81526020016000820160029054906101000a900460ff1660ff1660ff16815250508152602001600282016040518060400160405290816000820160009054906101000a900460a81b74ffffffffffffffffffffffffffffffffffffffffff191674ffffffffffffffffffffffffffffffffffffffffff1916815260200160008201600b9054906101000a900460a81b74ffffffffffffffffffffffffffffffffffffffffff191674ffffffffffffffffffffffffffffffffffffffffff1916815250508152505081526020016003820180546102e890610c10565b80601f016020809104026020016040519081016040528092919081815260200182805461031490610c10565b80156103615780601f1061033657610100808354040283529160200191610361565b820191906000526020600020905b81548152906001019060200180831161034457829003601f168201915b505050505081525050905090565b6103776105ea565b6000800160405180606001604052908160008201548152602001600182016040518060600160405290816000820160009054906101000a900460ff1660018111156103c5576103c4610780565b5b60018111156103d7576103d6610780565b5b81526020016000820160019054906101000a900460ff166003811115610400576103ff610780565b5b600381111561041257610411610780565b5b81526020016000820160029054906101000a900460ff1660ff1660ff16815250508152602001600282016040518060400160405290816000820160009054906101000a900460a81b74ffffffffffffffffffffffffffffffffffffffffff191674ffffffffffffffffffffffffffffffffffffffffff1916815260200160008201600b9054906101000a900460a81b74ffffffffffffffffffffffffffffffffffffffffff191674ffffffffffffffffffffffffffffffffffffffffff19168152505081525050905090565b600460009054906101000a900473ffffffffffffffffffffffffffffffffffffffff1673ffffffffffffffffffffffffffffffffffffffff163373ffffffffffffffffffffffffffffffffffffffff161461056e576040517f08c379a000000000000000000000000000000000000000000000000000000000815260040161056590610cb3565b60405180910390fd5b610100815111156105b4576040517f08c379a00000000000000000000000000000000000000000000000000000000081526004016105ab90610d1f565b60405180910390fd5b80600060030190816105c69190610ef5565b5050565b60405180604001604052806105dd6105ea565b8152602001606081525090565b60405180606001604052806000801916815260200161060761061a565b8152602001610614610662565b81525090565b60405180606001604052806000600181111561063957610638610780565b5b81526020016000600381111561065257610651610780565b5b8152602001600060ff1681525090565b6040518060400160405280600074ffffffffffffffffffffffffffffffffffffffffff19168152602001600074ffffffffffffffffffffffffffffffffffffffffff191681525090565b600081519050919050565b600082825260208201905092915050565b60005b838110156106e65780820151818401526020810190506106cb565b838111156106f5576000848401525b50505050565b6000601f19601f8301169050919050565b6000610717826106ac565b61072181856106b7565b93506107318185602086016106c8565b61073a816106fb565b840191505092915050565b6000602082019050818103600083015261075f818461070c565b905092915050565b6000819050919050565b61077a81610767565b82525050565b7f4e487b7100000000000000000000000000000000000000000000000000000000600052602160045260246000fd5b600281106107c0576107bf610780565b5b50565b60008190506107d1826107af565b919050565b60006107e1826107c3565b9050919050565b6107f1816107d6565b82525050565b6004811061080857610807610780565b5b50565b6000819050610819826107f7565b919050565b60006108298261080b565b9050919050565b6108398161081e565b82525050565b600060ff82169050919050565b6108558161083f565b82525050565b60608201600082015161087160008501826107e8565b5060208201516108846020850182610830565b506040820151610897604085018261084c565b50505050565b60007fffffffffffffffffffffff00000000000000000000000000000000000000000082169050919050565b6108d28161089d565b82525050565b6040820160008201516108ee60008501826108c9565b50602082015161090160208501826108c9565b50505050565b60c08201600082015161091d6000850182610771565b506020820151610930602085018261085b565b50604082015161094360808501826108d8565b50505050565b600082825260208201905092915050565b6000610965826106ac565b61096f8185610949565b935061097f8185602086016106c8565b610988816106fb565b840191505092915050565b600060e0830160008301516109ab6000860182610907565b50602083015184820360c08601526109c3828261095a565b9150508091505092915050565b600060208201905081810360008301526109ea8184610993565b905092915050565b60c082016000820151610a086000850182610771565b506020820151610a1b602085018261085b565b506040820151610a2e60808501826108d8565b50505050565b600060c082019050610a4960008301846109f2565b92915050565b6000604051905090565b600080fd5b600080fd5b600080fd5b600080fd5b7f4e487b7100000000000000000000000000000000000000000000000000000000600052604160045260246000fd5b610aa5826106fb565b810181811067ffffffffffffffff82111715610ac457610ac3610a6d565b5b80604052505050565b6000610ad7610a4f565b9050610ae38282610a9c565b919050565b600067ffffffffffffffff821115610b0357610b02610a6d565b5b610b0c826106fb565b9050602081019050919050565b82818337600083830152505050565b6000610b3b610b3684610ae8565b610acd565b905082815260208101848484011115610b5757610b56610a68565b5b610b62848285610b19565b509392505050565b600082601f830112610b7f57610b7e610a63565b5b8135610b8f848260208601610b28565b91505092915050565b600060208284031215610bae57610bad610a59565b5b600082013567ffffffffffffffff811115610bcc57610bcb610a5e565b5b610bd884828501610b6a565b91505092915050565b7f4e487b7100000000000000000000000000000000000000000000000000000000600052602260045260246000fd5b60006002820490506001821680610c2857607f821691505b602082108103610c3b57610c3a610be1565b5b50919050565b7f596f7520646f6e27742068617665207065726d697373696f6e7320746f20657860008201527f656375746520746869732066756e6374696f6e00000000000000000000000000602082015250565b6000610c9d6033836106b7565b9150610ca882610c41565b604082019050919050565b60006020820190508181036000830152610ccc81610c90565b9050919050565b7f537472696e6720746f6f206c6f6e6721204d6178206c656e6774683a20323536600082015250565b6000610d096020836106b7565b9150610d1482610cd3565b602082019050919050565b60006020820190508181036000830152610d3881610cfc565b9050919050565b60008190508160005260206000209050919050565b60006020601f8301049050919050565b600082821b905092915050565b600060088302610da17fffffffffffffffffffffffffffffffffffffffffffffffffffffffffffffffff82610d64565b610dab8683610d64565b95508019841693508086168417925050509392505050565b6000819050919050565b6000819050919050565b6000610df2610ded610de884610dc3565b610dcd565b610dc3565b9050919050565b6000819050919050565b610e0c83610dd7565b610e20610e1882610df9565b848454610d71565b825550505050565b600090565b610e35610e28565b610e40818484610e03565b505050565b5b81811015610e6457610e59600082610e2d565b600181019050610e46565b5050565b601f821115610ea957610e7a81610d3f565b610e8384610d54565b81016020851015610e92578190505b610ea6610e9e85610d54565b830182610e45565b50505b505050565b600082821c905092915050565b6000610ecc60001984600802610eae565b1980831691505092915050565b6000610ee58383610ebb565b9150826002028217905092915050565b610efe826106ac565b67ffffffffffffffff811115610f1757610f16610a6d565b5b610f218254610c10565b610f2c828285610e68565b600060209050601f831160018114610f5f5760008415610f4d578287015190505b610f578582610ed9565b865550610fbf565b601f198416610f6d86610d3f565b60005b82811015610f9557848901518255600182019150602085019450602081019050610f70565b86831015610fb25784890151610fae601f891682610ebb565b8355505b6001600288020188555050505b50505050505056fea26469706673582212200a9d8fd231971c99712b734e69fde889ef37f5ad17feab6718d34bb5965bf18064736f6c634300080f0033",
  "immutableReferences": {},
  "source": "// SPDX-License-Identifier: MIT\npragma solidity ^0.8.8;\npragma experimental ABIEncoderV2;\n\ncontract RouteData {\n  // Define limited user choices\n  enum Discipline { FREE, BOULDER }\n  enum Scale { YDS, FRENCH, HUECO, FB }\n\n  // GPS coordinates struct\n  struct Location {\n    bytes11 latitude;\n    bytes11 longitude;\n  }\n\n  // Discipline and difficulty scale data struct\n  struct Grade {\n    Discipline discipline;\n    Scale scale;\n    uint8 grade;\n  }\n\n  // Route Info core - the basic info all routes registered into the blockchain should have\n  struct Info {\n    bytes32 name;        // Route name\n    Grade grade;        // Proposed discipline:scale:grade\n    Location location;  // GPS location\n  }\n\n  // Complete Route data\n  struct Data {\n    Info info;\n    string description;\n  }\n\n  Data data;\n  address owner;\n\n  constructor(bytes memory _name, uint8 _discipline, uint8 _scale, uint8 _grade, bytes memory _latitude, bytes memory _longitude) {\n    require(_name.length <= 32,\"Route name too long! Max length: 32\");\n    owner = msg.sender;\n    data.info.name = bytes32(_name);\n    data.info.grade = Grade(Discipline(_discipline),Scale(_scale),_grade);\n    data.info.location = Location(bytes11(_latitude),bytes11(_longitude));\n    data.description = \"\";\n  }\n\n  modifier isOwner() {\n    require( msg.sender == owner\n    ,\"You don't have permissions to execute this function\");\n    _;\n  }\n\n  // Set/Replace Route Description. Max 256 characters.\n  function setDescription(string memory _newd) public isOwner() {\n    require(bytes(_newd).length <= 256 ,\"String too long! Max length: 256\");\n    data.description = _newd;\n  }\n\n  function getInfo() public view returns (Info memory) {\n    return data.info;\n  }\n\n  function getDescription() public view returns (string memory){\n    return data.description;\n  }\n\n  function getAll() public view returns (Data memory) {\n    return data;\n  }\n}\n",
  "sourcePath": "C:\\Users\\Tino\\Google Drive\\Docs\\UChile\\MEMORIA\\DEV\\dapp\\contracts\\RouteData.sol",
  "compiler": {
    "name": "solc",
    "version": "0.8.15+commit.e14f2714.Emscripten.clang"
  },
  "schemaVersion": "3.4.7",
  "updatedAt": "2022-07-05T11:03:02.579Z",
  "networkType": "ethereum",
  "devdoc": {
    "kind": "dev",
    "methods": {},
    "version": 1
  },
  "userdoc": {
    "kind": "user",
    "methods": {},
    "version": 1
  }
}