{
  "contractName": "RouteCatalog",
  "abi": [
    {
      "inputs": [
        {
          "internalType": "address",
          "name": "_scales",
          "type": "address"
        }
      ],
      "stateMutability": "nonpayable",
      "type": "constructor"
    },
    {
      "inputs": [],
      "name": "scalesData",
      "outputs": [
        {
          "internalType": "contract ClimbingScalesDataBytes",
          "name": "",
          "type": "address"
        }
      ],
      "stateMutability": "view",
      "type": "function",
      "constant": true
    },
    {
      "inputs": [
        {
          "internalType": "address",
          "name": "_user",
          "type": "address"
        }
      ],
      "name": "assignAdmin",
      "outputs": [],
      "stateMutability": "nonpayable",
      "type": "function"
    },
    {
      "inputs": [
        {
          "internalType": "address",
          "name": "_user",
          "type": "address"
        }
      ],
      "name": "removeAdmin",
      "outputs": [],
      "stateMutability": "nonpayable",
      "type": "function"
    },
    {
      "inputs": [
        {
          "internalType": "address",
          "name": "_factory",
          "type": "address"
        },
        {
          "internalType": "bool",
          "name": "_restrict",
          "type": "bool"
        }
      ],
      "name": "assignFactory",
      "outputs": [],
      "stateMutability": "nonpayable",
      "type": "function"
    },
    {
      "inputs": [],
      "name": "toggleRestrictFactory",
      "outputs": [],
      "stateMutability": "nonpayable",
      "type": "function"
    },
    {
      "inputs": [
        {
          "internalType": "address",
          "name": "_user",
          "type": "address"
        }
      ],
      "name": "toggleUserAccess",
      "outputs": [],
      "stateMutability": "nonpayable",
      "type": "function"
    },
    {
      "inputs": [
        {
          "internalType": "address",
          "name": "_routeData",
          "type": "address"
        }
      ],
      "name": "newEntry",
      "outputs": [],
      "stateMutability": "nonpayable",
      "type": "function"
    },
    {
      "inputs": [
        {
          "internalType": "bytes",
          "name": "_name",
          "type": "bytes"
        },
        {
          "internalType": "uint8",
          "name": "_discipline",
          "type": "uint8"
        },
        {
          "internalType": "uint8",
          "name": "_scale",
          "type": "uint8"
        },
        {
          "internalType": "uint8",
          "name": "_grade",
          "type": "uint8"
        },
        {
          "internalType": "int24",
          "name": "_latitude",
          "type": "int24"
        },
        {
          "internalType": "int32",
          "name": "_longitude",
          "type": "int32"
        }
      ],
      "name": "newFactoryEntry",
      "outputs": [],
      "stateMutability": "nonpayable",
      "type": "function"
    },
    {
      "inputs": [
        {
          "internalType": "address",
          "name": "_routeData",
          "type": "address"
        }
      ],
      "name": "delEntry",
      "outputs": [],
      "stateMutability": "nonpayable",
      "type": "function"
    },
    {
      "inputs": [
        {
          "internalType": "bytes",
          "name": "_name",
          "type": "bytes"
        }
      ],
      "name": "getRoutesByName",
      "outputs": [
        {
          "internalType": "address[]",
          "name": "",
          "type": "address[]"
        }
      ],
      "stateMutability": "view",
      "type": "function",
      "constant": true
    }
  ],
  "bytecode": "0x60806040523480156200001157600080fd5b5060405162002d4338038062002d43833981810160405281019062000037919062000129565b336000806101000a81548173ffffffffffffffffffffffffffffffffffffffff021916908373ffffffffffffffffffffffffffffffffffffffff16021790555080600360006101000a81548173ffffffffffffffffffffffffffffffffffffffff021916908373ffffffffffffffffffffffffffffffffffffffff160217905550506200015b565b600080fd5b600073ffffffffffffffffffffffffffffffffffffffff82169050919050565b6000620000f182620000c4565b9050919050565b6200010381620000e4565b81146200010f57600080fd5b50565b6000815190506200012381620000f8565b92915050565b600060208284031215620001425762000141620000bf565b5b6000620001528482850162000112565b91505092915050565b612bd8806200016b6000396000f3fe608060405234801561001057600080fd5b506004361061009e5760003560e01c806352c533861161006657806352c533861461011d5780635d9d2ce1146101395780636f5f7006146101695780638e79e73914610185578063aaaed36a146101a35761009e565b80631785f53c146100a357806325e0563e146100bf5780633d56735d146100db5780633da7d2ed146100e55780634e13bed714610101575b600080fd5b6100bd60048036038101906100b89190611d6a565b6101bf565b005b6100d960048036038101906100d49190611d6a565b610334565b005b6100e3610997565b005b6100ff60048036038101906100fa9190611d6a565b610aab565b005b61011b60048036038101906101169190611f88565b610c20565b005b61013760048036038101906101329190612069565b610e10565b005b610153600480360381019061014e91906120a9565b611147565b60405161016091906121b0565b60405180910390f35b610183600480360381019061017e9190611d6a565b611253565b005b61018d6113dc565b60405161019a9190612231565b60405180910390f35b6101bd60048036038101906101b89190611d6a565b611402565b005b60008054906101000a900473ffffffffffffffffffffffffffffffffffffffff1673ffffffffffffffffffffffffffffffffffffffff163373ffffffffffffffffffffffffffffffffffffffff161461024d576040517f08c379a0000000000000000000000000000000000000000000000000000000008152600401610244906122cf565b60405180910390fd5b600160008273ffffffffffffffffffffffffffffffffffffffff1673ffffffffffffffffffffffffffffffffffffffff16815260200190815260200160002060009054906101000a900460ff166102d9576040517f08c379a00000000000000000000000000000000000000000000000000000000081526004016102d090612361565b60405180910390fd5b6000600160008373ffffffffffffffffffffffffffffffffffffffff1673ffffffffffffffffffffffffffffffffffffffff16815260200190815260200160002060006101000a81548160ff02191690831515021790555050565b60008054906101000a900473ffffffffffffffffffffffffffffffffffffffff1673ffffffffffffffffffffffffffffffffffffffff163373ffffffffffffffffffffffffffffffffffffffff1614806103d75750600160003373ffffffffffffffffffffffffffffffffffffffff1673ffffffffffffffffffffffffffffffffffffffff16815260200190815260200160002060009054906101000a900460ff165b806104415750600260003373ffffffffffffffffffffffffffffffffffffffff1673ffffffffffffffffffffffffffffffffffffffff16815260200190815260200160002060009054906101000a900460ff161515600860009054906101000a900460ff16151514155b610480576040517f08c379a0000000000000000000000000000000000000000000000000000000008152600401610477906122cf565b60405180910390fd5b60008054906101000a900473ffffffffffffffffffffffffffffffffffffffff1673ffffffffffffffffffffffffffffffffffffffff163373ffffffffffffffffffffffffffffffffffffffff1614806105235750600160003373ffffffffffffffffffffffffffffffffffffffff1673ffffffffffffffffffffffffffffffffffffffff16815260200190815260200160002060009054906101000a900460ff165b806105995750600460000160149054906101000a900460ff16801561059857503373ffffffffffffffffffffffffffffffffffffffff16600460000160009054906101000a900473ffffffffffffffffffffffffffffffffffffffff1673ffffffffffffffffffffffffffffffffffffffff16145b5b806105b45750600460000160149054906101000a900460ff16155b6105f3576040517f08c379a00000000000000000000000000000000000000000000000000000000081526004016105ea906123f3565b60405180910390fd5b6000600660008373ffffffffffffffffffffffffffffffffffffffff1673ffffffffffffffffffffffffffffffffffffffff1681526020019081526020016000205414610675576040517f08c379a000000000000000000000000000000000000000000000000000000000815260040161066c9061245f565b60405180910390fd5b600081905060008173ffffffffffffffffffffffffffffffffffffffff1663ce2ce3fc6040518163ffffffff1660e01b81526004016040805180830381865afa1580156106c6573d6000803e3d6000fd5b505050506040513d601f19601f820116820180604052508101906106ea91906124a9565b50905060008160020b03610733576040517f08c379a000000000000000000000000000000000000000000000000000000000815260040161072a90612535565b60405180910390fd5b60008273ffffffffffffffffffffffffffffffffffffffff166317d7de7c6040518163ffffffff1660e01b8152600401602060405180830381865afa158015610780573d6000803e3d6000fd5b505050506040513d601f19601f820116820180604052508101906107a4919061258b565b905060076000828152602001908152602001600020849080600181540180825580915050600190039060005260206000200160009091909190916101000a81548173ffffffffffffffffffffffffffffffffffffffff021916908373ffffffffffffffffffffffffffffffffffffffff160217905550600560405180606001604052808573ffffffffffffffffffffffffffffffffffffffff1681526020013273ffffffffffffffffffffffffffffffffffffffff1681526020016001600760008681526020019081526020016000208054905061088291906125f1565b815250908060018154018082558091505060019003906000526020600020906003020160009091909190915060008201518160000160006101000a81548173ffffffffffffffffffffffffffffffffffffffff021916908373ffffffffffffffffffffffffffffffffffffffff16021790555060208201518160010160006101000a81548173ffffffffffffffffffffffffffffffffffffffff021916908373ffffffffffffffffffffffffffffffffffffffff160217905550604082015181600201555050600580549050600660008673ffffffffffffffffffffffffffffffffffffffff1673ffffffffffffffffffffffffffffffffffffffff1681526020019081526020016000208190555050505050565b60008054906101000a900473ffffffffffffffffffffffffffffffffffffffff1673ffffffffffffffffffffffffffffffffffffffff163373ffffffffffffffffffffffffffffffffffffffff161480610a3a5750600160003373ffffffffffffffffffffffffffffffffffffffff1673ffffffffffffffffffffffffffffffffffffffff16815260200190815260200160002060009054906101000a900460ff165b610a79576040517f08c379a0000000000000000000000000000000000000000000000000000000008152600401610a70906122cf565b60405180910390fd5b600460000160149054906101000a900460ff1615600460000160146101000a81548160ff021916908315150217905550565b60008054906101000a900473ffffffffffffffffffffffffffffffffffffffff1673ffffffffffffffffffffffffffffffffffffffff163373ffffffffffffffffffffffffffffffffffffffff1614610b39576040517f08c379a0000000000000000000000000000000000000000000000000000000008152600401610b30906122cf565b60405180910390fd5b600160008273ffffffffffffffffffffffffffffffffffffffff1673ffffffffffffffffffffffffffffffffffffffff16815260200190815260200160002060009054906101000a900460ff1615610bc6576040517f08c379a0000000000000000000000000000000000000000000000000000000008152600401610bbd90612697565b60405180910390fd5b60018060008373ffffffffffffffffffffffffffffffffffffffff1673ffffffffffffffffffffffffffffffffffffffff16815260200190815260200160002060006101000a81548160ff02191690831515021790555050565b60008054906101000a900473ffffffffffffffffffffffffffffffffffffffff1673ffffffffffffffffffffffffffffffffffffffff163373ffffffffffffffffffffffffffffffffffffffff161480610cc35750600160003373ffffffffffffffffffffffffffffffffffffffff1673ffffffffffffffffffffffffffffffffffffffff16815260200190815260200160002060009054906101000a900460ff165b80610d2d5750600260003373ffffffffffffffffffffffffffffffffffffffff1673ffffffffffffffffffffffffffffffffffffffff16815260200190815260200160002060009054906101000a900460ff161515600860009054906101000a900460ff16151514155b610d6c576040517f08c379a0000000000000000000000000000000000000000000000000000000008152600401610d63906122cf565b60405180910390fd5b600460000160009054906101000a900473ffffffffffffffffffffffffffffffffffffffff1673ffffffffffffffffffffffffffffffffffffffff1663a4f33359878787878787306040518863ffffffff1660e01b8152600401610dd6979695949392919061277b565b600060405180830381600087803b158015610df057600080fd5b505af1158015610e04573d6000803e3d6000fd5b50505050505050505050565b60008054906101000a900473ffffffffffffffffffffffffffffffffffffffff1673ffffffffffffffffffffffffffffffffffffffff163373ffffffffffffffffffffffffffffffffffffffff161480610eb35750600160003373ffffffffffffffffffffffffffffffffffffffff1673ffffffffffffffffffffffffffffffffffffffff16815260200190815260200160002060009054906101000a900460ff165b610ef2576040517f08c379a0000000000000000000000000000000000000000000000000000000008152600401610ee9906122cf565b60405180910390fd5b600360009054906101000a900473ffffffffffffffffffffffffffffffffffffffff1673ffffffffffffffffffffffffffffffffffffffff168273ffffffffffffffffffffffffffffffffffffffff1663177690e06040518163ffffffff1660e01b8152600401602060405180830381865afa158015610f76573d6000803e3d6000fd5b505050506040513d601f19601f82011682018060405250810190610f9a9190612806565b73ffffffffffffffffffffffffffffffffffffffff1614610ff0576040517f08c379a0000000000000000000000000000000000000000000000000000000008152600401610fe7906128a5565b60405180910390fd5b600860009054906101000a900460ff1660016000600460000160009054906101000a900473ffffffffffffffffffffffffffffffffffffffff1673ffffffffffffffffffffffffffffffffffffffff1673ffffffffffffffffffffffffffffffffffffffff16815260200190815260200160002060006101000a81548160ff02191690831515021790555081600460000160006101000a81548173ffffffffffffffffffffffffffffffffffffffff021916908373ffffffffffffffffffffffffffffffffffffffff16021790555080600460000160146101000a81548160ff021916908315150217905550600860009054906101000a900460ff1615600160008473ffffffffffffffffffffffffffffffffffffffff1673ffffffffffffffffffffffffffffffffffffffff16815260200190815260200160002060006101000a81548160ff0219169083151502179055505050565b606060006007600084611159906128f7565b815260200190815260200160002080549050116111ab576040517f08c379a00000000000000000000000000000000000000000000000000000000081526004016111a2906129d0565b60405180910390fd5b60076000836111b9906128f7565b815260200190815260200160002080548060200260200160405190810160405280929190818152602001828054801561124757602002820191906000526020600020905b8160009054906101000a900473ffffffffffffffffffffffffffffffffffffffff1673ffffffffffffffffffffffffffffffffffffffff16815260200190600101908083116111fd575b50505050509050919050565b60008054906101000a900473ffffffffffffffffffffffffffffffffffffffff1673ffffffffffffffffffffffffffffffffffffffff163373ffffffffffffffffffffffffffffffffffffffff1614806112f65750600160003373ffffffffffffffffffffffffffffffffffffffff1673ffffffffffffffffffffffffffffffffffffffff16815260200190815260200160002060009054906101000a900460ff165b611335576040517f08c379a000000000000000000000000000000000000000000000000000000000815260040161132c906122cf565b60405180910390fd5b600260008273ffffffffffffffffffffffffffffffffffffffff1673ffffffffffffffffffffffffffffffffffffffff16815260200190815260200160002060009054906101000a900460ff1615600260008373ffffffffffffffffffffffffffffffffffffffff1673ffffffffffffffffffffffffffffffffffffffff16815260200190815260200160002060006101000a81548160ff02191690831515021790555050565b600360009054906101000a900473ffffffffffffffffffffffffffffffffffffffff1681565b6000600660008373ffffffffffffffffffffffffffffffffffffffff1673ffffffffffffffffffffffffffffffffffffffff1681526020019081526020016000205411611484576040517f08c379a000000000000000000000000000000000000000000000000000000000815260040161147b90612a3c565b60405180910390fd5b60006001600660008473ffffffffffffffffffffffffffffffffffffffff1673ffffffffffffffffffffffffffffffffffffffff168152602001908152602001600020546114d291906125f1565b90503273ffffffffffffffffffffffffffffffffffffffff16600582815481106114ff576114fe612a5c565b5b906000526020600020906003020160010160009054906101000a900473ffffffffffffffffffffffffffffffffffffffff1673ffffffffffffffffffffffffffffffffffffffff16148061159e575060008054906101000a900473ffffffffffffffffffffffffffffffffffffffff1673ffffffffffffffffffffffffffffffffffffffff163373ffffffffffffffffffffffffffffffffffffffff16145b806115f25750600160003373ffffffffffffffffffffffffffffffffffffffff1673ffffffffffffffffffffffffffffffffffffffff16815260200190815260200160002060009054906101000a900460ff165b611631576040517f08c379a000000000000000000000000000000000000000000000000000000000815260040161162890612afd565b60405180910390fd5b60006005828154811061164757611646612a5c565b5b90600052602060002090600302016040518060600160405290816000820160009054906101000a900473ffffffffffffffffffffffffffffffffffffffff1673ffffffffffffffffffffffffffffffffffffffff1673ffffffffffffffffffffffffffffffffffffffff1681526020016001820160009054906101000a900473ffffffffffffffffffffffffffffffffffffffff1673ffffffffffffffffffffffffffffffffffffffff1673ffffffffffffffffffffffffffffffffffffffff16815260200160028201548152505090506000816000015173ffffffffffffffffffffffffffffffffffffffff166317d7de7c6040518163ffffffff1660e01b8152600401602060405180830381865afa158015611769573d6000803e3d6000fd5b505050506040513d601f19601f8201168201806040525081019061178d919061258b565b90508260016005805490506117a291906125f1565b036118725760058054806117b9576117b8612b1d565b5b6001900381819060005260206000209060030201600080820160006101000a81549073ffffffffffffffffffffffffffffffffffffffff02191690556001820160006101000a81549073ffffffffffffffffffffffffffffffffffffffff02191690556002820160009055505090556000600660008673ffffffffffffffffffffffffffffffffffffffff1673ffffffffffffffffffffffffffffffffffffffff16815260200190815260200160002081905550611afe565b6005600160058054905061188691906125f1565b8154811061189757611896612a5c565b5b9060005260206000209060030201600584815481106118b9576118b8612a5c565b5b90600052602060002090600302016000820160009054906101000a900473ffffffffffffffffffffffffffffffffffffffff168160000160006101000a81548173ffffffffffffffffffffffffffffffffffffffff021916908373ffffffffffffffffffffffffffffffffffffffff1602179055506001820160009054906101000a900473ffffffffffffffffffffffffffffffffffffffff168160010160006101000a81548173ffffffffffffffffffffffffffffffffffffffff021916908373ffffffffffffffffffffffffffffffffffffffff1602179055506002820154816002015590505060058054806119b4576119b3612b1d565b5b6001900381819060005260206000209060030201600080820160006101000a81549073ffffffffffffffffffffffffffffffffffffffff02191690556001820160006101000a81549073ffffffffffffffffffffffffffffffffffffffff02191690556002820160009055505090556000600660008673ffffffffffffffffffffffffffffffffffffffff1673ffffffffffffffffffffffffffffffffffffffff16815260200190815260200160002081905550600183611a759190612b4c565b6006600060058681548110611a8d57611a8c612a5c565b5b906000526020600020906003020160000160009054906101000a900473ffffffffffffffffffffffffffffffffffffffff1673ffffffffffffffffffffffffffffffffffffffff1673ffffffffffffffffffffffffffffffffffffffff168152602001908152602001600020819055505b60016007600083815260200190815260200160002080549050611b2191906125f1565b826040015103611b885760076000828152602001908152602001600020805480611b4e57611b4d612b1d565b5b6001900381819060005260206000200160006101000a81549073ffffffffffffffffffffffffffffffffffffffff02191690559055611cf2565b6007600082815260200190815260200160002060016007600084815260200190815260200160002080549050611bbe91906125f1565b81548110611bcf57611bce612a5c565b5b9060005260206000200160009054906101000a900473ffffffffffffffffffffffffffffffffffffffff1660076000838152602001908152602001600020836040015181548110611c2357611c22612a5c565b5b9060005260206000200160006101000a81548173ffffffffffffffffffffffffffffffffffffffff021916908373ffffffffffffffffffffffffffffffffffffffff16021790555060076000828152602001908152602001600020805480611c8e57611c8d612b1d565b5b6001900381819060005260206000200160006101000a81549073ffffffffffffffffffffffffffffffffffffffff02191690559055816040015160058481548110611cdc57611cdb612a5c565b5b9060005260206000209060030201600201819055505b50505050565b6000604051905090565b600080fd5b600080fd5b600073ffffffffffffffffffffffffffffffffffffffff82169050919050565b6000611d3782611d0c565b9050919050565b611d4781611d2c565b8114611d5257600080fd5b50565b600081359050611d6481611d3e565b92915050565b600060208284031215611d8057611d7f611d02565b5b6000611d8e84828501611d55565b91505092915050565b600080fd5b600080fd5b6000601f19601f8301169050919050565b7f4e487b7100000000000000000000000000000000000000000000000000000000600052604160045260246000fd5b611dea82611da1565b810181811067ffffffffffffffff82111715611e0957611e08611db2565b5b80604052505050565b6000611e1c611cf8565b9050611e288282611de1565b919050565b600067ffffffffffffffff821115611e4857611e47611db2565b5b611e5182611da1565b9050602081019050919050565b82818337600083830152505050565b6000611e80611e7b84611e2d565b611e12565b905082815260208101848484011115611e9c57611e9b611d9c565b5b611ea7848285611e5e565b509392505050565b600082601f830112611ec457611ec3611d97565b5b8135611ed4848260208601611e6d565b91505092915050565b600060ff82169050919050565b611ef381611edd565b8114611efe57600080fd5b50565b600081359050611f1081611eea565b92915050565b60008160020b9050919050565b611f2c81611f16565b8114611f3757600080fd5b50565b600081359050611f4981611f23565b92915050565b60008160030b9050919050565b611f6581611f4f565b8114611f7057600080fd5b50565b600081359050611f8281611f5c565b92915050565b60008060008060008060c08789031215611fa557611fa4611d02565b5b600087013567ffffffffffffffff811115611fc357611fc2611d07565b5b611fcf89828a01611eaf565b9650506020611fe089828a01611f01565b9550506040611ff189828a01611f01565b945050606061200289828a01611f01565b935050608061201389828a01611f3a565b92505060a061202489828a01611f73565b9150509295509295509295565b60008115159050919050565b61204681612031565b811461205157600080fd5b50565b6000813590506120638161203d565b92915050565b600080604083850312156120805761207f611d02565b5b600061208e85828601611d55565b925050602061209f85828601612054565b9150509250929050565b6000602082840312156120bf576120be611d02565b5b600082013567ffffffffffffffff8111156120dd576120dc611d07565b5b6120e984828501611eaf565b91505092915050565b600081519050919050565b600082825260208201905092915050565b6000819050602082019050919050565b61212781611d2c565b82525050565b6000612139838361211e565b60208301905092915050565b6000602082019050919050565b600061215d826120f2565b61216781856120fd565b93506121728361210e565b8060005b838110156121a357815161218a888261212d565b975061219583612145565b925050600181019050612176565b5085935050505092915050565b600060208201905081810360008301526121ca8184612152565b905092915050565b6000819050919050565b60006121f76121f26121ed84611d0c565b6121d2565b611d0c565b9050919050565b6000612209826121dc565b9050919050565b600061221b826121fe565b9050919050565b61222b81612210565b82525050565b60006020820190506122466000830184612222565b92915050565b600082825260208201905092915050565b7f596f7520646f6e27742068617665207065726d697373696f6e7320746f20646f60008201527f20746869732e0000000000000000000000000000000000000000000000000000602082015250565b60006122b960268361224c565b91506122c48261225d565b604082019050919050565b600060208201905081810360008301526122e8816122ac565b9050919050565b7f54686973206164647265737320646f6573206e6f7420686176652061646d696e60008201527f2070726976696c65676573000000000000000000000000000000000000000000602082015250565b600061234b602b8361224c565b9150612356826122ef565b604082019050919050565b6000602082019050818103600083015261237a8161233e565b9050919050565b7f5468697320436174616c6f6720697320466163746f727920526573747269637460008201527f6564000000000000000000000000000000000000000000000000000000000000602082015250565b60006123dd60228361224c565b91506123e882612381565b604082019050919050565b6000602082019050818103600083015261240c816123d0565b9050919050565b7f5468697320726f75746520616c72656164792065786973747300000000000000600082015250565b600061244960198361224c565b915061245482612413565b602082019050919050565b600060208201905081810360008301526124788161243c565b9050919050565b60008151905061248e81611f23565b92915050565b6000815190506124a381611f5c565b92915050565b600080604083850312156124c0576124bf611d02565b5b60006124ce8582860161247f565b92505060206124df85828601612494565b9150509250929050565b7f496e76616c696420726f7574652e204e6f206c6f636174696f6e000000000000600082015250565b600061251f601a8361224c565b915061252a826124e9565b602082019050919050565b6000602082019050818103600083015261254e81612512565b9050919050565b6000819050919050565b61256881612555565b811461257357600080fd5b50565b6000815190506125858161255f565b92915050565b6000602082840312156125a1576125a0611d02565b5b60006125af84828501612576565b91505092915050565b6000819050919050565b7f4e487b7100000000000000000000000000000000000000000000000000000000600052601160045260246000fd5b60006125fc826125b8565b9150612607836125b8565b92508282101561261a576126196125c2565b5b828203905092915050565b7f54686973206164647265737320616c7265616479206861732061646d696e207060008201527f726976696c656765730000000000000000000000000000000000000000000000602082015250565b600061268160298361224c565b915061268c82612625565b604082019050919050565b600060208201905081810360008301526126b081612674565b9050919050565b600081519050919050565b600082825260208201905092915050565b60005b838110156126f15780820151818401526020810190506126d6565b83811115612700576000848401525b50505050565b6000612711826126b7565b61271b81856126c2565b935061272b8185602086016126d3565b61273481611da1565b840191505092915050565b61274881611edd565b82525050565b61275781611f16565b82525050565b61276681611f4f565b82525050565b61277581611d2c565b82525050565b600060e0820190508181036000830152612795818a612706565b90506127a4602083018961273f565b6127b1604083018861273f565b6127be606083018761273f565b6127cb608083018661274e565b6127d860a083018561275d565b6127e560c083018461276c565b98975050505050505050565b60008151905061280081611d3e565b92915050565b60006020828403121561281c5761281b611d02565b5b600061282a848285016127f1565b91505092915050565b7f496e636f6d70617469626c6520666163746f7279202d205343414c452044495360008201527f43524550414e4359000000000000000000000000000000000000000000000000602082015250565b600061288f60288361224c565b915061289a82612833565b604082019050919050565b600060208201905081810360008301526128be81612882565b9050919050565b6000819050602082019050919050565b60006128e18251612555565b80915050919050565b600082821b905092915050565b6000612902826126b7565b8261290c846128c5565b9050612917816128d5565b92506020821015612957576129527fffffffffffffffffffffffffffffffffffffffffffffffffffffffffffffffff836020036008026128ea565b831692505b5050919050565b7f546865726520617265206e6f20726f7574657320776974682074686973206e6160008201527f6d6520696e207468697320436174616c6f670000000000000000000000000000602082015250565b60006129ba60328361224c565b91506129c58261295e565b604082019050919050565b600060208201905081810360008301526129e9816129ad565b9050919050565b7f526f757465206e6f7420666f756e6420696e20636174616c6f67000000000000600082015250565b6000612a26601a8361224c565b9150612a31826129f0565b602082019050919050565b60006020820190508181036000830152612a5581612a19565b9050919050565b7f4e487b7100000000000000000000000000000000000000000000000000000000600052603260045260246000fd5b7f596f7520646f6e27742068617665207065726d697373696f6e7320746f20646f60008201527f2074686973000000000000000000000000000000000000000000000000000000602082015250565b6000612ae760258361224c565b9150612af282612a8b565b604082019050919050565b60006020820190508181036000830152612b1681612ada565b9050919050565b7f4e487b7100000000000000000000000000000000000000000000000000000000600052603160045260246000fd5b6000612b57826125b8565b9150612b62836125b8565b9250827fffffffffffffffffffffffffffffffffffffffffffffffffffffffffffffffff03821115612b9757612b966125c2565b5b82820190509291505056fea2646970667358221220f0983fc809e8ef4c0a6c2364522c63b40267dd462b57b2d7380f25df2e966d8f64736f6c634300080f0033",
  "immutableReferences": {},
  "source": "pragma solidity ^0.8.0;\r\n\r\nimport \"./ClimbingScalesDataBytes.sol\";\r\nimport \"./RouteFactory.sol\";\r\nimport \"./SimpleRouteData.sol\";\r\n\r\ncontract RouteCatalog {\r\n    struct FactoryWrapper {\r\n        RouteFactory instance;\r\n        bool restricted;\r\n    }\r\n\r\n    struct RouteWrapper {\r\n        SimpleRouteData instance;\r\n        address addedBy;\r\n        uint nameIndex;\r\n    }\r\n\r\n    address owner;\r\n    mapping(address => bool) admin;\r\n    mapping(address => bool) access;\r\n\r\n    ClimbingScalesDataBytes public scalesData;\r\n    FactoryWrapper factory;\r\n    RouteWrapper[] route;\r\n    mapping(address => uint) routeIndex;\r\n    mapping(bytes32 => address[]) routesNamed;\r\n    bool publicWrite;\r\n\r\n    constructor(address _scales){\r\n        owner = msg.sender;\r\n        scalesData = ClimbingScalesDataBytes(_scales);\r\n        //publicWrite = true;               // PUBLIC WRITE ACCESS - If publicWrite != access[addr] => addr has access\r\n    }\r\n\r\n    modifier isOwner() {\r\n        require(msg.sender == owner,\r\n            \"You don't have permissions to do this.\");\r\n        _;\r\n    }\r\n\r\n    modifier isAdmin() {\r\n        require(msg.sender == owner || admin[msg.sender],\r\n            \"You don't have permissions to do this.\");\r\n        _;\r\n    }\r\n\r\n    modifier restrictedAccess() {\r\n        require( (msg.sender == owner || admin[msg.sender]) ||\r\n            ( publicWrite != access[msg.sender] ),\r\n            \"You don't have permissions to do this.\");\r\n        _;\r\n    }\r\n\r\n    modifier factoryRestricted(){\r\n        require( (msg.sender == owner || admin[msg.sender]) ||\r\n        (factory.restricted && address(factory.instance) == msg.sender)\r\n            || !factory.restricted,\r\n            \"This Catalog is Factory Restricted\");\r\n        _;\r\n    }\r\n\r\n    function assignAdmin(address _user) external isOwner() {\r\n        require(!admin[_user],\r\n            \"This address already has admin privileges\");\r\n        admin[_user] = true;\r\n    }\r\n\r\n    function removeAdmin(address _user) external isOwner() {\r\n        require(admin[_user],\r\n            \"This address does not have admin privileges\");\r\n        admin[_user] = false;\r\n    }\r\n\r\n    function assignFactory(address _factory, bool _restrict) external isAdmin() {\r\n        require( RouteFactory(_factory).getScalesAddress() == address(scalesData),\r\n            \"Incompatible factory - SCALE DISCREPANCY\");\r\n        admin[address(factory.instance)] = publicWrite;\r\n        factory.instance = RouteFactory(_factory);\r\n        factory.restricted = _restrict;\r\n        admin[_factory] = !publicWrite;\r\n    }\r\n\r\n    function toggleRestrictFactory() public isAdmin() {\r\n        factory.restricted = !factory.restricted;\r\n    }\r\n\r\n    function toggleUserAccess(address _user) public isAdmin() {\r\n        access[_user] = !(access[_user]);\r\n    }\r\n\r\n    function newEntry(address _routeData) external restrictedAccess() factoryRestricted() {\r\n        // check if route already in database\r\n        require(routeIndex[_routeData] == 0,\r\n            \"This route already exists\");\r\n        SimpleRouteData entry = SimpleRouteData(_routeData);\r\n        (int24 _lat,)=entry.getLocation();\r\n        // check route has location\r\n        require(_lat != 0,\r\n            \"Invalid route. No location\");\r\n\r\n        bytes32 routeName = entry.getName();\r\n        routesNamed[routeName].push(_routeData);\r\n        route.push(RouteWrapper(entry, tx.origin, routesNamed[routeName].length-1));\r\n        routeIndex[_routeData] = route.length;\r\n    }\r\n\r\n    function newFactoryEntry(bytes memory _name, uint8 _discipline, uint8 _scale, uint8 _grade, int24 _latitude, int32 _longitude) external restrictedAccess() {\r\n        factory.instance.newCatalogEntry(_name, _discipline, _scale, _grade, _latitude, _longitude, address(this));\r\n    }\r\n\r\n    function delEntry(address _routeData) external  {\r\n        require(routeIndex[_routeData] > 0,\r\n            \"Route not found in catalog\");\r\n        uint index = routeIndex[_routeData] - 1;\r\n        require( route[index].addedBy == tx.origin || msg.sender == owner || admin[msg.sender],\r\n            \"You don't have permissions to do this\");\r\n        RouteWrapper memory old = route[index];\r\n        bytes32 oldName = old.instance.getName();\r\n        if(route.length-1 == index){\r\n            route.pop();\r\n            routeIndex[_routeData] = 0;\r\n        } else{\r\n            route[index] = route[route.length-1];\r\n            route.pop();\r\n            routeIndex[_routeData] = 0;\r\n            routeIndex[address(route[index].instance)] = index+1;\r\n        }\r\n\r\n        if(old.nameIndex == routesNamed[oldName].length-1){\r\n            routesNamed[oldName].pop();\r\n        } else {\r\n            routesNamed[oldName][old.nameIndex] = routesNamed[oldName][routesNamed[oldName].length-1];\r\n            routesNamed[oldName].pop();\r\n            route[index].nameIndex = old.nameIndex;\r\n        }\r\n    }\r\n\r\n    function getRoutesByName(bytes memory _name) external view returns (address[] memory){\r\n        require(routesNamed[bytes32(_name)].length > 0,\r\n            \"There are no routes with this name in this Catalog\");\r\n        return routesNamed[bytes32(_name)];\r\n    }\r\n}\r\n",
  "sourcePath": "C:\\Users\\Tino\\Google Drive\\Docs\\UChile\\MEMORIA\\DEV\\dapp\\contracts\\RouteCatalog.sol",
  "compiler": {
    "name": "solc",
    "version": "0.8.15+commit.e14f2714.Emscripten.clang"
  },
  "schemaVersion": "3.4.7",
  "updatedAt": "2022-07-05T11:03:07.525Z",
  "networkType": "ethereum",
  "devdoc": {
    "kind": "dev",
    "methods": {},
    "version": 1
  },
  "userdoc": {
    "kind": "user",
    "methods": {},
    "version": 1
  }
}