{
  "contractName": "ScalesData",
  "abi": [
    {
      "inputs": [
        {
          "internalType": "bytes5",
          "name": "_bytes5",
          "type": "bytes5"
        }
      ],
      "name": "bytes5ToString",
      "outputs": [
        {
          "internalType": "string",
          "name": "",
          "type": "string"
        }
      ],
      "stateMutability": "pure",
      "type": "function",
      "constant": true
    },
    {
      "inputs": [
        {
          "internalType": "bytes3",
          "name": "_bytes3",
          "type": "bytes3"
        }
      ],
      "name": "bytes3ToString",
      "outputs": [
        {
          "internalType": "string",
          "name": "",
          "type": "string"
        }
      ],
      "stateMutability": "pure",
      "type": "function",
      "constant": true
    },
    {
      "inputs": [
        {
          "internalType": "uint8",
          "name": "q",
          "type": "uint8"
        }
      ],
      "name": "getDiscipline",
      "outputs": [
        {
          "internalType": "string",
          "name": "",
          "type": "string"
        }
      ],
      "stateMutability": "view",
      "type": "function",
      "constant": true
    },
    {
      "inputs": [
        {
          "internalType": "uint8",
          "name": "q",
          "type": "uint8"
        }
      ],
      "name": "getScale",
      "outputs": [
        {
          "internalType": "string",
          "name": "",
          "type": "string"
        }
      ],
      "stateMutability": "view",
      "type": "function",
      "constant": true
    },
    {
      "inputs": [
        {
          "internalType": "uint8",
          "name": "q",
          "type": "uint8"
        }
      ],
      "name": "getGrade",
      "outputs": [
        {
          "internalType": "string",
          "name": "",
          "type": "string"
        }
      ],
      "stateMutability": "view",
      "type": "function",
      "constant": true
    },
    {
      "inputs": [
        {
          "internalType": "uint8",
          "name": "q",
          "type": "uint8"
        }
      ],
      "name": "getAll",
      "outputs": [
        {
          "internalType": "string",
          "name": "",
          "type": "string"
        },
        {
          "internalType": "string",
          "name": "",
          "type": "string"
        },
        {
          "internalType": "string",
          "name": "",
          "type": "string"
        }
      ],
      "stateMutability": "view",
      "type": "function",
      "constant": true
    }
  ],
  "bytecode": "0x60806040526040518061044001604052807f352e3000000000000000000000000000000000000000000000000000000000007affffffffffffffffffffffffffffffffffffffffffffffffffffff19167affffffffffffffffffffffffffffffffffffffffffffffffffffff191681526020017f352e3100000000000000000000000000000000000000000000000000000000007affffffffffffffffffffffffffffffffffffffffffffffffffffff19167affffffffffffffffffffffffffffffffffffffffffffffffffffff191681526020017f352e3200000000000000000000000000000000000000000000000000000000007affffffffffffffffffffffffffffffffffffffffffffffffffffff19167affffffffffffffffffffffffffffffffffffffffffffffffffffff191681526020017f352e3300000000000000000000000000000000000000000000000000000000007affffffffffffffffffffffffffffffffffffffffffffffffffffff19167affffffffffffffffffffffffffffffffffffffffffffffffffffff191681526020017f352e3400000000000000000000000000000000000000000000000000000000007affffffffffffffffffffffffffffffffffffffffffffffffffffff19167affffffffffffffffffffffffffffffffffffffffffffffffffffff191681526020017f352e3500000000000000000000000000000000000000000000000000000000007affffffffffffffffffffffffffffffffffffffffffffffffffffff19167affffffffffffffffffffffffffffffffffffffffffffffffffffff191681526020017f352e3600000000000000000000000000000000000000000000000000000000007affffffffffffffffffffffffffffffffffffffffffffffffffffff19167affffffffffffffffffffffffffffffffffffffffffffffffffffff191681526020017f352e3700000000000000000000000000000000000000000000000000000000007affffffffffffffffffffffffffffffffffffffffffffffffffffff19167affffffffffffffffffffffffffffffffffffffffffffffffffffff191681526020017f352e3800000000000000000000000000000000000000000000000000000000007affffffffffffffffffffffffffffffffffffffffffffffffffffff19167affffffffffffffffffffffffffffffffffffffffffffffffffffff191681526020017f352e3900000000000000000000000000000000000000000000000000000000007affffffffffffffffffffffffffffffffffffffffffffffffffffff19167affffffffffffffffffffffffffffffffffffffffffffffffffffff191681526020017f352e3130610000000000000000000000000000000000000000000000000000007affffffffffffffffffffffffffffffffffffffffffffffffffffff19167affffffffffffffffffffffffffffffffffffffffffffffffffffff191681526020017f352e3130620000000000000000000000000000000000000000000000000000007affffffffffffffffffffffffffffffffffffffffffffffffffffff19167affffffffffffffffffffffffffffffffffffffffffffffffffffff191681526020017f352e3130630000000000000000000000000000000000000000000000000000007affffffffffffffffffffffffffffffffffffffffffffffffffffff19167affffffffffffffffffffffffffffffffffffffffffffffffffffff191681526020017f352e3130640000000000000000000000000000000000000000000000000000007affffffffffffffffffffffffffffffffffffffffffffffffffffff19167affffffffffffffffffffffffffffffffffffffffffffffffffffff191681526020017f352e3131610000000000000000000000000000000000000000000000000000007affffffffffffffffffffffffffffffffffffffffffffffffffffff19167affffffffffffffffffffffffffffffffffffffffffffffffffffff191681526020017f352e3131620000000000000000000000000000000000000000000000000000007affffffffffffffffffffffffffffffffffffffffffffffffffffff19167affffffffffffffffffffffffffffffffffffffffffffffffffffff191681526020017f352e3131630000000000000000000000000000000000000000000000000000007affffffffffffffffffffffffffffffffffffffffffffffffffffff19167affffffffffffffffffffffffffffffffffffffffffffffffffffff191681526020017f352e3131640000000000000000000000000000000000000000000000000000007affffffffffffffffffffffffffffffffffffffffffffffffffffff19167affffffffffffffffffffffffffffffffffffffffffffffffffffff191681526020017f352e3132610000000000000000000000000000000000000000000000000000007affffffffffffffffffffffffffffffffffffffffffffffffffffff19167affffffffffffffffffffffffffffffffffffffffffffffffffffff191681526020017f352e3132620000000000000000000000000000000000000000000000000000007affffffffffffffffffffffffffffffffffffffffffffffffffffff19167affffffffffffffffffffffffffffffffffffffffffffffffffffff191681526020017f352e3132630000000000000000000000000000000000000000000000000000007affffffffffffffffffffffffffffffffffffffffffffffffffffff19167affffffffffffffffffffffffffffffffffffffffffffffffffffff191681526020017f352e3132640000000000000000000000000000000000000000000000000000007affffffffffffffffffffffffffffffffffffffffffffffffffffff19167affffffffffffffffffffffffffffffffffffffffffffffffffffff191681526020017f352e3133610000000000000000000000000000000000000000000000000000007affffffffffffffffffffffffffffffffffffffffffffffffffffff19167affffffffffffffffffffffffffffffffffffffffffffffffffffff191681526020017f352e3133620000000000000000000000000000000000000000000000000000007affffffffffffffffffffffffffffffffffffffffffffffffffffff19167affffffffffffffffffffffffffffffffffffffffffffffffffffff191681526020017f352e3133630000000000000000000000000000000000000000000000000000007affffffffffffffffffffffffffffffffffffffffffffffffffffff19167affffffffffffffffffffffffffffffffffffffffffffffffffffff191681526020017f352e3133640000000000000000000000000000000000000000000000000000007affffffffffffffffffffffffffffffffffffffffffffffffffffff19167affffffffffffffffffffffffffffffffffffffffffffffffffffff191681526020017f352e3134610000000000000000000000000000000000000000000000000000007affffffffffffffffffffffffffffffffffffffffffffffffffffff19167affffffffffffffffffffffffffffffffffffffffffffffffffffff191681526020017f352e3134620000000000000000000000000000000000000000000000000000007affffffffffffffffffffffffffffffffffffffffffffffffffffff19167affffffffffffffffffffffffffffffffffffffffffffffffffffff191681526020017f352e3134630000000000000000000000000000000000000000000000000000007affffffffffffffffffffffffffffffffffffffffffffffffffffff19167affffffffffffffffffffffffffffffffffffffffffffffffffffff191681526020017f352e3134640000000000000000000000000000000000000000000000000000007affffffffffffffffffffffffffffffffffffffffffffffffffffff19167affffffffffffffffffffffffffffffffffffffffffffffffffffff191681526020017f352e3135610000000000000000000000000000000000000000000000000000007affffffffffffffffffffffffffffffffffffffffffffffffffffff19167affffffffffffffffffffffffffffffffffffffffffffffffffffff191681526020017f352e3135620000000000000000000000000000000000000000000000000000007affffffffffffffffffffffffffffffffffffffffffffffffffffff19167affffffffffffffffffffffffffffffffffffffffffffffffffffff191681526020017f352e3135630000000000000000000000000000000000000000000000000000007affffffffffffffffffffffffffffffffffffffffffffffffffffff19167affffffffffffffffffffffffffffffffffffffffffffffffffffff191681526020017f352e3135640000000000000000000000000000000000000000000000000000007affffffffffffffffffffffffffffffffffffffffffffffffffffff19167affffffffffffffffffffffffffffffffffffffffffffffffffffff1916815250600090602262000d2492919062002644565b506040518061028001604052807f31000000000000000000000000000000000000000000000000000000000000007cffffffffffffffffffffffffffffffffffffffffffffffffffffffffff19167cffffffffffffffffffffffffffffffffffffffffffffffffffffffffff191681526020017f32000000000000000000000000000000000000000000000000000000000000007cffffffffffffffffffffffffffffffffffffffffffffffffffffffffff19167cffffffffffffffffffffffffffffffffffffffffffffffffffffffffff191681526020017f33000000000000000000000000000000000000000000000000000000000000007cffffffffffffffffffffffffffffffffffffffffffffffffffffffffff19167cffffffffffffffffffffffffffffffffffffffffffffffffffffffffff191681526020017f332b0000000000000000000000000000000000000000000000000000000000007cffffffffffffffffffffffffffffffffffffffffffffffffffffffffff19167cffffffffffffffffffffffffffffffffffffffffffffffffffffffffff191681526020017f34610000000000000000000000000000000000000000000000000000000000007cffffffffffffffffffffffffffffffffffffffffffffffffffffffffff19167cffffffffffffffffffffffffffffffffffffffffffffffffffffffffff191681526020017f34620000000000000000000000000000000000000000000000000000000000007cffffffffffffffffffffffffffffffffffffffffffffffffffffffffff19167cffffffffffffffffffffffffffffffffffffffffffffffffffffffffff191681526020017f34630000000000000000000000000000000000000000000000000000000000007cffffffffffffffffffffffffffffffffffffffffffffffffffffffffff19167cffffffffffffffffffffffffffffffffffffffffffffffffffffffffff191681526020017f35610000000000000000000000000000000000000000000000000000000000007cffffffffffffffffffffffffffffffffffffffffffffffffffffffffff19167cffffffffffffffffffffffffffffffffffffffffffffffffffffffffff191681526020017f35620000000000000000000000000000000000000000000000000000000000007cffffffffffffffffffffffffffffffffffffffffffffffffffffffffff19167cffffffffffffffffffffffffffffffffffffffffffffffffffffffffff191681526020017f35630000000000000000000000000000000000000000000000000000000000007cffffffffffffffffffffffffffffffffffffffffffffffffffffffffff19167cffffffffffffffffffffffffffffffffffffffffffffffffffffffffff191681526020017f36610000000000000000000000000000000000000000000000000000000000007cffffffffffffffffffffffffffffffffffffffffffffffffffffffffff19167cffffffffffffffffffffffffffffffffffffffffffffffffffffffffff191681526020017f36612b00000000000000000000000000000000000000000000000000000000007cffffffffffffffffffffffffffffffffffffffffffffffffffffffffff19167cffffffffffffffffffffffffffffffffffffffffffffffffffffffffff191681526020017f36620000000000000000000000000000000000000000000000000000000000007cffffffffffffffffffffffffffffffffffffffffffffffffffffffffff19167cffffffffffffffffffffffffffffffffffffffffffffffffffffffffff191681526020017f36622b00000000000000000000000000000000000000000000000000000000007cffffffffffffffffffffffffffffffffffffffffffffffffffffffffff19167cffffffffffffffffffffffffffffffffffffffffffffffffffffffffff191681526020017f36630000000000000000000000000000000000000000000000000000000000007cffffffffffffffffffffffffffffffffffffffffffffffffffffffffff19167cffffffffffffffffffffffffffffffffffffffffffffffffffffffffff191681526020017f36632b00000000000000000000000000000000000000000000000000000000007cffffffffffffffffffffffffffffffffffffffffffffffffffffffffff19167cffffffffffffffffffffffffffffffffffffffffffffffffffffffffff191681526020017f37610000000000000000000000000000000000000000000000000000000000007cffffffffffffffffffffffffffffffffffffffffffffffffffffffffff19167cffffffffffffffffffffffffffffffffffffffffffffffffffffffffff191681526020017f37612b00000000000000000000000000000000000000000000000000000000007cffffffffffffffffffffffffffffffffffffffffffffffffffffffffff19167cffffffffffffffffffffffffffffffffffffffffffffffffffffffffff191681526020017f37620000000000000000000000000000000000000000000000000000000000007cffffffffffffffffffffffffffffffffffffffffffffffffffffffffff19167cffffffffffffffffffffffffffffffffffffffffffffffffffffffffff191681526020017f37622b00000000000000000000000000000000000000000000000000000000007cffffffffffffffffffffffffffffffffffffffffffffffffffffffffff19167cffffffffffffffffffffffffffffffffffffffffffffffffffffffffff1916815250600690601462001539929190620026ed565b506040518061026001604052807f56420000000000000000000000000000000000000000000000000000000000007cffffffffffffffffffffffffffffffffffffffffffffffffffffffffff19167cffffffffffffffffffffffffffffffffffffffffffffffffffffffffff191681526020017f56300000000000000000000000000000000000000000000000000000000000007cffffffffffffffffffffffffffffffffffffffffffffffffffffffffff19167cffffffffffffffffffffffffffffffffffffffffffffffffffffffffff191681526020017f56310000000000000000000000000000000000000000000000000000000000007cffffffffffffffffffffffffffffffffffffffffffffffffffffffffff19167cffffffffffffffffffffffffffffffffffffffffffffffffffffffffff191681526020017f56320000000000000000000000000000000000000000000000000000000000007cffffffffffffffffffffffffffffffffffffffffffffffffffffffffff19167cffffffffffffffffffffffffffffffffffffffffffffffffffffffffff191681526020017f56330000000000000000000000000000000000000000000000000000000000007cffffffffffffffffffffffffffffffffffffffffffffffffffffffffff19167cffffffffffffffffffffffffffffffffffffffffffffffffffffffffff191681526020017f56340000000000000000000000000000000000000000000000000000000000007cffffffffffffffffffffffffffffffffffffffffffffffffffffffffff19167cffffffffffffffffffffffffffffffffffffffffffffffffffffffffff191681526020017f56350000000000000000000000000000000000000000000000000000000000007cffffffffffffffffffffffffffffffffffffffffffffffffffffffffff19167cffffffffffffffffffffffffffffffffffffffffffffffffffffffffff191681526020017f56360000000000000000000000000000000000000000000000000000000000007cffffffffffffffffffffffffffffffffffffffffffffffffffffffffff19167cffffffffffffffffffffffffffffffffffffffffffffffffffffffffff191681526020017f56370000000000000000000000000000000000000000000000000000000000007cffffffffffffffffffffffffffffffffffffffffffffffffffffffffff19167cffffffffffffffffffffffffffffffffffffffffffffffffffffffffff191681526020017f56380000000000000000000000000000000000000000000000000000000000007cffffffffffffffffffffffffffffffffffffffffffffffffffffffffff19167cffffffffffffffffffffffffffffffffffffffffffffffffffffffffff191681526020017f56390000000000000000000000000000000000000000000000000000000000007cffffffffffffffffffffffffffffffffffffffffffffffffffffffffff19167cffffffffffffffffffffffffffffffffffffffffffffffffffffffffff191681526020017f56313000000000000000000000000000000000000000000000000000000000007cffffffffffffffffffffffffffffffffffffffffffffffffffffffffff19167cffffffffffffffffffffffffffffffffffffffffffffffffffffffffff191681526020017f56313100000000000000000000000000000000000000000000000000000000007cffffffffffffffffffffffffffffffffffffffffffffffffffffffffff19167cffffffffffffffffffffffffffffffffffffffffffffffffffffffffff191681526020017f56313200000000000000000000000000000000000000000000000000000000007cffffffffffffffffffffffffffffffffffffffffffffffffffffffffff19167cffffffffffffffffffffffffffffffffffffffffffffffffffffffffff191681526020017f56313300000000000000000000000000000000000000000000000000000000007cffffffffffffffffffffffffffffffffffffffffffffffffffffffffff19167cffffffffffffffffffffffffffffffffffffffffffffffffffffffffff191681526020017f56313400000000000000000000000000000000000000000000000000000000007cffffffffffffffffffffffffffffffffffffffffffffffffffffffffff19167cffffffffffffffffffffffffffffffffffffffffffffffffffffffffff191681526020017f56313500000000000000000000000000000000000000000000000000000000007cffffffffffffffffffffffffffffffffffffffffffffffffffffffffff19167cffffffffffffffffffffffffffffffffffffffffffffffffffffffffff191681526020017f56313600000000000000000000000000000000000000000000000000000000007cffffffffffffffffffffffffffffffffffffffffffffffffffffffffff19167cffffffffffffffffffffffffffffffffffffffffffffffffffffffffff191681526020017f56313700000000000000000000000000000000000000000000000000000000007cffffffffffffffffffffffffffffffffffffffffffffffffffffffffff19167cffffffffffffffffffffffffffffffffffffffffffffffffffffffffff1916815250600890601362001ce892919062002792565b50604051806102e001604052807f33000000000000000000000000000000000000000000000000000000000000007cffffffffffffffffffffffffffffffffffffffffffffffffffffffffff19167cffffffffffffffffffffffffffffffffffffffffffffffffffffffffff191681526020017f34000000000000000000000000000000000000000000000000000000000000007cffffffffffffffffffffffffffffffffffffffffffffffffffffffffff19167cffffffffffffffffffffffffffffffffffffffffffffffffffffffffff191681526020017f35000000000000000000000000000000000000000000000000000000000000007cffffffffffffffffffffffffffffffffffffffffffffffffffffffffff19167cffffffffffffffffffffffffffffffffffffffffffffffffffffffffff191681526020017f352b0000000000000000000000000000000000000000000000000000000000007cffffffffffffffffffffffffffffffffffffffffffffffffffffffffff19167cffffffffffffffffffffffffffffffffffffffffffffffffffffffffff191681526020017f36610000000000000000000000000000000000000000000000000000000000007cffffffffffffffffffffffffffffffffffffffffffffffffffffffffff19167cffffffffffffffffffffffffffffffffffffffffffffffffffffffffff191681526020017f36612b00000000000000000000000000000000000000000000000000000000007cffffffffffffffffffffffffffffffffffffffffffffffffffffffffff19167cffffffffffffffffffffffffffffffffffffffffffffffffffffffffff191681526020017f36620000000000000000000000000000000000000000000000000000000000007cffffffffffffffffffffffffffffffffffffffffffffffffffffffffff19167cffffffffffffffffffffffffffffffffffffffffffffffffffffffffff191681526020017f36622b00000000000000000000000000000000000000000000000000000000007cffffffffffffffffffffffffffffffffffffffffffffffffffffffffff19167cffffffffffffffffffffffffffffffffffffffffffffffffffffffffff191681526020017f36630000000000000000000000000000000000000000000000000000000000007cffffffffffffffffffffffffffffffffffffffffffffffffffffffffff19167cffffffffffffffffffffffffffffffffffffffffffffffffffffffffff191681526020017f36632b00000000000000000000000000000000000000000000000000000000007cffffffffffffffffffffffffffffffffffffffffffffffffffffffffff19167cffffffffffffffffffffffffffffffffffffffffffffffffffffffffff191681526020017f37610000000000000000000000000000000000000000000000000000000000007cffffffffffffffffffffffffffffffffffffffffffffffffffffffffff19167cffffffffffffffffffffffffffffffffffffffffffffffffffffffffff191681526020017f37612b00000000000000000000000000000000000000000000000000000000007cffffffffffffffffffffffffffffffffffffffffffffffffffffffffff19167cffffffffffffffffffffffffffffffffffffffffffffffffffffffffff191681526020017f37620000000000000000000000000000000000000000000000000000000000007cffffffffffffffffffffffffffffffffffffffffffffffffffffffffff19167cffffffffffffffffffffffffffffffffffffffffffffffffffffffffff191681526020017f37622b00000000000000000000000000000000000000000000000000000000007cffffffffffffffffffffffffffffffffffffffffffffffffffffffffff19167cffffffffffffffffffffffffffffffffffffffffffffffffffffffffff191681526020017f37630000000000000000000000000000000000000000000000000000000000007cffffffffffffffffffffffffffffffffffffffffffffffffffffffffff19167cffffffffffffffffffffffffffffffffffffffffffffffffffffffffff191681526020017f37632b00000000000000000000000000000000000000000000000000000000007cffffffffffffffffffffffffffffffffffffffffffffffffffffffffff19167cffffffffffffffffffffffffffffffffffffffffffffffffffffffffff191681526020017f38610000000000000000000000000000000000000000000000000000000000007cffffffffffffffffffffffffffffffffffffffffffffffffffffffffff19167cffffffffffffffffffffffffffffffffffffffffffffffffffffffffff191681526020017f38612b00000000000000000000000000000000000000000000000000000000007cffffffffffffffffffffffffffffffffffffffffffffffffffffffffff19167cffffffffffffffffffffffffffffffffffffffffffffffffffffffffff191681526020017f38620000000000000000000000000000000000000000000000000000000000007cffffffffffffffffffffffffffffffffffffffffffffffffffffffffff19167cffffffffffffffffffffffffffffffffffffffffffffffffffffffffff191681526020017f38622b00000000000000000000000000000000000000000000000000000000007cffffffffffffffffffffffffffffffffffffffffffffffffffffffffff19167cffffffffffffffffffffffffffffffffffffffffffffffffffffffffff191681526020017f38630000000000000000000000000000000000000000000000000000000000007cffffffffffffffffffffffffffffffffffffffffffffffffffffffffff19167cffffffffffffffffffffffffffffffffffffffffffffffffffffffffff191681526020017f38632b00000000000000000000000000000000000000000000000000000000007cffffffffffffffffffffffffffffffffffffffffffffffffffffffffff19167cffffffffffffffffffffffffffffffffffffffffffffffffffffffffff191681526020017f39610000000000000000000000000000000000000000000000000000000000007cffffffffffffffffffffffffffffffffffffffffffffffffffffffffff19167cffffffffffffffffffffffffffffffffffffffffffffffffffffffffff1916815250600a9060176200262f92919062002837565b503480156200263d57600080fd5b50620028fb565b826022600501600690048101928215620026da5791602002820160005b83821115620026a557835183826101000a81548164ffffffffff021916908360d81c0217905550926020019260050160208160040104928301926001030262002661565b8015620026d85782816101000a81549064ffffffffff0219169055600501602081600401049283019260010302620026a5565b505b509050620026e99190620028dc565b5090565b826014600901600a900481019282156200277f5791602002820160005b838211156200274c57835183826101000a81548162ffffff021916908360e81c021790555092602001926003016020816002010492830192600103026200270a565b80156200277d5782816101000a81549062ffffff02191690556003016020816002010492830192600103026200274c565b505b5090506200278e9190620028dc565b5090565b826013600901600a90048101928215620028245791602002820160005b83821115620027f157835183826101000a81548162ffffff021916908360e81c02179055509260200192600301602081600201049283019260010302620027af565b8015620028225782816101000a81549062ffffff0219169055600301602081600201049283019260010302620027f1565b505b509050620028339190620028dc565b5090565b826017600901600a90048101928215620028c95791602002820160005b838211156200289657835183826101000a81548162ffffff021916908360e81c0217905550926020019260030160208160020104928301926001030262002854565b8015620028c75782816101000a81549062ffffff021916905560030160208160020104928301926001030262002896565b505b509050620028d89190620028dc565b5090565b5b80821115620028f7576000816000905550600101620028dd565b5090565b610f46806200290b6000396000f3fe608060405234801561001057600080fd5b50600436106100625760003560e01c806368bc766c146100675780636e45f8a41461009957806385e518d9146100c9578063a8c2532d146100f9578063ccf25b4d14610129578063dd17d2a914610159575b600080fd5b610081600480360381019061007c9190610b6a565b610189565b60405161009093929190610c30565b60405180910390f35b6100b360048036038101906100ae9190610cd4565b6101b6565b6040516100c09190610d01565b60405180910390f35b6100e360048036038101906100de9190610b6a565b610351565b6040516100f09190610d01565b60405180910390f35b610113600480360381019061010e9190610b6a565b610431565b6040516101209190610d01565b60405180910390f35b610143600480360381019061013e9190610b6a565b610646565b6040516101509190610d01565b60405180910390f35b610173600480360381019061016e9190610d7b565b610991565b6040516101809190610d01565b60405180910390f35b606080606061019784610351565b6101a085610431565b6101a986610646565b9250925092509193909250565b606060005b60038160ff1610801561020d5750600060f81b838260ff16600381106101e4576101e3610da8565b5b1a60f81b7effffffffffffffffffffffffffffffffffffffffffffffffffffffffffffff191614155b1561022557808061021d90610e06565b9150506101bb565b60008160ff1667ffffffffffffffff81111561024457610243610e2f565b5b6040519080825280601f01601f1916602001820160405280156102765781602001600182028036833780820191505090505b509050600091505b60038260ff161080156102d05750600060f81b848360ff16600381106102a7576102a6610da8565b5b1a60f81b7effffffffffffffffffffffffffffffffffffffffffffffffffffffffffffff191614155b1561034757838260ff16600381106102eb576102ea610da8565b5b1a60f81b818360ff168151811061030557610304610da8565b5b60200101907effffffffffffffffffffffffffffffffffffffffffffffffffffffffffffff1916908160001a905350818061033f90610e06565b92505061027e565b8092505050919050565b6060600060078360ff16901c905060008160ff16036103a8576040518060400160405280600d81526020017f4672656520436c696d62696e670000000000000000000000000000000000000081525091505061042c565b60018160ff16036103f1576040518060400160405280600a81526020017f426f756c646572696e670000000000000000000000000000000000000000000081525091505061042c565b6040517f08c379a000000000000000000000000000000000000000000000000000000000815260040161042390610eaa565b60405180910390fd5b919050565b6060600060078360ff16901c90506000600760018560ff16901b60ff16901c905060008260ff160361052c5760008160ff16036104a7576040518060400160405280600381526020017f594453000000000000000000000000000000000000000000000000000000000081525092505050610641565b60018160ff16036104f1576040518060400160405280600681526020017f4672656e6368000000000000000000000000000000000000000000000000000081525092505050610641565b6040517f08c379a000000000000000000000000000000000000000000000000000000000815260040161052390610eaa565b60405180910390fd5b60018260ff16036106065760008160ff1603610581576040518060400160405280600581526020017f487565636f00000000000000000000000000000000000000000000000000000081525092505050610641565b60018160ff16036105cb576040518060400160405280600681526020017f4672656e6368000000000000000000000000000000000000000000000000000081525092505050610641565b6040517f08c379a00000000000000000000000000000000000000000000000000000000081526004016105fd90610eaa565b60405180910390fd5b6040517f08c379a000000000000000000000000000000000000000000000000000000000815260040161063890610eaa565b60405180910390fd5b919050565b6060600060078360ff16901c90506000600760018560ff16901b60ff16901c905060006002808660ff16901b60ff16901c905060008360ff16036107e55760008260ff16036107175760228160ff16106106d5576040517f08c379a00000000000000000000000000000000000000000000000000000000081526004016106cc90610ef0565b60405180910390fd5b61070d60008260ff16602281106106ef576106ee610da8565b5b600691828204019190066005029054906101000a900460d81b610991565b935050505061098c565b60018260ff16036107aa5760148160ff1610610768576040517f08c379a000000000000000000000000000000000000000000000000000000000815260040161075f90610ef0565b60405180910390fd5b6107a060068260ff166014811061078257610781610da8565b5b600a91828204019190066003029054906101000a900460e81b6101b6565b935050505061098c565b6040517f08c379a00000000000000000000000000000000000000000000000000000000081526004016107dc90610eaa565b60405180910390fd5b60018360ff16036109515760008260ff16036108835760138160ff1610610841576040517f08c379a000000000000000000000000000000000000000000000000000000000815260040161083890610ef0565b60405180910390fd5b61087960088260ff166013811061085b5761085a610da8565b5b600a91828204019190066003029054906101000a900460e81b6101b6565b935050505061098c565b60018260ff16036109165760178160ff16106108d4576040517f08c379a00000000000000000000000000000000000000000000000000000000081526004016108cb90610ef0565b60405180910390fd5b61090c600a8260ff16601781106108ee576108ed610da8565b5b600a91828204019190066003029054906101000a900460e81b6101b6565b935050505061098c565b6040517f08c379a000000000000000000000000000000000000000000000000000000000815260040161094890610eaa565b60405180910390fd5b6040517f08c379a000000000000000000000000000000000000000000000000000000000815260040161098390610eaa565b60405180910390fd5b919050565b606060005b60058160ff161080156109e85750600060f81b838260ff16600581106109bf576109be610da8565b5b1a60f81b7effffffffffffffffffffffffffffffffffffffffffffffffffffffffffffff191614155b15610a005780806109f890610e06565b915050610996565b60008160ff1667ffffffffffffffff811115610a1f57610a1e610e2f565b5b6040519080825280601f01601f191660200182016040528015610a515781602001600182028036833780820191505090505b509050600091505b60058260ff16108015610aab5750600060f81b848360ff1660058110610a8257610a81610da8565b5b1a60f81b7effffffffffffffffffffffffffffffffffffffffffffffffffffffffffffff191614155b15610b2257838260ff1660058110610ac657610ac5610da8565b5b1a60f81b818360ff1681518110610ae057610adf610da8565b5b60200101907effffffffffffffffffffffffffffffffffffffffffffffffffffffffffffff1916908160001a9053508180610b1a90610e06565b925050610a59565b8092505050919050565b600080fd5b600060ff82169050919050565b610b4781610b31565b8114610b5257600080fd5b50565b600081359050610b6481610b3e565b92915050565b600060208284031215610b8057610b7f610b2c565b5b6000610b8e84828501610b55565b91505092915050565b600081519050919050565b600082825260208201905092915050565b60005b83811015610bd1578082015181840152602081019050610bb6565b83811115610be0576000848401525b50505050565b6000601f19601f8301169050919050565b6000610c0282610b97565b610c0c8185610ba2565b9350610c1c818560208601610bb3565b610c2581610be6565b840191505092915050565b60006060820190508181036000830152610c4a8186610bf7565b90508181036020830152610c5e8185610bf7565b90508181036040830152610c728184610bf7565b9050949350505050565b60007fffffff000000000000000000000000000000000000000000000000000000000082169050919050565b610cb181610c7c565b8114610cbc57600080fd5b50565b600081359050610cce81610ca8565b92915050565b600060208284031215610cea57610ce9610b2c565b5b6000610cf884828501610cbf565b91505092915050565b60006020820190508181036000830152610d1b8184610bf7565b905092915050565b60007fffffffffff00000000000000000000000000000000000000000000000000000082169050919050565b610d5881610d23565b8114610d6357600080fd5b50565b600081359050610d7581610d4f565b92915050565b600060208284031215610d9157610d90610b2c565b5b6000610d9f84828501610d66565b91505092915050565b7f4e487b7100000000000000000000000000000000000000000000000000000000600052603260045260246000fd5b7f4e487b7100000000000000000000000000000000000000000000000000000000600052601160045260246000fd5b6000610e1182610b31565b915060ff8203610e2457610e23610dd7565b5b600182019050919050565b7f4e487b7100000000000000000000000000000000000000000000000000000000600052604160045260246000fd5b7f6572726f72000000000000000000000000000000000000000000000000000000600082015250565b6000610e94600583610ba2565b9150610e9f82610e5e565b602082019050919050565b60006020820190508181036000830152610ec381610e87565b9050919050565b50565b6000610eda600083610ba2565b9150610ee582610eca565b600082019050919050565b60006020820190508181036000830152610f0981610ecd565b905091905056fea2646970667358221220a5ee7f60bfc614e8181e02d52a03e4b21c22d3a50d9bc604f295a68dbd1fcdc164736f6c634300080f0033",
  "immutableReferences": {},
  "source": "// SPDX-License-Identifier: MIT\r\npragma solidity ^0.8.8;\r\npragma experimental ABIEncoderV2;\r\n/*  This Contract contains free climbing and bouldering grading system scales and is intended\r\n    as a public interface exposing readable data to user facing components\r\n*/\r\ncontract ScalesData {\r\n    // SCALES DATA\r\n    // Yosemite Decimal System\r\n    bytes5[34] YDS = [\r\n    bytes5(\"5.0\"),\r\n    bytes5(\"5.1\"),\r\n    bytes5(\"5.2\"),\r\n    bytes5(\"5.3\"),\r\n    bytes5(\"5.4\"),\r\n    bytes5(\"5.5\"),\r\n    bytes5(\"5.6\"),\r\n    bytes5(\"5.7\"),\r\n    bytes5(\"5.8\"),\r\n    bytes5(\"5.9\"),\r\n    bytes5(\"5.10a\"),\r\n    bytes5(\"5.10b\"),\r\n    bytes5(\"5.10c\"),\r\n    bytes5(\"5.10d\"),\r\n    bytes5(\"5.11a\"),\r\n    bytes5(\"5.11b\"),\r\n    bytes5(\"5.11c\"),\r\n    bytes5(\"5.11d\"),\r\n    bytes5(\"5.12a\"),\r\n    bytes5(\"5.12b\"),\r\n    bytes5(\"5.12c\"),\r\n    bytes5(\"5.12d\"),\r\n    bytes5(\"5.13a\"),\r\n    bytes5(\"5.13b\"),\r\n    bytes5(\"5.13c\"),\r\n    bytes5(\"5.13d\"),\r\n    bytes5(\"5.14a\"),\r\n    bytes5(\"5.14b\"),\r\n    bytes5(\"5.14c\"),\r\n    bytes5(\"5.14d\"),\r\n    bytes5(\"5.15a\"),\r\n    bytes5(\"5.15b\"),\r\n    bytes5(\"5.15c\"),\r\n    bytes5(\"5.15d\")\r\n    ];\r\n\r\n    // French Numerical Grading\r\n    bytes3[20] FRENCH = [\r\n    bytes3(\"1\"),\r\n    bytes3(\"2\"),\r\n    bytes3(\"3\"),\r\n    bytes3(\"3+\"),\r\n    bytes3(\"4a\"),\r\n    bytes3(\"4b\"),\r\n    bytes3(\"4c\"),\r\n    bytes3(\"5a\"),\r\n    bytes3(\"5b\"),\r\n    bytes3(\"5c\"),\r\n    bytes3(\"6a\"),\r\n    bytes3(\"6a+\"),\r\n    bytes3(\"6b\"),\r\n    bytes3(\"6b+\"),\r\n    bytes3(\"6c\"),\r\n    bytes3(\"6c+\"),\r\n    bytes3(\"7a\"),\r\n    bytes3(\"7a+\"),\r\n    bytes3(\"7b\"),\r\n    bytes3(\"7b+\")\r\n    ];\r\n\r\n    // Hueco System / V-Scale\r\n    bytes3[19] HUECO = [\r\n    bytes3(\"VB\"),\r\n    bytes3(\"V0\"),\r\n    bytes3(\"V1\"),\r\n    bytes3(\"V2\"),\r\n    bytes3(\"V3\"),\r\n    bytes3(\"V4\"),\r\n    bytes3(\"V5\"),\r\n    bytes3(\"V6\"),\r\n    bytes3(\"V7\"),\r\n    bytes3(\"V8\"),\r\n    bytes3(\"V9\"),\r\n    bytes3(\"V10\"),\r\n    bytes3(\"V11\"),\r\n    bytes3(\"V12\"),\r\n    bytes3(\"V13\"),\r\n    bytes3(\"V14\"),\r\n    bytes3(\"V15\"),\r\n    bytes3(\"V16\"),\r\n    bytes3(\"V17\")\r\n    ];\r\n\r\n    // FontaineBleau / French Bouldering Scale\r\n    bytes3[23] FB = [\r\n    bytes3(\"3\"),\r\n    bytes3(\"4\"),\r\n    bytes3(\"5\"),\r\n    bytes3(\"5+\"),\r\n    bytes3(\"6a\"),\r\n    bytes3(\"6a+\"),\r\n    bytes3(\"6b\"),\r\n    bytes3(\"6b+\"),\r\n    bytes3(\"6c\"),\r\n    bytes3(\"6c+\"),\r\n    bytes3(\"7a\"),\r\n    bytes3(\"7a+\"),\r\n    bytes3(\"7b\"),\r\n    bytes3(\"7b+\"),\r\n    bytes3(\"7c\"),\r\n    bytes3(\"7c+\"),\r\n    bytes3(\"8a\"),\r\n    bytes3(\"8a+\"),\r\n    bytes3(\"8b\"),\r\n    bytes3(\"8b+\"),\r\n    bytes3(\"8c\"),\r\n    bytes3(\"8c+\"),\r\n    bytes3(\"9a\")\r\n    ];\r\n\r\n    function bytes5ToString(bytes5 _bytes5) public pure returns (string memory) {\r\n        uint8 i = 0;\r\n        while(i < 5 && _bytes5[i] != 0) {\r\n            i++;\r\n        }\r\n        bytes memory bytesArray = new bytes(i);\r\n        for (i = 0; i < 5 && _bytes5[i] != 0; i++) {\r\n            bytesArray[i] = _bytes5[i];\r\n        }\r\n        return string(bytesArray);\r\n    }\r\n\r\n    function bytes3ToString(bytes3 _bytes3) public pure returns (string memory) {\r\n        uint8 i = 0;\r\n        while(i < 3 && _bytes3[i] != 0) {\r\n            i++;\r\n        }\r\n        bytes memory bytesArray = new bytes(i);\r\n        for (i = 0; i < 3 && _bytes3[i] != 0; i++) {\r\n            bytesArray[i] = _bytes3[i];\r\n        }\r\n        return string(bytesArray);\r\n    }\r\n\r\n    function getDiscipline(uint8 q) public view returns (string memory) {\r\n        uint8 discipline = q>>7;\r\n        if(discipline == 0){\r\n            return \"Free Climbing\";\r\n        } else if(discipline == 1){\r\n            return \"Bouldering\";\r\n        } else{\r\n            revert(\"error\");\r\n        }\r\n    }\r\n\r\n    function getScale(uint8 q) public view returns (string memory) {\r\n        uint8 discipline = q>>7;\r\n        uint8 scale = q<<1>>7;\r\n        if(discipline == 0){\r\n            if(scale == 0){\r\n                return \"YDS\";\r\n            } else if(scale == 1) {\r\n                return \"French\";\r\n            } else {\r\n                revert(\"error\");\r\n            }\r\n        } else if(discipline == 1){\r\n            if(scale == 0){\r\n                return \"Hueco\";\r\n            } else if(scale == 1) {\r\n                return \"French\";\r\n            } else {\r\n                revert(\"error\");\r\n            }\r\n        } else {\r\n            revert(\"error\");\r\n        }\r\n    }\r\n\r\n    function getGrade(uint8 q) public view returns (string memory) {\r\n        uint8 discipline = q>>7;\r\n        uint8 scale = q<<1>>7;\r\n        uint8 grade = q<<2>>2;\r\n        if(discipline == 0){\r\n            if(scale == 0){\r\n                require(grade < YDS.length ,\"\");\r\n                return bytes5ToString(YDS[grade]);\r\n            } else if(scale == 1) {\r\n                require(grade < FRENCH.length ,\"\");\r\n                return bytes3ToString(FRENCH[grade]);\r\n            } else {\r\n                revert(\"error\");\r\n            }\r\n        } else if(discipline == 1){\r\n            if(scale == 0){\r\n                require(grade < HUECO.length ,\"\");\r\n                return bytes3ToString(HUECO[grade]);\r\n            } else if(scale == 1) {\r\n                require(grade < FB.length ,\"\");\r\n                return bytes3ToString(FB[grade]);\r\n            } else {\r\n                revert(\"error\");\r\n            }\r\n        } else {\r\n            revert(\"error\");\r\n        }\r\n    }\r\n\r\n    function getAll(uint8 q) public view returns (string memory,string memory,string memory) {\r\n        return(getDiscipline(q),getScale(q),getGrade(q));\r\n    }\r\n}",
  "sourcePath": "C:\\Users\\Tino\\Google Drive\\Docs\\UChile\\MEMORIA\\DEV\\dapp\\contracts\\ScalesData.sol",
  "compiler": {
    "name": "solc",
    "version": "0.8.15+commit.e14f2714.Emscripten.clang"
  },
  "schemaVersion": "3.4.7",
  "updatedAt": "2022-07-05T11:02:58.009Z",
  "networkType": "ethereum",
  "devdoc": {
    "kind": "dev",
    "methods": {},
    "version": 1
  },
  "userdoc": {
    "kind": "user",
    "methods": {},
    "version": 1
  }
}