{
  "contractName": "SectorData",
  "abi": [
    {
      "inputs": [
        {
          "internalType": "bytes",
          "name": "_name",
          "type": "bytes"
        },
        {
          "internalType": "int24",
          "name": "_latitude",
          "type": "int24"
        },
        {
          "internalType": "int32",
          "name": "_longitude",
          "type": "int32"
        },
        {
          "internalType": "address",
          "name": "_catalog",
          "type": "address"
        }
      ],
      "stateMutability": "nonpayable",
      "type": "constructor"
    },
    {
      "inputs": [],
      "name": "description",
      "outputs": [
        {
          "internalType": "bytes32",
          "name": "",
          "type": "bytes32"
        }
      ],
      "stateMutability": "view",
      "type": "function"
    },
    {
      "inputs": [],
      "name": "name",
      "outputs": [
        {
          "internalType": "bytes32",
          "name": "",
          "type": "bytes32"
        }
      ],
      "stateMutability": "view",
      "type": "function"
    },
    {
      "inputs": [
        {
          "internalType": "uint256",
          "name": "",
          "type": "uint256"
        }
      ],
      "name": "routes",
      "outputs": [
        {
          "internalType": "contract SimpleRouteData",
          "name": "",
          "type": "address"
        }
      ],
      "stateMutability": "view",
      "type": "function"
    },
    {
      "inputs": [
        {
          "internalType": "address",
          "name": "_user",
          "type": "address"
        }
      ],
      "name": "assignAdmin",
      "outputs": [],
      "stateMutability": "nonpayable",
      "type": "function"
    },
    {
      "inputs": [
        {
          "internalType": "address",
          "name": "_user",
          "type": "address"
        }
      ],
      "name": "removeAdmin",
      "outputs": [],
      "stateMutability": "nonpayable",
      "type": "function"
    },
    {
      "inputs": [
        {
          "internalType": "address",
          "name": "_new",
          "type": "address"
        }
      ],
      "name": "addRoute",
      "outputs": [
        {
          "internalType": "uint256",
          "name": "n_routes",
          "type": "uint256"
        }
      ],
      "stateMutability": "nonpayable",
      "type": "function"
    },
    {
      "inputs": [
        {
          "internalType": "address",
          "name": "_target",
          "type": "address"
        }
      ],
      "name": "findRoute",
      "outputs": [
        {
          "internalType": "uint256",
          "name": "index",
          "type": "uint256"
        }
      ],
      "stateMutability": "view",
      "type": "function"
    },
    {
      "inputs": [
        {
          "internalType": "address",
          "name": "_rm",
          "type": "address"
        }
      ],
      "name": "delRoute",
      "outputs": [
        {
          "internalType": "uint256",
          "name": "n_routes",
          "type": "uint256"
        }
      ],
      "stateMutability": "nonpayable",
      "type": "function"
    },
    {
      "inputs": [
        {
          "internalType": "uint256",
          "name": "_index",
          "type": "uint256"
        }
      ],
      "name": "delRoute_i",
      "outputs": [
        {
          "internalType": "uint256",
          "name": "n_routes",
          "type": "uint256"
        }
      ],
      "stateMutability": "nonpayable",
      "type": "function"
    },
    {
      "inputs": [
        {
          "internalType": "bytes",
          "name": "_newd",
          "type": "bytes"
        }
      ],
      "name": "setDescription",
      "outputs": [],
      "stateMutability": "nonpayable",
      "type": "function"
    },
    {
      "inputs": [],
      "name": "getRoutes",
      "outputs": [
        {
          "internalType": "contract SimpleRouteData[]",
          "name": "",
          "type": "address[]"
        }
      ],
      "stateMutability": "view",
      "type": "function"
    },
    {
      "inputs": [],
      "name": "getDescription",
      "outputs": [
        {
          "internalType": "bytes32",
          "name": "",
          "type": "bytes32"
        }
      ],
      "stateMutability": "view",
      "type": "function"
    }
  ],
  "bytecode": "0x60806040523480156200001157600080fd5b5060405162001fe038038062001fe08339818101604052810190620000379190620003e1565b6020845111156200007f576040517f08c379a00000000000000000000000000000000000000000000000000000000081526004016200007690620004f9565b60405180910390fd5b33600560006101000a81548173ffffffffffffffffffffffffffffffffffffffff021916908373ffffffffffffffffffffffffffffffffffffffff16021790555083620000cc9062000564565b60028190555082600660186101000a81548162ffffff021916908360020b62ffffff16021790555081600660146101000a81548163ffffffff021916908360030b63ffffffff16021790555080600660006101000a81548173ffffffffffffffffffffffffffffffffffffffff021916908373ffffffffffffffffffffffffffffffffffffffff16021790555050505050620005d4565b6000604051905090565b600080fd5b600080fd5b600080fd5b600080fd5b6000601f19601f8301169050919050565b7f4e487b7100000000000000000000000000000000000000000000000000000000600052604160045260246000fd5b620001cc8262000181565b810181811067ffffffffffffffff82111715620001ee57620001ed62000192565b5b80604052505050565b60006200020362000163565b9050620002118282620001c1565b919050565b600067ffffffffffffffff82111562000234576200023362000192565b5b6200023f8262000181565b9050602081019050919050565b60005b838110156200026c5780820151818401526020810190506200024f565b838111156200027c576000848401525b50505050565b600062000299620002938462000216565b620001f7565b905082815260208101848484011115620002b857620002b76200017c565b5b620002c58482856200024c565b509392505050565b600082601f830112620002e557620002e462000177565b5b8151620002f784826020860162000282565b91505092915050565b60008160020b9050919050565b620003188162000300565b81146200032457600080fd5b50565b60008151905062000338816200030d565b92915050565b60008160030b9050919050565b62000356816200033e565b81146200036257600080fd5b50565b60008151905062000376816200034b565b92915050565b600073ffffffffffffffffffffffffffffffffffffffff82169050919050565b6000620003a9826200037c565b9050919050565b620003bb816200039c565b8114620003c757600080fd5b50565b600081519050620003db81620003b0565b92915050565b60008060008060808587031215620003fe57620003fd6200016d565b5b600085015167ffffffffffffffff8111156200041f576200041e62000172565b5b6200042d87828801620002cd565b9450506020620004408782880162000327565b9350506040620004538782880162000365565b92505060606200046687828801620003ca565b91505092959194509250565b600082825260208201905092915050565b7f536563746f72206e616d6520746f6f206c6f6e6721204d6178206c656e67746860008201527f3a20333200000000000000000000000000000000000000000000000000000000602082015250565b6000620004e160248362000472565b9150620004ee8262000483565b604082019050919050565b600060208201905081810360008301526200051481620004d2565b9050919050565b600081519050919050565b6000819050602082019050919050565b6000819050919050565b60006200054e825162000536565b80915050919050565b600082821b905092915050565b600062000571826200051b565b826200057d8462000526565b90506200058a8162000540565b92506020821015620005cd57620005c87fffffffffffffffffffffffffffffffffffffffffffffffffffffffffffffffff8360200360080262000557565b831692505b5050919050565b6119fc80620005e46000396000f3fe608060405234801561001057600080fd5b50600436106100b45760003560e01c80635a8b05dd116100715780635a8b05dd1461018d578063726f16d8146101bd5780637284e416146101ed5780637e9280721461020b5780638c95ff1e14610229578063aaa58f6514610259576100b4565b806306fdde03146100b95780631785f53c146100d75780631a092541146100f357806336d0e6e5146101115780633b1087f5146101415780633da7d2ed14610171575b600080fd5b6100c1610275565b6040516100ce9190611045565b60405180910390f35b6100f160048036038101906100ec91906110d2565b61027b565b005b6100fb6103f2565b6040516101089190611045565b60405180910390f35b61012b60048036038101906101269190611135565b6103fc565b6040516101389190611171565b60405180910390f35b61015b600480360381019061015691906110d2565b61065a565b6040516101689190611171565b60405180910390f35b61018b600480360381019061018691906110d2565b6109c4565b005b6101a760048036038101906101a291906110d2565b610b3b565b6040516101b49190611171565b60405180910390f35b6101d760048036038101906101d29190611135565b610c81565b6040516101e491906111eb565b60405180910390f35b6101f5610cc0565b6040516102029190611045565b60405180910390f35b610213610cc6565b60405161022091906112c4565b60405180910390f35b610243600480360381019061023e91906110d2565b610d54565b6040516102509190611171565b60405180910390f35b610273600480360381019061026e919061142c565b610f44565b005b60025481565b600560009054906101000a900473ffffffffffffffffffffffffffffffffffffffff1673ffffffffffffffffffffffffffffffffffffffff163373ffffffffffffffffffffffffffffffffffffffff161461030b576040517f08c379a0000000000000000000000000000000000000000000000000000000008152600401610302906114f8565b60405180910390fd5b600160008273ffffffffffffffffffffffffffffffffffffffff1673ffffffffffffffffffffffffffffffffffffffff16815260200190815260200160002060009054906101000a900460ff16610397576040517f08c379a000000000000000000000000000000000000000000000000000000000815260040161038e9061158a565b60405180910390fd5b6000600160008373ffffffffffffffffffffffffffffffffffffffff1673ffffffffffffffffffffffffffffffffffffffff16815260200190815260200160002060006101000a81548160ff02191690831515021790555050565b6000600354905090565b6000600560009054906101000a900473ffffffffffffffffffffffffffffffffffffffff1673ffffffffffffffffffffffffffffffffffffffff163373ffffffffffffffffffffffffffffffffffffffff161461048e576040517f08c379a0000000000000000000000000000000000000000000000000000000008152600401610485906114f8565b60405180910390fd5b60048054905090508082106104d8576040517f08c379a00000000000000000000000000000000000000000000000000000000081526004016104cf906115f6565b60405180910390fd5b60046001826104e79190611645565b815481106104f8576104f7611679565b5b9060005260206000200160009054906101000a900473ffffffffffffffffffffffffffffffffffffffff166004838154811061053757610536611679565b5b9060005260206000200160006101000a81548173ffffffffffffffffffffffffffffffffffffffff021916908373ffffffffffffffffffffffffffffffffffffffff160217905550816000806004858154811061059757610596611679565b5b9060005260206000200160009054906101000a900473ffffffffffffffffffffffffffffffffffffffff1673ffffffffffffffffffffffffffffffffffffffff1673ffffffffffffffffffffffffffffffffffffffff168152602001908152602001600020819055506004805480610612576106116116a8565b5b6001900381819060005260206000200160006101000a81549073ffffffffffffffffffffffffffffffffffffffff021916905590558080610652906116d7565b915050919050565b6000600560009054906101000a900473ffffffffffffffffffffffffffffffffffffffff1673ffffffffffffffffffffffffffffffffffffffff163373ffffffffffffffffffffffffffffffffffffffff1614806107015750600160003373ffffffffffffffffffffffffffffffffffffffff1673ffffffffffffffffffffffffffffffffffffffff16815260200190815260200160002060009054906101000a900460ff165b610740576040517f08c379a0000000000000000000000000000000000000000000000000000000008152600401610737906114f8565b60405180910390fd5b600480549050905060008060008473ffffffffffffffffffffffffffffffffffffffff1673ffffffffffffffffffffffffffffffffffffffff16815260200190815260200160002054905060008103610841578273ffffffffffffffffffffffffffffffffffffffff1660046000815481106107bf576107be611679565b5b9060005260206000200160009054906101000a900473ffffffffffffffffffffffffffffffffffffffff1673ffffffffffffffffffffffffffffffffffffffff1614610840576040517f08c379a0000000000000000000000000000000000000000000000000000000008152600401610837906115f6565b60405180910390fd5b5b60046001836108509190611645565b8154811061086157610860611679565b5b9060005260206000200160009054906101000a900473ffffffffffffffffffffffffffffffffffffffff16600482815481106108a05761089f611679565b5b9060005260206000200160006101000a81548173ffffffffffffffffffffffffffffffffffffffff021916908373ffffffffffffffffffffffffffffffffffffffff1602179055508060008060048481548110610900576108ff611679565b5b9060005260206000200160009054906101000a900473ffffffffffffffffffffffffffffffffffffffff1673ffffffffffffffffffffffffffffffffffffffff1673ffffffffffffffffffffffffffffffffffffffff16815260200190815260200160002081905550600480548061097b5761097a6116a8565b5b6001900381819060005260206000200160006101000a81549073ffffffffffffffffffffffffffffffffffffffff0219169055905581806109bb906116d7565b92505050919050565b600560009054906101000a900473ffffffffffffffffffffffffffffffffffffffff1673ffffffffffffffffffffffffffffffffffffffff163373ffffffffffffffffffffffffffffffffffffffff1614610a54576040517f08c379a0000000000000000000000000000000000000000000000000000000008152600401610a4b906114f8565b60405180910390fd5b600160008273ffffffffffffffffffffffffffffffffffffffff1673ffffffffffffffffffffffffffffffffffffffff16815260200190815260200160002060009054906101000a900460ff1615610ae1576040517f08c379a0000000000000000000000000000000000000000000000000000000008152600401610ad890611772565b60405180910390fd5b60018060008373ffffffffffffffffffffffffffffffffffffffff1673ffffffffffffffffffffffffffffffffffffffff16815260200190815260200160002060006101000a81548160ff02191690831515021790555050565b600060016004805490501015610b86576040517f08c379a0000000000000000000000000000000000000000000000000000000008152600401610b7d906117de565b60405180910390fd5b6000808373ffffffffffffffffffffffffffffffffffffffff1673ffffffffffffffffffffffffffffffffffffffff16815260200190815260200160002054905060008103610c7c578173ffffffffffffffffffffffffffffffffffffffff1660048281548110610bfa57610bf9611679565b5b9060005260206000200160009054906101000a900473ffffffffffffffffffffffffffffffffffffffff1673ffffffffffffffffffffffffffffffffffffffff1614610c7b576040517f08c379a0000000000000000000000000000000000000000000000000000000008152600401610c72906115f6565b60405180910390fd5b5b919050565b60048181548110610c9157600080fd5b906000526020600020016000915054906101000a900473ffffffffffffffffffffffffffffffffffffffff1681565b60035481565b60606004805480602002602001604051908101604052809291908181526020018280548015610d4a57602002820191906000526020600020905b8160009054906101000a900473ffffffffffffffffffffffffffffffffffffffff1673ffffffffffffffffffffffffffffffffffffffff1681526020019060010190808311610d00575b5050505050905090565b6000600560009054906101000a900473ffffffffffffffffffffffffffffffffffffffff1673ffffffffffffffffffffffffffffffffffffffff163373ffffffffffffffffffffffffffffffffffffffff161480610dfb5750600160003373ffffffffffffffffffffffffffffffffffffffff1673ffffffffffffffffffffffffffffffffffffffff16815260200190815260200160002060009054906101000a900460ff165b610e3a576040517f08c379a0000000000000000000000000000000000000000000000000000000008152600401610e31906114f8565b60405180910390fd5b6000610e4583610b3b565b10610e85576040517f08c379a0000000000000000000000000000000000000000000000000000000008152600401610e7c90611870565b60405180910390fd5b6004829080600181540180825580915050600190039060005260206000200160009091909190916101000a81548173ffffffffffffffffffffffffffffffffffffffff021916908373ffffffffffffffffffffffffffffffffffffffff1602179055506004805490509050600181610efd9190611645565b6000808473ffffffffffffffffffffffffffffffffffffffff1673ffffffffffffffffffffffffffffffffffffffff16815260200190815260200160002081905550919050565b600560009054906101000a900473ffffffffffffffffffffffffffffffffffffffff1673ffffffffffffffffffffffffffffffffffffffff163373ffffffffffffffffffffffffffffffffffffffff1614610fd4576040517f08c379a0000000000000000000000000000000000000000000000000000000008152600401610fcb906114f8565b60405180910390fd5b602081511115611019576040517f08c379a000000000000000000000000000000000000000000000000000000000815260040161101090611902565b60405180910390fd5b806110239061195f565b60038190555050565b6000819050919050565b61103f8161102c565b82525050565b600060208201905061105a6000830184611036565b92915050565b6000604051905090565b600080fd5b600080fd5b600073ffffffffffffffffffffffffffffffffffffffff82169050919050565b600061109f82611074565b9050919050565b6110af81611094565b81146110ba57600080fd5b50565b6000813590506110cc816110a6565b92915050565b6000602082840312156110e8576110e761106a565b5b60006110f6848285016110bd565b91505092915050565b6000819050919050565b611112816110ff565b811461111d57600080fd5b50565b60008135905061112f81611109565b92915050565b60006020828403121561114b5761114a61106a565b5b600061115984828501611120565b91505092915050565b61116b816110ff565b82525050565b60006020820190506111866000830184611162565b92915050565b6000819050919050565b60006111b16111ac6111a784611074565b61118c565b611074565b9050919050565b60006111c382611196565b9050919050565b60006111d5826111b8565b9050919050565b6111e5816111ca565b82525050565b600060208201905061120060008301846111dc565b92915050565b600081519050919050565b600082825260208201905092915050565b6000819050602082019050919050565b61123b816111ca565b82525050565b600061124d8383611232565b60208301905092915050565b6000602082019050919050565b600061127182611206565b61127b8185611211565b935061128683611222565b8060005b838110156112b757815161129e8882611241565b97506112a983611259565b92505060018101905061128a565b5085935050505092915050565b600060208201905081810360008301526112de8184611266565b905092915050565b600080fd5b600080fd5b6000601f19601f8301169050919050565b7f4e487b7100000000000000000000000000000000000000000000000000000000600052604160045260246000fd5b611339826112f0565b810181811067ffffffffffffffff8211171561135857611357611301565b5b80604052505050565b600061136b611060565b90506113778282611330565b919050565b600067ffffffffffffffff82111561139757611396611301565b5b6113a0826112f0565b9050602081019050919050565b82818337600083830152505050565b60006113cf6113ca8461137c565b611361565b9050828152602081018484840111156113eb576113ea6112eb565b5b6113f68482856113ad565b509392505050565b600082601f830112611413576114126112e6565b5b81356114238482602086016113bc565b91505092915050565b6000602082840312156114425761144161106a565b5b600082013567ffffffffffffffff8111156114605761145f61106f565b5b61146c848285016113fe565b91505092915050565b600082825260208201905092915050565b7f596f7520646f6e27742068617665207065726d697373696f6e7320746f20657860008201527f656375746520746869732066756e6374696f6e205b6f776e65725d0000000000602082015250565b60006114e2603b83611475565b91506114ed82611486565b604082019050919050565b60006020820190508181036000830152611511816114d5565b9050919050565b7f54686973206164647265737320646f6573206e6f7420686176652061646d696e60008201527f2070726976696c65676573000000000000000000000000000000000000000000602082015250565b6000611574602b83611475565b915061157f82611518565b604082019050919050565b600060208201905081810360008301526115a381611567565b9050919050565b7f526f757465206e6f7420666f756e640000000000000000000000000000000000600082015250565b60006115e0600f83611475565b91506115eb826115aa565b602082019050919050565b6000602082019050818103600083015261160f816115d3565b9050919050565b7f4e487b7100000000000000000000000000000000000000000000000000000000600052601160045260246000fd5b6000611650826110ff565b915061165b836110ff565b92508282101561166e5761166d611616565b5b828203905092915050565b7f4e487b7100000000000000000000000000000000000000000000000000000000600052603260045260246000fd5b7f4e487b7100000000000000000000000000000000000000000000000000000000600052603160045260246000fd5b60006116e2826110ff565b9150600082036116f5576116f4611616565b5b600182039050919050565b7f54686973206164647265737320616c7265616479206861732061646d696e207060008201527f726976696c656765730000000000000000000000000000000000000000000000602082015250565b600061175c602983611475565b915061176782611700565b604082019050919050565b6000602082019050818103600083015261178b8161174f565b9050919050565b7f4e6f20726f7574657320696e20736563746f7200000000000000000000000000600082015250565b60006117c8601383611475565b91506117d382611792565b602082019050919050565b600060208201905081810360008301526117f7816117bb565b9050919050565b7f5468697320726f75746520697320616c726561647920696e207468697320536560008201527f63746f722e000000000000000000000000000000000000000000000000000000602082015250565b600061185a602583611475565b9150611865826117fe565b604082019050919050565b600060208201905081810360008301526118898161184d565b9050919050565b7f4465736372697074696f6e20746f6f206c6f6e6721204d6178206c656e67746860008201527f3a20333200000000000000000000000000000000000000000000000000000000602082015250565b60006118ec602483611475565b91506118f782611890565b604082019050919050565b6000602082019050818103600083015261191b816118df565b9050919050565b600081519050919050565b6000819050602082019050919050565b6000611949825161102c565b80915050919050565b600082821b905092915050565b600061196a82611922565b826119748461192d565b905061197f8161193d565b925060208210156119bf576119ba7fffffffffffffffffffffffffffffffffffffffffffffffffffffffffffffffff83602003600802611952565b831692505b505091905056fea26469706673582212201a81c6e14ae0b9818e3d0084735ba769eb72007edb766e1080f17f68da7fd5ad64736f6c634300080f0033",
  "immutableReferences": {},
  "source": "// SPDX-License-Identifier: MIT\r\npragma solidity ^0.8.8;\r\npragma experimental ABIEncoderV2;\r\n\r\nimport \"./SimpleRouteData.sol\";\r\n\r\ncontract SectorData {\r\n    mapping(address => uint256) routeIndex;\r\n\r\n    mapping(address => bool) admin;\r\n\r\n    bytes32 public name;\r\n\r\n    bytes32 public description;\r\n\r\n    SimpleRouteData[] public routes;\r\n    address owner;\r\n    address catalog;\r\n    int32 long;\r\n    int24 lat;\r\n\r\n\r\n    modifier isOwner() {\r\n        require(msg.sender == owner, \"You don't have permissions to execute this function [owner]\");\r\n        _;\r\n    }\r\n\r\n    modifier isAdmin() {\r\n        require(msg.sender == owner || admin[msg.sender], \"You don't have permissions to execute this function [owner]\");\r\n        _;\r\n    }\r\n\r\n    constructor(bytes memory _name, int24 _latitude, int32 _longitude, address _catalog) {\r\n        require(_name.length <= 32,\"Sector name too long! Max length: 32\");\r\n        owner = msg.sender;\r\n        name = bytes32(_name);\r\n        lat=_latitude;\r\n        long=_longitude;\r\n        catalog = _catalog;\r\n    }\r\n\r\n    function assignAdmin(address _user) external isOwner() {\r\n        require(!admin[_user],\r\n            \"This address already has admin privileges\");\r\n        admin[_user] = true;\r\n    }\r\n\r\n    function removeAdmin(address _user) external isOwner() {\r\n        require(admin[_user],\r\n            \"This address does not have admin privileges\");\r\n        admin[_user] = false;\r\n    }\r\n\r\n    function addRoute(address _new) public isAdmin returns (uint256 n_routes){\r\n        require(findRoute(_new) < 0, \"This route is already in this Sector.\");\r\n        routes.push(SimpleRouteData(_new));\r\n        n_routes = routes.length;\r\n        routeIndex[_new] = n_routes - 1;\r\n        return n_routes;\r\n    }\r\n\r\n    function findRoute(address _target) public view returns (uint256 index) {\r\n        require(routes.length >= 1,\"No routes in sector\");\r\n        index = routeIndex[_target];\r\n        if (index == 0) require(address(routes[index]) == _target,\"Route not found\");\r\n        return index;\r\n    }\r\n\r\n    function delRoute(address _rm) public isAdmin returns (uint256 n_routes){\r\n        n_routes = routes.length;\r\n        uint256 index = routeIndex[_rm];\r\n        if ( index == 0 ) require(address(routes[0]) == _rm,\"Route not found\");\r\n        routes[index] = routes[n_routes - 1];\r\n        routeIndex[address(routes[index])] = index;\r\n        routes.pop();\r\n        n_routes--;\r\n        return n_routes;\r\n    }\r\n\r\n    function delRoute_i(uint256 _index) public isOwner returns (uint256 n_routes){\r\n        n_routes = routes.length;\r\n        require(_index < n_routes,\"Route not found\");\r\n        routes[_index] = routes[n_routes - 1];\r\n        routeIndex[address(routes[_index])] = _index;\r\n        routes.pop();\r\n        n_routes--;\r\n        return n_routes;\r\n    }\r\n\r\n    // Set/Replace Sector Description. Max 512 characters.\r\n    function setDescription(bytes memory _newd) public isOwner {\r\n        require(_newd.length <= 32 ,\"Description too long! Max length: 32\");\r\n        description = bytes32(_newd);\r\n    }\r\n\r\n    function getRoutes() public view returns (SimpleRouteData[] memory) {\r\n        return routes;\r\n    }\r\n\r\n    function getDescription() public view returns (bytes32){\r\n        return description;\r\n    }\r\n}\r\n",
  "sourcePath": "C:\\Users\\Tino\\Google Drive\\Docs\\UChile\\MEMORIA\\DEV\\dapp\\contracts\\SectorData.sol",
  "compiler": {
    "name": "solc",
    "version": "0.8.15+commit.e14f2714.Emscripten.clang"
  },
  "schemaVersion": "3.4.7",
  "updatedAt": "2022-07-05T11:02:46.411Z",
  "devdoc": {
    "kind": "dev",
    "methods": {},
    "version": 1
  },
  "userdoc": {
    "kind": "user",
    "methods": {},
    "version": 1
  }
}