{
  "contractName": "SimpleRouteData",
  "abi": [
    {
      "inputs": [
        {
          "internalType": "bytes",
          "name": "_name",
          "type": "bytes"
        },
        {
          "internalType": "uint8",
          "name": "_discipline",
          "type": "uint8"
        },
        {
          "internalType": "uint8",
          "name": "_scale",
          "type": "uint8"
        },
        {
          "internalType": "uint8",
          "name": "_grade",
          "type": "uint8"
        },
        {
          "internalType": "int24",
          "name": "_latitude",
          "type": "int24"
        },
        {
          "internalType": "int32",
          "name": "_longitude",
          "type": "int32"
        }
      ],
      "stateMutability": "nonpayable",
      "type": "constructor"
    },
    {
      "inputs": [],
      "name": "getName",
      "outputs": [
        {
          "internalType": "bytes32",
          "name": "",
          "type": "bytes32"
        }
      ],
      "stateMutability": "view",
      "type": "function",
      "constant": true
    },
    {
      "inputs": [],
      "name": "getDiscipline",
      "outputs": [
        {
          "internalType": "uint8",
          "name": "",
          "type": "uint8"
        }
      ],
      "stateMutability": "view",
      "type": "function",
      "constant": true
    },
    {
      "inputs": [],
      "name": "getScale",
      "outputs": [
        {
          "internalType": "uint8",
          "name": "",
          "type": "uint8"
        }
      ],
      "stateMutability": "view",
      "type": "function",
      "constant": true
    },
    {
      "inputs": [],
      "name": "getGrade",
      "outputs": [
        {
          "internalType": "uint8",
          "name": "",
          "type": "uint8"
        }
      ],
      "stateMutability": "view",
      "type": "function",
      "constant": true
    },
    {
      "inputs": [],
      "name": "getLocation",
      "outputs": [
        {
          "internalType": "int24",
          "name": "",
          "type": "int24"
        },
        {
          "internalType": "int32",
          "name": "",
          "type": "int32"
        }
      ],
      "stateMutability": "view",
      "type": "function",
      "constant": true
    }
  ],
  "bytecode": "0x608060405234801561001057600080fd5b506040516107cf3803806107cf83398181016040528101906100329190610339565b602086511115610077576040517f08c379a000000000000000000000000000000000000000000000000000000000815260040161006e90610465565b60405180910390fd5b85610081906104cc565b600081905550600060078660ff16901b905060068560ff16901b81179050838117905080600160006101000a81548160ff021916908360ff160217905550826001806101000a81548162ffffff021916908360020b62ffffff16021790555081600160046101000a81548163ffffffff021916908360030b63ffffffff16021790555050505050505050610533565b6000604051905090565b600080fd5b600080fd5b600080fd5b600080fd5b6000601f19601f8301169050919050565b7f4e487b7100000000000000000000000000000000000000000000000000000000600052604160045260246000fd5b6101778261012e565b810181811067ffffffffffffffff821117156101965761019561013f565b5b80604052505050565b60006101a9610110565b90506101b5828261016e565b919050565b600067ffffffffffffffff8211156101d5576101d461013f565b5b6101de8261012e565b9050602081019050919050565b60005b838110156102095780820151818401526020810190506101ee565b83811115610218576000848401525b50505050565b600061023161022c846101ba565b61019f565b90508281526020810184848401111561024d5761024c610129565b5b6102588482856101eb565b509392505050565b600082601f83011261027557610274610124565b5b815161028584826020860161021e565b91505092915050565b600060ff82169050919050565b6102a48161028e565b81146102af57600080fd5b50565b6000815190506102c18161029b565b92915050565b60008160020b9050919050565b6102dd816102c7565b81146102e857600080fd5b50565b6000815190506102fa816102d4565b92915050565b60008160030b9050919050565b61031681610300565b811461032157600080fd5b50565b6000815190506103338161030d565b92915050565b60008060008060008060c087890312156103565761035561011a565b5b600087015167ffffffffffffffff8111156103745761037361011f565b5b61038089828a01610260565b965050602061039189828a016102b2565b95505060406103a289828a016102b2565b94505060606103b389828a016102b2565b93505060806103c489828a016102eb565b92505060a06103d589828a01610324565b9150509295509295509295565b600082825260208201905092915050565b7f526f757465206e616d6520746f6f206c6f6e6721204d6178206c656e6774683a60008201527f2033320000000000000000000000000000000000000000000000000000000000602082015250565b600061044f6023836103e2565b915061045a826103f3565b604082019050919050565b6000602082019050818103600083015261047e81610442565b9050919050565b600081519050919050565b6000819050602082019050919050565b6000819050919050565b60006104b682516104a0565b80915050919050565b600082821b905092915050565b60006104d782610485565b826104e184610490565b90506104ec816104aa565b9250602082101561052c576105277fffffffffffffffffffffffffffffffffffffffffffffffffffffffffffffffff836020036008026104bf565b831692505b5050919050565b61028d806105426000396000f3fe608060405234801561001057600080fd5b50600436106100575760003560e01c806317d7de7c1461005c57806346998f401461007a578063747655a514610098578063b5cddab8146100b6578063ce2ce3fc146100d4575b600080fd5b6100646100f3565b60405161007191906101a4565b60405180910390f35b6100826100fc565b60405161008f91906101db565b60405180910390f35b6100a0610120565b6040516100ad91906101db565b60405180910390f35b6100be61013e565b6040516100cb91906101db565b60405180910390f35b6100dc610162565b6040516100ea92919061022e565b60405180910390f35b60008054905090565b6000600280600160009054906101000a900460ff1660ff16901b60ff16901c905090565b60006007600160009054906101000a900460ff1660ff16901c905090565b6000600760018060009054906101000a900460ff1660ff16901b60ff16901c905090565b60008060018054906101000a900460020b600160049054906101000a900460030b915091509091565b6000819050919050565b61019e8161018b565b82525050565b60006020820190506101b96000830184610195565b92915050565b600060ff82169050919050565b6101d5816101bf565b82525050565b60006020820190506101f060008301846101cc565b92915050565b60008160020b9050919050565b61020c816101f6565b82525050565b60008160030b9050919050565b61022881610212565b82525050565b60006040820190506102436000830185610203565b610250602083018461021f565b939250505056fea2646970667358221220e75df65e874945e96426b8b22ad312827a1d5eafc266fb473e80a7308e14958664736f6c634300080f0033",
  "immutableReferences": {},
  "source": "// SPDX-License-Identifier: MIT\r\npragma solidity ^0.8.8;\r\npragma experimental ABIEncoderV2;\r\n\r\ncontract SimpleRouteData {\r\n\r\n    bytes32 name;\r\n    uint8 diff;\r\n    int24 lat;     // 5 decimals ; 11 cm accuracy ; [-83.88608,83.88608] (within northernmost and southernmost continental points range)\r\n    int32 long;   // 5 decimals ; 11 cm accuracy ; [-180.00000,180.00000]\r\n\r\n\r\n    constructor(bytes memory _name, uint8 _discipline, uint8 _scale, uint8 _grade, int24 _latitude, int32 _longitude) {\r\n        require(_name.length <= 32,\"Route name too long! Max length: 32\");\r\n\r\n        name = bytes32(_name);\r\n\r\n        uint8 temp_diff = _discipline<<7;\r\n        temp_diff |= _scale<<6;\r\n        temp_diff |= _grade;\r\n        diff = temp_diff;\r\n\r\n        lat = _latitude;\r\n        long = _longitude;\r\n    }\r\n\r\n    /*function bytes32ToString(bytes32 _bytes32) public pure returns (string memory) {\r\n        uint8 i = 0;\r\n        while(i < 32 && _bytes32[i] != 0) {\r\n            i++;\r\n        }\r\n        bytes memory bytesArray = new bytes(i);\r\n        for (i = 0; i < 32 && _bytes32[i] != 0; i++) {\r\n            bytesArray[i] = _bytes32[i];\r\n        }\r\n        return string(bytesArray);\r\n    }*/\r\n\r\n    function getName() external view returns (bytes32){\r\n        return name;\r\n    }\r\n\r\n    function getDiscipline() external view returns (uint8) {\r\n        return diff>>7;\r\n    }\r\n\r\n    function getScale() external view returns (uint8) {\r\n        return diff<<1>>7;\r\n    }\r\n\r\n    function getGrade() external view returns (uint8) {\r\n        return diff<<2>>2;\r\n    }\r\n\r\n    function getLocation() external view returns(int24,int32) {\r\n        return (lat,long);\r\n    }\r\n}\r\n\r\n",
  "sourcePath": "C:\\Users\\Tino\\Google Drive\\Docs\\UChile\\MEMORIA\\DEV\\dapp\\contracts\\SimpleRouteData.sol",
  "compiler": {
    "name": "solc",
    "version": "0.8.15+commit.e14f2714.Emscripten.clang"
  },
  "schemaVersion": "3.4.7",
  "updatedAt": "2022-07-05T11:03:02.600Z",
  "networkType": "ethereum",
  "devdoc": {
    "kind": "dev",
    "methods": {},
    "version": 1
  },
  "userdoc": {
    "kind": "user",
    "methods": {},
    "version": 1
  }
}