{
  "contractName": "SimpleRouteDatav1",
  "abi": [
    {
      "inputs": [
        {
          "internalType": "bytes",
          "name": "_name",
          "type": "bytes"
        },
        {
          "internalType": "uint8",
          "name": "_discipline",
          "type": "uint8"
        },
        {
          "internalType": "uint8",
          "name": "_scale",
          "type": "uint8"
        },
        {
          "internalType": "uint8",
          "name": "_grade",
          "type": "uint8"
        },
        {
          "internalType": "bytes",
          "name": "_latitude",
          "type": "bytes"
        },
        {
          "internalType": "bytes",
          "name": "_longitude",
          "type": "bytes"
        }
      ],
      "stateMutability": "nonpayable",
      "type": "constructor"
    },
    {
      "inputs": [],
      "name": "getDiscipline",
      "outputs": [
        {
          "internalType": "bool",
          "name": "",
          "type": "bool"
        }
      ],
      "stateMutability": "view",
      "type": "function",
      "constant": true
    },
    {
      "inputs": [],
      "name": "getScale",
      "outputs": [
        {
          "internalType": "bool",
          "name": "",
          "type": "bool"
        }
      ],
      "stateMutability": "view",
      "type": "function",
      "constant": true
    },
    {
      "inputs": [],
      "name": "getGrade",
      "outputs": [
        {
          "internalType": "uint8",
          "name": "",
          "type": "uint8"
        }
      ],
      "stateMutability": "view",
      "type": "function",
      "constant": true
    },
    {
      "inputs": [],
      "name": "getAll",
      "outputs": [
        {
          "components": [
            {
              "internalType": "bytes32",
              "name": "name",
              "type": "bytes32"
            },
            {
              "internalType": "uint8",
              "name": "diff",
              "type": "uint8"
            },
            {
              "internalType": "bytes11",
              "name": "lat",
              "type": "bytes11"
            },
            {
              "internalType": "bytes11",
              "name": "long",
              "type": "bytes11"
            }
          ],
          "internalType": "struct SimpleRouteDatav1.Data",
          "name": "",
          "type": "tuple"
        }
      ],
      "stateMutability": "view",
      "type": "function",
      "constant": true
    }
  ],
  "bytecode": "0x60806040523480156200001157600080fd5b5060405162000a2238038062000a2283398181016040528101906200003791906200031c565b6020865111156200007f576040517f08c379a000000000000000000000000000000000000000000000000000000000815260040162000076906200049c565b60405180910390fd5b856200008b9062000507565b6000800181905550600060078660ff16901b905060068560ff16901b81179050838117905080600060010160006101000a81548160ff021916908360ff16021790555082620000da90620005ba565b600060010160016101000a8154816affffffffffffffffffffff021916908360a81c0217905550816200010d90620005ba565b6000600101600c6101000a8154816affffffffffffffffffffff021916908360a81c0217905550505050505050506200062a565b6000604051905090565b600080fd5b600080fd5b600080fd5b600080fd5b6000601f19601f8301169050919050565b7f4e487b7100000000000000000000000000000000000000000000000000000000600052604160045260246000fd5b620001aa826200015f565b810181811067ffffffffffffffff82111715620001cc57620001cb62000170565b5b80604052505050565b6000620001e162000141565b9050620001ef82826200019f565b919050565b600067ffffffffffffffff82111562000212576200021162000170565b5b6200021d826200015f565b9050602081019050919050565b60005b838110156200024a5780820151818401526020810190506200022d565b838111156200025a576000848401525b50505050565b6000620002776200027184620001f4565b620001d5565b9050828152602081018484840111156200029657620002956200015a565b5b620002a38482856200022a565b509392505050565b600082601f830112620002c357620002c262000155565b5b8151620002d584826020860162000260565b91505092915050565b600060ff82169050919050565b620002f681620002de565b81146200030257600080fd5b50565b6000815190506200031681620002eb565b92915050565b60008060008060008060c087890312156200033c576200033b6200014b565b5b600087015167ffffffffffffffff8111156200035d576200035c62000150565b5b6200036b89828a01620002ab565b96505060206200037e89828a0162000305565b95505060406200039189828a0162000305565b9450506060620003a489828a0162000305565b935050608087015167ffffffffffffffff811115620003c857620003c762000150565b5b620003d689828a01620002ab565b92505060a087015167ffffffffffffffff811115620003fa57620003f962000150565b5b6200040889828a01620002ab565b9150509295509295509295565b600082825260208201905092915050565b7f526f757465206e616d6520746f6f206c6f6e6721204d6178206c656e6774683a60008201527f2033320000000000000000000000000000000000000000000000000000000000602082015250565b60006200048460238362000415565b9150620004918262000426565b604082019050919050565b60006020820190508181036000830152620004b78162000475565b9050919050565b600081519050919050565b6000819050602082019050919050565b6000819050919050565b6000620004f18251620004d9565b80915050919050565b600082821b905092915050565b60006200051482620004be565b826200052084620004c9565b90506200052d81620004e3565b9250602082101562000570576200056b7fffffffffffffffffffffffffffffffffffffffffffffffffffffffffffffffff83602003600802620004fa565b831692505b5050919050565b60007fffffffffffffffffffffff00000000000000000000000000000000000000000082169050919050565b6000620005b1825162000577565b80915050919050565b6000620005c782620004be565b82620005d384620004c9565b9050620005e081620005a3565b9250600b82101562000623576200061e7fffffffffffffffffffffff00000000000000000000000000000000000000000083600b03600802620004fa565b831692505b5050919050565b6103e8806200063a6000396000f3fe608060405234801561001057600080fd5b506004361061004c5760003560e01c806346998f401461005157806353ed51431461006f578063747655a51461008d578063b5cddab8146100ab575b600080fd5b6100596100c9565b604051610066919061028e565b60405180910390f35b6100776100f0565b6040516100849190610361565b60405180910390f35b6100956101bf565b6040516100a29190610397565b60405180910390f35b6100b36101e6565b6040516100c09190610397565b60405180910390f35b6000600280600060010160009054906101000a900460ff1660ff16901b60ff16901c905090565b6100f8610214565b6000604051806080016040529081600082015481526020016001820160009054906101000a900460ff1660ff1660ff1681526020016001820160019054906101000a900460a81b74ffffffffffffffffffffffffffffffffffffffffff191674ffffffffffffffffffffffffffffffffffffffffff1916815260200160018201600c9054906101000a900460a81b74ffffffffffffffffffffffffffffffffffffffffff191674ffffffffffffffffffffffffffffffffffffffffff191681525050905090565b600060016007600060010160009054906101000a900460ff1660ff16901c60ff1614905090565b6000600160076001600060010160009054906101000a900460ff1660ff16901b60ff16901c60ff1614905090565b604051806080016040528060008019168152602001600060ff168152602001600074ffffffffffffffffffffffffffffffffffffffffff19168152602001600074ffffffffffffffffffffffffffffffffffffffffff191681525090565b600060ff82169050919050565b61028881610272565b82525050565b60006020820190506102a3600083018461027f565b92915050565b6000819050919050565b6102bc816102a9565b82525050565b6102cb81610272565b82525050565b60007fffffffffffffffffffffff00000000000000000000000000000000000000000082169050919050565b610306816102d1565b82525050565b60808201600082015161032260008501826102b3565b50602082015161033560208501826102c2565b50604082015161034860408501826102fd565b50606082015161035b60608501826102fd565b50505050565b6000608082019050610376600083018461030c565b92915050565b60008115159050919050565b6103918161037c565b82525050565b60006020820190506103ac6000830184610388565b9291505056fea2646970667358221220a2fdef7aef69af6e066f4e80bb510df983e474c718483e666f94d054f032b41264736f6c634300080f0033",
  "immutableReferences": {},
  "source": "// SPDX-License-Identifier: MIT\r\npragma solidity ^0.8.8;\r\npragma experimental ABIEncoderV2;\r\n\r\ncontract SimpleRouteDatav1 {\r\n\r\n    struct Data {\r\n        bytes32 name;\r\n        uint8 diff;\r\n        bytes11 lat;        // 11 cm accuracy\r\n        bytes11 long;       //\r\n    }\r\n\r\n    Data data;\r\n\r\n    constructor(bytes memory _name, uint8 _discipline, uint8 _scale, uint8 _grade, bytes memory _latitude, bytes memory _longitude) {\r\n        require(_name.length <= 32,\"Route name too long! Max length: 32\");\r\n\r\n        data.name = bytes32(_name);\r\n\r\n        uint8 temp_diff = _discipline<<7;\r\n        temp_diff |= _scale<<6;\r\n        temp_diff |= _grade;\r\n        data.diff = temp_diff;\r\n\r\n        data.lat = bytes11(_latitude);\r\n        data.long = bytes11(_longitude);\r\n    }\r\n\r\n    function getDiscipline() public view returns (bool) {\r\n        return data.diff>>7 == 1;\r\n    }\r\n\r\n    function getScale() public view returns (bool) {\r\n        return data.diff<<1>>7 == 1;\r\n    }\r\n\r\n    function getGrade() public view returns (uint8) {\r\n        return data.diff<<2>>2;\r\n    }\r\n\r\n    function getAll() public view returns (Data memory) {\r\n        return data;\r\n    }\r\n}\r\n\r\n",
  "sourcePath": "C:\\Users\\Tino\\Google Drive\\Docs\\UChile\\MEMORIA\\DEV\\dapp\\contracts\\SimpleRouteDatav1.sol",
  "compiler": {
    "name": "solc",
    "version": "0.8.15+commit.e14f2714.Emscripten.clang"
  },
  "schemaVersion": "3.4.7",
  "updatedAt": "2022-07-05T11:03:02.595Z",
  "networkType": "ethereum",
  "devdoc": {
    "kind": "dev",
    "methods": {},
    "version": 1
  },
  "userdoc": {
    "kind": "user",
    "methods": {},
    "version": 1
  }
}